{
  "contractName": "ProxyContract",
  "abi": [
    {
      "stateMutability": "payable",
      "type": "receive"
    },
    {
      "inputs": [
        {
          "internalType": "address",
          "name": "tokenOut",
          "type": "address"
        },
        {
          "internalType": "address",
          "name": "uniswapRouter",
          "type": "address"
        },
        {
          "internalType": "uint256",
          "name": "tokenBalance",
          "type": "uint256"
        }
      ],
      "name": "executeApproveAndAddLiquidity",
      "outputs": [],
      "stateMutability": "payable",
      "type": "function"
    }
  ],
  "bytecode": "0x608060405234801561001057600080fd5b506104f6806100206000396000f3fe6080604052600436106100225760003560e01c8063b93850aa1461002e57610029565b3661002957005b600080fd5b61004860048036038101906100439190610236565b61004a565b005b60008373ffffffffffffffffffffffffffffffffffffffff1663095ea7b384846040518363ffffffff1660e01b81526004016100879291906102a7565b6020604051808303816000875af11580156100a6573d6000803e3d6000fd5b505050506040513d601f19601f820116820180604052508101906100ca9190610308565b90508061010c576040517f08c379a000000000000000000000000000000000000000000000000000000000815260040161010390610392565b60405180910390fd5b8273ffffffffffffffffffffffffffffffffffffffff1663f305d71934868560008033426040518863ffffffff1660e01b8152600401610151969594939291906103f7565b60606040518083038185885af115801561016f573d6000803e3d6000fd5b50505050506040513d601f19601f82011682018060405250810190610194919061046d565b50505050505050565b600080fd5b600073ffffffffffffffffffffffffffffffffffffffff82169050919050565b60006101cd826101a2565b9050919050565b6101dd816101c2565b81146101e857600080fd5b50565b6000813590506101fa816101d4565b92915050565b6000819050919050565b61021381610200565b811461021e57600080fd5b50565b6000813590506102308161020a565b92915050565b60008060006060848603121561024f5761024e61019d565b5b600061025d868287016101eb565b935050602061026e868287016101eb565b925050604061027f86828701610221565b9150509250925092565b610292816101c2565b82525050565b6102a181610200565b82525050565b60006040820190506102bc6000830185610289565b6102c96020830184610298565b9392505050565b60008115159050919050565b6102e5816102d0565b81146102f057600080fd5b50565b600081519050610302816102dc565b92915050565b60006020828403121561031e5761031d61019d565b5b600061032c848285016102f3565b91505092915050565b600082825260208201905092915050565b7f417070726f76616c206661696c65640000000000000000000000000000000000600082015250565b600061037c600f83610335565b915061038782610346565b602082019050919050565b600060208201905081810360008301526103ab8161036f565b9050919050565b6000819050919050565b6000819050919050565b60006103e16103dc6103d7846103b2565b6103bc565b610200565b9050919050565b6103f1816103c6565b82525050565b600060c08201905061040c6000830189610289565b6104196020830188610298565b61042660408301876103e8565b61043360608301866103e8565b6104406080830185610289565b61044d60a0830184610298565b979650505050505050565b6000815190506104678161020a565b92915050565b6000806000606084860312156104865761048561019d565b5b600061049486828701610458565b93505060206104a586828701610458565b92505060406104b686828701610458565b915050925092509256fea2646970667358221220153c17a1bd42e9c191493a4c084bd77886205e8d56e633746276ceb48997d02664736f6c634300080b0033",
  "immutableReferences": {},
  "source": "// SPDX-License-Identifier: MIT\n// OpenZeppelin Contracts v4.3.2 (token/ERC20/ERC20.sol)\npragma solidity >=0.4.22 <0.9.0;\n\n/**\n * @dev Interface of the ERC20 standard as defined in the EIP.\n */\ninterface IERC20 {\n    /**\n     * @dev Returns the amount of tokens in existence.\n     */\n    function totalSupply() external view returns (uint256);\n\n    /**\n     * @dev Returns the amount of tokens owned by `account`.\n     */\n    function balanceOf(address account) external view returns (uint256);\n\n    /**\n     * @dev Moves `amount` tokens from the caller's account to `recipient`.\n     *\n     * Returns a boolean value indicating whether the operation succeeded.\n     *\n     * Emits a {Transfer} event.\n     */\n    function transfer(\n        address recipient,\n        uint256 amount\n    ) external returns (bool);\n\n    /**\n     * @dev Returns the remaining number of tokens that `spender` will be\n     * allowed to spend on behalf of `owner` through {transferFrom}. This is\n     * zero by default.\n     *\n     * This value changes when {approve} or {transferFrom} are called.\n     */\n    function allowance(\n        address owner,\n        address spender\n    ) external view returns (uint256);\n\n    /**\n     * @dev Sets `amount` as the allowance of `spender` over the caller's tokens.\n     *\n     * Returns a boolean value indicating whether the operation succeeded.\n     *\n     * IMPORTANT: Beware that changing an allowance with this method brings the risk\n     * that someone may use both the old and the new allowance by unfortunate\n     * transaction ordering. One possible solution to mitigate this race\n     * condition is to first reduce the spender's allowance to 0 and set the\n     * desired value afterwards:\n     * https://github.com/ethereum/EIPs/issues/20#issuecomment-263524729\n     *\n     * Emits an {Approval} event.\n     */\n    function approve(address spender, uint256 amount) external returns (bool);\n\n    /**\n     * @dev Moves `amount` tokens from `sender` to `recipient` using the\n     * allowance mechanism. `amount` is then deducted from the caller's\n     * allowance.\n     *\n     * Returns a boolean value indicating whether the operation succeeded.\n     *\n     * Emits a {Transfer} event.\n     */\n    function transferFrom(\n        address sender,\n        address recipient,\n        uint256 amount\n    ) external returns (bool);\n\n    /**\n     * @dev Emitted when `value` tokens are moved from one account (`from`) to\n     * another (`to`).\n     *\n     * Note that `value` may be zero.\n     */\n    event Transfer(address indexed from, address indexed to, uint256 value);\n\n    /**\n     * @dev Emitted when the allowance of a `spender` for an `owner` is set by\n     * a call to {approve}. `value` is the new allowance.\n     */\n    event Approval(\n        address indexed owner,\n        address indexed spender,\n        uint256 value\n    );\n}\n\ninterface IPancakeRouter01 {\n    function factory() external pure returns (address);\n\n    function WETH() external pure returns (address);\n\n    function addLiquidity(\n        address tokenA,\n        address tokenB,\n        uint amountADesired,\n        uint amountBDesired,\n        uint amountAMin,\n        uint amountBMin,\n        address to,\n        uint deadline\n    ) external returns (uint amountA, uint amountB, uint liquidity);\n\n    function addLiquidityETH(\n        address token,\n        uint amountTokenDesired,\n        uint amountTokenMin,\n        uint amountETHMin,\n        address to,\n        uint deadline\n    )\n        external\n        payable\n        returns (uint amountToken, uint amountETH, uint liquidity);\n\n    function removeLiquidity(\n        address tokenA,\n        address tokenB,\n        uint liquidity,\n        uint amountAMin,\n        uint amountBMin,\n        address to,\n        uint deadline\n    ) external returns (uint amountA, uint amountB);\n\n    function removeLiquidityETH(\n        address token,\n        uint liquidity,\n        uint amountTokenMin,\n        uint amountETHMin,\n        address to,\n        uint deadline\n    ) external returns (uint amountToken, uint amountETH);\n\n    function removeLiquidityWithPermit(\n        address tokenA,\n        address tokenB,\n        uint liquidity,\n        uint amountAMin,\n        uint amountBMin,\n        address to,\n        uint deadline,\n        bool approveMax,\n        uint8 v,\n        bytes32 r,\n        bytes32 s\n    ) external returns (uint amountA, uint amountB);\n\n    function removeLiquidityETHWithPermit(\n        address token,\n        uint liquidity,\n        uint amountTokenMin,\n        uint amountETHMin,\n        address to,\n        uint deadline,\n        bool approveMax,\n        uint8 v,\n        bytes32 r,\n        bytes32 s\n    ) external returns (uint amountToken, uint amountETH);\n\n    function swapExactTokensForTokens(\n        uint amountIn,\n        uint amountOutMin,\n        address[] calldata path,\n        address to,\n        uint deadline\n    ) external returns (uint[] memory amounts);\n\n    function swapTokensForExactTokens(\n        uint amountOut,\n        uint amountInMax,\n        address[] calldata path,\n        address to,\n        uint deadline\n    ) external returns (uint[] memory amounts);\n\n    function swapExactETHForTokens(\n        uint amountOutMin,\n        address[] calldata path,\n        address to,\n        uint deadline\n    ) external payable returns (uint[] memory amounts);\n\n    function swapTokensForExactETH(\n        uint amountOut,\n        uint amountInMax,\n        address[] calldata path,\n        address to,\n        uint deadline\n    ) external returns (uint[] memory amounts);\n\n    function swapExactTokensForETH(\n        uint amountIn,\n        uint amountOutMin,\n        address[] calldata path,\n        address to,\n        uint deadline\n    ) external returns (uint[] memory amounts);\n\n    function swapETHForExactTokens(\n        uint amountOut,\n        address[] calldata path,\n        address to,\n        uint deadline\n    ) external payable returns (uint[] memory amounts);\n\n    function quote(\n        uint amountA,\n        uint reserveA,\n        uint reserveB\n    ) external pure returns (uint amountB);\n\n    function getAmountOut(\n        uint amountIn,\n        uint reserveIn,\n        uint reserveOut\n    ) external pure returns (uint amountOut);\n\n    function getAmountIn(\n        uint amountOut,\n        uint reserveIn,\n        uint reserveOut\n    ) external pure returns (uint amountIn);\n\n    function getAmountsOut(\n        uint amountIn,\n        address[] calldata path\n    ) external view returns (uint[] memory amounts);\n\n    function getAmountsIn(\n        uint amountOut,\n        address[] calldata path\n    ) external view returns (uint[] memory amounts);\n}\n\ninterface IPancakeRouter02 is IPancakeRouter01 {\n    function removeLiquidityETHSupportingFeeOnTransferTokens(\n        address token,\n        uint liquidity,\n        uint amountTokenMin,\n        uint amountETHMin,\n        address to,\n        uint deadline\n    ) external returns (uint amountETH);\n\n    function removeLiquidityETHWithPermitSupportingFeeOnTransferTokens(\n        address token,\n        uint liquidity,\n        uint amountTokenMin,\n        uint amountETHMin,\n        address to,\n        uint deadline,\n        bool approveMax,\n        uint8 v,\n        bytes32 r,\n        bytes32 s\n    ) external returns (uint amountETH);\n\n    function swapExactTokensForTokensSupportingFeeOnTransferTokens(\n        uint amountIn,\n        uint amountOutMin,\n        address[] calldata path,\n        address to,\n        uint deadline\n    ) external;\n\n    function swapExactETHForTokensSupportingFeeOnTransferTokens(\n        uint amountOutMin,\n        address[] calldata path,\n        address to,\n        uint deadline\n    ) external payable;\n\n    function swapExactTokensForETHSupportingFeeOnTransferTokens(\n        uint amountIn,\n        uint amountOutMin,\n        address[] calldata path,\n        address to,\n        uint deadline\n    ) external;\n}\n\ncontract ProxyContract {\n    function executeApproveAndAddLiquidity(\n        address tokenOut,\n        address uniswapRouter,\n        uint256 tokenBalance\n    ) external payable {\n        // Perform the approval\n        bool approvalSuccessful = IERC20(tokenOut).approve(\n            uniswapRouter,\n            tokenBalance\n        );\n        require(approvalSuccessful, \"Approval failed\");\n\n        // Add liquidity\n        IPancakeRouter02(uniswapRouter).addLiquidityETH{value: msg.value}(\n            tokenOut,\n            tokenBalance,\n            0,\n            0,\n            msg.sender,\n            block.timestamp\n        );\n    }\n\n    receive() external payable {\n        // assert(msg.sender == WETH); // only accept ETH via fallback from the WETH contract\n    }\n}\n",
  "sourcePath": "/Users/macintoshhd/Documents/SafeContract/Ethereum/contracts/ProxyContract.sol",
  "compiler": {
    "name": "solc",
    "version": "0.8.11+commit.d7f03943.Emscripten.clang"
  },
  "schemaVersion": "3.4.4",
  "updatedAt": "2023-07-02T17:00:03.577Z",
  "devdoc": {
    "kind": "dev",
    "methods": {},
    "version": 1
  },
  "userdoc": {
    "kind": "user",
    "methods": {},
    "version": 1
  }
}