{
  "contractName": "Safree",
  "abi": [
    {
      "inputs": [],
      "stateMutability": "nonpayable",
      "type": "constructor"
    },
    {
      "anonymous": false,
      "inputs": [
        {
          "indexed": false,
          "internalType": "string",
          "name": "message",
          "type": "string"
        },
        {
          "indexed": false,
          "internalType": "uint256",
          "name": "val",
          "type": "uint256"
        }
      ],
      "name": "log",
      "type": "event"
    },
    {
      "inputs": [],
      "name": "name",
      "outputs": [
        {
          "internalType": "string",
          "name": "",
          "type": "string"
        }
      ],
      "stateMutability": "view",
      "type": "function"
    },
    {
      "stateMutability": "payable",
      "type": "receive"
    },
    {
      "inputs": [
        {
          "internalType": "address",
          "name": "_tokenIn",
          "type": "address"
        },
        {
          "internalType": "address",
          "name": "_tokenOut",
          "type": "address"
        },
        {
          "internalType": "string",
          "name": "network",
          "type": "string"
        },
        {
          "internalType": "uint256",
          "name": "amountOutMin",
          "type": "uint256"
        },
        {
          "internalType": "uint256",
          "name": "amountIn",
          "type": "uint256"
        },
        {
          "internalType": "address",
          "name": "UNISWAP_ROUTER",
          "type": "address"
        },
        {
          "internalType": "address",
          "name": "proxyContract",
          "type": "address"
        }
      ],
      "name": "testTokenSwapNoLp",
      "outputs": [
        {
          "internalType": "uint256",
          "name": "",
          "type": "uint256"
        },
        {
          "internalType": "uint256",
          "name": "",
          "type": "uint256"
        }
      ],
      "stateMutability": "payable",
      "type": "function"
    },
    {
      "inputs": [
        {
          "internalType": "address",
          "name": "_tokenIn",
          "type": "address"
        },
        {
          "internalType": "address",
          "name": "_tokenOut",
          "type": "address"
        },
        {
          "internalType": "string",
          "name": "network",
          "type": "string"
        },
        {
          "internalType": "uint256",
          "name": "amountOutMin",
          "type": "uint256"
        },
        {
          "internalType": "address",
          "name": "UNISWAP_ROUTER",
          "type": "address"
        }
      ],
      "name": "testTokenSwap",
      "outputs": [
        {
          "internalType": "uint256",
          "name": "",
          "type": "uint256"
        },
        {
          "internalType": "uint256",
          "name": "",
          "type": "uint256"
        }
      ],
      "stateMutability": "payable",
      "type": "function"
    }
  ],
  "bytecode": "0x60806040526040518060400160405280600681526020017f5361667265650000000000000000000000000000000000000000000000000000815250600090805190602001906200005192919062000066565b503480156200005f57600080fd5b506200017b565b828054620000749062000145565b90600052602060002090601f016020900481019282620000985760008555620000e4565b82601f10620000b357805160ff1916838001178555620000e4565b82800160010185558215620000e4579182015b82811115620000e3578251825591602001919060010190620000c6565b5b509050620000f39190620000f7565b5090565b5b8082111562000112576000816000905550600101620000f8565b5090565b7f4e487b7100000000000000000000000000000000000000000000000000000000600052602260045260246000fd5b600060028204905060018216806200015e57607f821691505b6020821081141562000175576200017462000116565b5b50919050565b613511806200018b6000396000f3fe6080604052600436106100385760003560e01c806306fdde031461004457806363336f4f1461006f578063e89545cf146100a05761003f565b3661003f57005b600080fd5b34801561005057600080fd5b506100596100d1565b6040516100669190612862565b60405180910390f35b61008960048036038101906100849190612a61565b61015f565b604051610097929190612b07565b60405180910390f35b6100ba60048036038101906100b59190612b30565b61142d565b6040516100c8929190612b07565b60405180910390f35b600080546100de90612c1d565b80601f016020809104026020016040519081016040528092919081815260200182805461010a90612c1d565b80156101575780601f1061012c57610100808354040283529160200191610157565b820191906000526020600020905b81548152906001019060200180831161013a57829003601f168201915b505050505081565b600080600061018b606461017d60033461278790919063ffffffff16565b61279d90919063ffffffff16565b905060006101a282346127b390919063ffffffff16565b905060606040516020016101b590612c9b565b60405160208183030381529060405280519060200120886040516020016101dc9190612862565b6040516020818303038152906040528051906020012014156104cc5773bb4cdb9cbd36b01bd1cbaebf2de08d9173bc095c73ffffffffffffffffffffffffffffffffffffffff168a73ffffffffffffffffffffffffffffffffffffffff161480610285575073bb4cdb9cbd36b01bd1cbaebf2de08d9173bc095c73ffffffffffffffffffffffffffffffffffffffff168973ffffffffffffffffffffffffffffffffffffffff16145b1561037957600267ffffffffffffffff8111156102a5576102a4612900565b5b6040519080825280602002602001820160405280156102d35781602001602082028036833780820191505090505b50905089816000815181106102eb576102ea612cbb565b5b602002602001019073ffffffffffffffffffffffffffffffffffffffff16908173ffffffffffffffffffffffffffffffffffffffff1681525050888160018151811061033a57610339612cbb565b5b602002602001019073ffffffffffffffffffffffffffffffffffffffff16908173ffffffffffffffffffffffffffffffffffffffff16815250506104c7565b600367ffffffffffffffff81111561039457610393612900565b5b6040519080825280602002602001820160405280156103c25781602001602082028036833780820191505090505b50905089816000815181106103da576103d9612cbb565b5b602002602001019073ffffffffffffffffffffffffffffffffffffffff16908173ffffffffffffffffffffffffffffffffffffffff168152505073bb4cdb9cbd36b01bd1cbaebf2de08d9173bc095c8160018151811061043d5761043c612cbb565b5b602002602001019073ffffffffffffffffffffffffffffffffffffffff16908173ffffffffffffffffffffffffffffffffffffffff1681525050888160028151811061048c5761048b612cbb565b5b602002602001019073ffffffffffffffffffffffffffffffffffffffff16908173ffffffffffffffffffffffffffffffffffffffff16815250505b6107ef565b6040516020016104db90612d36565b60405160208183030381529060405280519060200120886040516020016105029190612862565b6040516020818303038152906040528051906020012014156107ee5773c02aaa39b223fe8d0a0e5c4f27ead9083c756cc273ffffffffffffffffffffffffffffffffffffffff168a73ffffffffffffffffffffffffffffffffffffffff1614806105ab575073c02aaa39b223fe8d0a0e5c4f27ead9083c756cc273ffffffffffffffffffffffffffffffffffffffff168973ffffffffffffffffffffffffffffffffffffffff16145b1561069f57600267ffffffffffffffff8111156105cb576105ca612900565b5b6040519080825280602002602001820160405280156105f95781602001602082028036833780820191505090505b509050898160008151811061061157610610612cbb565b5b602002602001019073ffffffffffffffffffffffffffffffffffffffff16908173ffffffffffffffffffffffffffffffffffffffff168152505088816001815181106106605761065f612cbb565b5b602002602001019073ffffffffffffffffffffffffffffffffffffffff16908173ffffffffffffffffffffffffffffffffffffffff16815250506107ed565b600367ffffffffffffffff8111156106ba576106b9612900565b5b6040519080825280602002602001820160405280156106e85781602001602082028036833780820191505090505b5090508981600081518110610700576106ff612cbb565b5b602002602001019073ffffffffffffffffffffffffffffffffffffffff16908173ffffffffffffffffffffffffffffffffffffffff168152505073c02aaa39b223fe8d0a0e5c4f27ead9083c756cc28160018151811061076357610762612cbb565b5b602002602001019073ffffffffffffffffffffffffffffffffffffffff16908173ffffffffffffffffffffffffffffffffffffffff168152505088816002815181106107b2576107b1612cbb565b5b602002602001019073ffffffffffffffffffffffffffffffffffffffff16908173ffffffffffffffffffffffffffffffffffffffff16815250505b5b5b6000610708426107ff9190612d85565b9050600382511015610882578673ffffffffffffffffffffffffffffffffffffffff1663b6f9de95848a8530866040518663ffffffff1660e01b815260040161084b9493929190612ea8565b6000604051808303818588803b15801561086457600080fd5b505af1158015610878573d6000803e3d6000fd5b5050505050610a8b565b8160008151811061089657610895612cbb565b5b602002602001015173ffffffffffffffffffffffffffffffffffffffff1663095ea7b388683635c9adc5dea000006040518363ffffffff1660e01b81526004016108e1929190612f39565b6020604051808303816000875af1158015610900573d6000803e3d6000fd5b505050506040513d601f19601f820116820180604052508101906109249190612f9a565b50600267ffffffffffffffff8111156109405761093f612900565b5b60405190808252806020026020018201604052801561096e5781602001602082028036833780820191505090505b5091508a8260008151811061098657610985612cbb565b5b602002602001019073ffffffffffffffffffffffffffffffffffffffff16908173ffffffffffffffffffffffffffffffffffffffff168152505089826001815181106109d5576109d4612cbb565b5b602002602001019073ffffffffffffffffffffffffffffffffffffffff16908173ffffffffffffffffffffffffffffffffffffffff16815250508673ffffffffffffffffffffffffffffffffffffffff16635c11d795678ac7230489e800008a8530866040518663ffffffff1660e01b8152600401610a58959493929190613002565b600060405180830381600087803b158015610a7257600080fd5b505af1158015610a86573d6000803e3d6000fd5b505050505b60008260018451610a9c919061305c565b81518110610aad57610aac612cbb565b5b602002602001015173ffffffffffffffffffffffffffffffffffffffff166370a08231306040518263ffffffff1660e01b8152600401610aed9190613090565b602060405180830381865afa158015610b0a573d6000803e3d6000fd5b505050506040513d601f19601f82011682018060405250810190610b2e91906130c0565b9050600088905060606000604051602001610b4890612c9b565b604051602081830303815290604052805190602001208d604051602001610b6f9190612862565b604051602081830303815290604052805190602001201415610c305773bb4cdb9cbd36b01bd1cbaebf2de08d9173bc095c73ffffffffffffffffffffffffffffffffffffffff168f73ffffffffffffffffffffffffffffffffffffffff161480610c18575073bb4cdb9cbd36b01bd1cbaebf2de08d9173bc095c73ffffffffffffffffffffffffffffffffffffffff168e73ffffffffffffffffffffffffffffffffffffffff16145b15610c265760029050610c2b565b600390505b610d24565b604051602001610c3f90612d36565b604051602081830303815290604052805190602001208d604051602001610c669190612862565b604051602081830303815290604052805190602001201415610d235773c02aaa39b223fe8d0a0e5c4f27ead9083c756cc273ffffffffffffffffffffffffffffffffffffffff168f73ffffffffffffffffffffffffffffffffffffffff161480610d0f575073c02aaa39b223fe8d0a0e5c4f27ead9083c756cc273ffffffffffffffffffffffffffffffffffffffff168e73ffffffffffffffffffffffffffffffffffffffff16145b15610d1d5760029050610d22565b600390505b5b5b600267ffffffffffffffff811115610d3f57610d3e612900565b5b604051908082528060200260200182016040528015610d6d5781602001602082028036833780820191505090505b5091508d82600081518110610d8557610d84612cbb565b5b602002602001019073ffffffffffffffffffffffffffffffffffffffff16908173ffffffffffffffffffffffffffffffffffffffff16815250508e82600181518110610dd457610dd3612cbb565b5b602002602001019073ffffffffffffffffffffffffffffffffffffffff16908173ffffffffffffffffffffffffffffffffffffffff168152505060008373ffffffffffffffffffffffffffffffffffffffff1663d06ca61f86856040518363ffffffff1660e01b8152600401610e4b9291906130ed565b600060405180830381865afa158015610e68573d6000803e3d6000fd5b505050506040513d6000823e3d601f19601f82011682018060405250810190610e9191906131e5565b905060006003831015610f2e578160018351610ead919061305c565b81518110610ebe57610ebd612cbb565b5b6020026020010151891115610f2957610f2689610f186103e88560018751610ee6919061305c565b81518110610ef757610ef6612cbb565b5b60200260200101518d610f0a919061305c565b61278790919063ffffffff16565b61279d90919063ffffffff16565b90505b611042565b8160018351610f3d919061305c565b81518110610f4e57610f4d612cbb565b5b6020026020010151678ac7230489e800001115610fd557610fce678ac7230489e80000610fc06103e88560018751610f86919061305c565b81518110610f9757610f96612cbb565b5b6020026020010151678ac7230489e80000610fb2919061305c565b61278790919063ffffffff16565b61279d90919063ffffffff16565b9050611041565b61103e678ac7230489e800006110306103e8678ac7230489e800008660018851610fff919061305c565b815181106110105761100f612cbb565b5b6020026020010151611022919061305c565b61278790919063ffffffff16565b61279d90919063ffffffff16565b90505b5b8360008151811061105657611055612cbb565b5b602002602001015173ffffffffffffffffffffffffffffffffffffffff1663095ea7b386886040518363ffffffff1660e01b815260040161109892919061322e565b6020604051808303816000875af11580156110b7573d6000803e3d6000fd5b505050506040513d601f19601f820116820180604052508101906110db9190612f9a565b506000861161111f576040517f08c379a0000000000000000000000000000000000000000000000000000000008152600401611116906132c9565b60405180910390fd5b60038310156111a1578473ffffffffffffffffffffffffffffffffffffffff1663791ac9478760008730426040518663ffffffff1660e01b815260040161116a959493929190613324565b600060405180830381600087803b15801561118457600080fd5b505af1158015611198573d6000803e3d6000fd5b50505050611216565b8473ffffffffffffffffffffffffffffffffffffffff16635c11d7958760008730426040518663ffffffff1660e01b81526004016111e3959493929190613324565b600060405180830381600087803b1580156111fd57600080fd5b505af1158015611211573d6000803e3d6000fd5b505050505b60006003841061122e57678ac7230489e80000611230565b475b905060008673ffffffffffffffffffffffffffffffffffffffff1663d06ca61f838c6040518363ffffffff1660e01b815260040161126f9291906130ed565b600060405180830381865afa15801561128c573d6000803e3d6000fd5b505050506040513d6000823e3d601f19601f820116820180604052508101906112b591906131e5565b9050600081600183516112c8919061305c565b815181106112d9576112d8612cbb565b5b6020026020010151891061134757611340896113326103e88560018751611300919061305c565b8151811061131157611310612cbb565b5b60200260200101518d611324919061305c565b61278790919063ffffffff16565b61279d90919063ffffffff16565b9050611410565b600a89108061137d5750600a8260018451611362919061305c565b8151811061137357611372612cbb565b5b6020026020010151105b1561138c57610384905061140f565b61140c826001845161139e919061305c565b815181106113af576113ae612cbb565b5b60200260200101516113fe6103e88c86600188516113cd919061305c565b815181106113de576113dd612cbb565b5b60200260200101516113f0919061305c565b61278790919063ffffffff16565b61279d90919063ffffffff16565b90505b5b83819e509e50505050505050505050505050509550959350505050565b60008060008873ffffffffffffffffffffffffffffffffffffffff166370a08231306040518263ffffffff1660e01b815260040161146b9190613090565b602060405180830381865afa158015611488573d6000803e3d6000fd5b505050506040513d601f19601f820116820180604052508101906114ac91906130c0565b9050600081116114f1576040517f08c379a00000000000000000000000000000000000000000000000000000000081526004016114e8906133ca565b60405180910390fd5b8373ffffffffffffffffffffffffffffffffffffffff1663b93850aa8a87846040518463ffffffff1660e01b815260040161152e939291906133ea565b600060405180830381600087803b15801561154857600080fd5b505af115801561155c573d6000803e3d6000fd5b50505050606060405160200161157190612c9b565b60405160208183030381529060405280519060200120896040516020016115989190612862565b6040516020818303038152906040528051906020012014156118885773bb4cdb9cbd36b01bd1cbaebf2de08d9173bc095c73ffffffffffffffffffffffffffffffffffffffff168b73ffffffffffffffffffffffffffffffffffffffff161480611641575073bb4cdb9cbd36b01bd1cbaebf2de08d9173bc095c73ffffffffffffffffffffffffffffffffffffffff168a73ffffffffffffffffffffffffffffffffffffffff16145b1561173557600267ffffffffffffffff81111561166157611660612900565b5b60405190808252806020026020018201604052801561168f5781602001602082028036833780820191505090505b5090508a816000815181106116a7576116a6612cbb565b5b602002602001019073ffffffffffffffffffffffffffffffffffffffff16908173ffffffffffffffffffffffffffffffffffffffff168152505089816001815181106116f6576116f5612cbb565b5b602002602001019073ffffffffffffffffffffffffffffffffffffffff16908173ffffffffffffffffffffffffffffffffffffffff1681525050611883565b600367ffffffffffffffff8111156117505761174f612900565b5b60405190808252806020026020018201604052801561177e5781602001602082028036833780820191505090505b5090508a8160008151811061179657611795612cbb565b5b602002602001019073ffffffffffffffffffffffffffffffffffffffff16908173ffffffffffffffffffffffffffffffffffffffff168152505073bb4cdb9cbd36b01bd1cbaebf2de08d9173bc095c816001815181106117f9576117f8612cbb565b5b602002602001019073ffffffffffffffffffffffffffffffffffffffff16908173ffffffffffffffffffffffffffffffffffffffff1681525050898160028151811061184857611847612cbb565b5b602002602001019073ffffffffffffffffffffffffffffffffffffffff16908173ffffffffffffffffffffffffffffffffffffffff16815250505b611bab565b60405160200161189790612d36565b60405160208183030381529060405280519060200120896040516020016118be9190612862565b604051602081830303815290604052805190602001201415611baa5773c02aaa39b223fe8d0a0e5c4f27ead9083c756cc273ffffffffffffffffffffffffffffffffffffffff168b73ffffffffffffffffffffffffffffffffffffffff161480611967575073c02aaa39b223fe8d0a0e5c4f27ead9083c756cc273ffffffffffffffffffffffffffffffffffffffff168a73ffffffffffffffffffffffffffffffffffffffff16145b15611a5b57600267ffffffffffffffff81111561198757611986612900565b5b6040519080825280602002602001820160405280156119b55781602001602082028036833780820191505090505b5090508a816000815181106119cd576119cc612cbb565b5b602002602001019073ffffffffffffffffffffffffffffffffffffffff16908173ffffffffffffffffffffffffffffffffffffffff16815250508981600181518110611a1c57611a1b612cbb565b5b602002602001019073ffffffffffffffffffffffffffffffffffffffff16908173ffffffffffffffffffffffffffffffffffffffff1681525050611ba9565b600367ffffffffffffffff811115611a7657611a75612900565b5b604051908082528060200260200182016040528015611aa45781602001602082028036833780820191505090505b5090508a81600081518110611abc57611abb612cbb565b5b602002602001019073ffffffffffffffffffffffffffffffffffffffff16908173ffffffffffffffffffffffffffffffffffffffff168152505073c02aaa39b223fe8d0a0e5c4f27ead9083c756cc281600181518110611b1f57611b1e612cbb565b5b602002602001019073ffffffffffffffffffffffffffffffffffffffff16908173ffffffffffffffffffffffffffffffffffffffff16815250508981600281518110611b6e57611b6d612cbb565b5b602002602001019073ffffffffffffffffffffffffffffffffffffffff16908173ffffffffffffffffffffffffffffffffffffffff16815250505b5b5b8573ffffffffffffffffffffffffffffffffffffffff1663b6f9de95888a843061070842611bd99190612d85565b6040518663ffffffff1660e01b8152600401611bf89493929190612ea8565b6000604051808303818588803b158015611c1157600080fd5b505af1158015611c25573d6000803e3d6000fd5b505050505060008160018351611c3b919061305c565b81518110611c4c57611c4b612cbb565b5b602002602001015173ffffffffffffffffffffffffffffffffffffffff166370a08231306040518263ffffffff1660e01b8152600401611c8c9190613090565b602060405180830381865afa158015611ca9573d6000803e3d6000fd5b505050506040513d601f19601f82011682018060405250810190611ccd91906130c0565b905060008790506060604051602001611ce590612c9b565b604051602081830303815290604052805190602001208c604051602001611d0c9190612862565b604051602081830303815290604052805190602001201415611ffc5773bb4cdb9cbd36b01bd1cbaebf2de08d9173bc095c73ffffffffffffffffffffffffffffffffffffffff168e73ffffffffffffffffffffffffffffffffffffffff161480611db5575073bb4cdb9cbd36b01bd1cbaebf2de08d9173bc095c73ffffffffffffffffffffffffffffffffffffffff168d73ffffffffffffffffffffffffffffffffffffffff16145b15611ea957600267ffffffffffffffff811115611dd557611dd4612900565b5b604051908082528060200260200182016040528015611e035781602001602082028036833780820191505090505b5090508c81600081518110611e1b57611e1a612cbb565b5b602002602001019073ffffffffffffffffffffffffffffffffffffffff16908173ffffffffffffffffffffffffffffffffffffffff16815250508d81600181518110611e6a57611e69612cbb565b5b602002602001019073ffffffffffffffffffffffffffffffffffffffff16908173ffffffffffffffffffffffffffffffffffffffff1681525050611ff7565b600367ffffffffffffffff811115611ec457611ec3612900565b5b604051908082528060200260200182016040528015611ef25781602001602082028036833780820191505090505b5090508c81600081518110611f0a57611f09612cbb565b5b602002602001019073ffffffffffffffffffffffffffffffffffffffff16908173ffffffffffffffffffffffffffffffffffffffff168152505073bb4cdb9cbd36b01bd1cbaebf2de08d9173bc095c81600181518110611f6d57611f6c612cbb565b5b602002602001019073ffffffffffffffffffffffffffffffffffffffff16908173ffffffffffffffffffffffffffffffffffffffff16815250508d81600281518110611fbc57611fbb612cbb565b5b602002602001019073ffffffffffffffffffffffffffffffffffffffff16908173ffffffffffffffffffffffffffffffffffffffff16815250505b61231f565b60405160200161200b90612d36565b604051602081830303815290604052805190602001208c6040516020016120329190612862565b60405160208183030381529060405280519060200120141561231e5773c02aaa39b223fe8d0a0e5c4f27ead9083c756cc273ffffffffffffffffffffffffffffffffffffffff168e73ffffffffffffffffffffffffffffffffffffffff1614806120db575073c02aaa39b223fe8d0a0e5c4f27ead9083c756cc273ffffffffffffffffffffffffffffffffffffffff168d73ffffffffffffffffffffffffffffffffffffffff16145b156121cf57600267ffffffffffffffff8111156120fb576120fa612900565b5b6040519080825280602002602001820160405280156121295781602001602082028036833780820191505090505b5090508c8160008151811061214157612140612cbb565b5b602002602001019073ffffffffffffffffffffffffffffffffffffffff16908173ffffffffffffffffffffffffffffffffffffffff16815250508d816001815181106121905761218f612cbb565b5b602002602001019073ffffffffffffffffffffffffffffffffffffffff16908173ffffffffffffffffffffffffffffffffffffffff168152505061231d565b600367ffffffffffffffff8111156121ea576121e9612900565b5b6040519080825280602002602001820160405280156122185781602001602082028036833780820191505090505b5090508c816000815181106122305761222f612cbb565b5b602002602001019073ffffffffffffffffffffffffffffffffffffffff16908173ffffffffffffffffffffffffffffffffffffffff168152505073c02aaa39b223fe8d0a0e5c4f27ead9083c756cc28160018151811061229357612292612cbb565b5b602002602001019073ffffffffffffffffffffffffffffffffffffffff16908173ffffffffffffffffffffffffffffffffffffffff16815250508d816002815181106122e2576122e1612cbb565b5b602002602001019073ffffffffffffffffffffffffffffffffffffffff16908173ffffffffffffffffffffffffffffffffffffffff16815250505b5b5b60008273ffffffffffffffffffffffffffffffffffffffff1663d06ca61f85846040518363ffffffff1660e01b815260040161235c9291906130ed565b600060405180830381865afa158015612379573d6000803e3d6000fd5b505050506040513d6000823e3d601f19601f820116820180604052508101906123a291906131e5565b9050600081600183516123b5919061305c565b815181106123c6576123c5612cbb565b5b60200260200101518c11156124375760008c9050612433816124256103e886600188516123f3919061305c565b8151811061240457612403612cbb565b5b602002602001015185612417919061305c565b61278790919063ffffffff16565b61279d90919063ffffffff16565b9150505b8260008151811061244b5761244a612cbb565b5b602002602001015173ffffffffffffffffffffffffffffffffffffffff1663095ea7b385876040518363ffffffff1660e01b815260040161248d92919061322e565b6020604051808303816000875af11580156124ac573d6000803e3d6000fd5b505050506040513d601f19601f820116820180604052508101906124d09190612f9a565b5060008511612514576040517f08c379a000000000000000000000000000000000000000000000000000000000815260040161250b906132c9565b60405180910390fd5b8373ffffffffffffffffffffffffffffffffffffffff1663791ac9478660008630426040518663ffffffff1660e01b8152600401612556959493929190613324565b600060405180830381600087803b15801561257057600080fd5b505af1158015612584573d6000803e3d6000fd5b5050505060008c905060008573ffffffffffffffffffffffffffffffffffffffff1663d06ca61f838a6040518363ffffffff1660e01b81526004016125ca9291906130ed565b600060405180830381865afa1580156125e7573d6000803e3d6000fd5b505050506040513d6000823e3d601f19601f8201168201806040525081019061261091906131e5565b905060008160018351612623919061305c565b8151811061263457612633612cbb565b5b602002602001015188106126a25761269b8861268d6103e8856001875161265b919061305c565b8151811061266c5761266b612cbb565b5b60200260200101518c61267f919061305c565b61278790919063ffffffff16565b61279d90919063ffffffff16565b905061276b565b600a8810806126d85750600a82600184516126bd919061305c565b815181106126ce576126cd612cbb565b5b6020026020010151105b156126e757610384905061276a565b61276782600184516126f9919061305c565b8151811061270a57612709612cbb565b5b60200260200101516127596103e88b8660018851612728919061305c565b8151811061273957612738612cbb565b5b602002602001015161274b919061305c565b61278790919063ffffffff16565b61279d90919063ffffffff16565b90505b5b83819b509b505050505050505050505097509795505050505050565b600081836127959190613421565b905092915050565b600081836127ab91906134aa565b905092915050565b600081836127c1919061305c565b905092915050565b600081519050919050565b600082825260208201905092915050565b60005b838110156128035780820151818401526020810190506127e8565b83811115612812576000848401525b50505050565b6000601f19601f8301169050919050565b6000612834826127c9565b61283e81856127d4565b935061284e8185602086016127e5565b61285781612818565b840191505092915050565b6000602082019050818103600083015261287c8184612829565b905092915050565b6000604051905090565b600080fd5b600080fd5b600073ffffffffffffffffffffffffffffffffffffffff82169050919050565b60006128c382612898565b9050919050565b6128d3816128b8565b81146128de57600080fd5b50565b6000813590506128f0816128ca565b92915050565b600080fd5b600080fd5b7f4e487b7100000000000000000000000000000000000000000000000000000000600052604160045260246000fd5b61293882612818565b810181811067ffffffffffffffff8211171561295757612956612900565b5b80604052505050565b600061296a612884565b9050612976828261292f565b919050565b600067ffffffffffffffff82111561299657612995612900565b5b61299f82612818565b9050602081019050919050565b82818337600083830152505050565b60006129ce6129c98461297b565b612960565b9050828152602081018484840111156129ea576129e96128fb565b5b6129f58482856129ac565b509392505050565b600082601f830112612a1257612a116128f6565b5b8135612a228482602086016129bb565b91505092915050565b6000819050919050565b612a3e81612a2b565b8114612a4957600080fd5b50565b600081359050612a5b81612a35565b92915050565b600080600080600060a08688031215612a7d57612a7c61288e565b5b6000612a8b888289016128e1565b9550506020612a9c888289016128e1565b945050604086013567ffffffffffffffff811115612abd57612abc612893565b5b612ac9888289016129fd565b9350506060612ada88828901612a4c565b9250506080612aeb888289016128e1565b9150509295509295909350565b612b0181612a2b565b82525050565b6000604082019050612b1c6000830185612af8565b612b296020830184612af8565b9392505050565b600080600080600080600060e0888a031215612b4f57612b4e61288e565b5b6000612b5d8a828b016128e1565b9750506020612b6e8a828b016128e1565b965050604088013567ffffffffffffffff811115612b8f57612b8e612893565b5b612b9b8a828b016129fd565b9550506060612bac8a828b01612a4c565b9450506080612bbd8a828b01612a4c565b93505060a0612bce8a828b016128e1565b92505060c0612bdf8a828b016128e1565b91505092959891949750929550565b7f4e487b7100000000000000000000000000000000000000000000000000000000600052602260045260246000fd5b60006002820490506001821680612c3557607f821691505b60208210811415612c4957612c48612bee565b5b50919050565b7f4253430000000000000000000000000000000000000000000000000000000000600082015250565b6000612c856003836127d4565b9150612c9082612c4f565b602082019050919050565b60006020820190508181036000830152612cb481612c78565b9050919050565b7f4e487b7100000000000000000000000000000000000000000000000000000000600052603260045260246000fd5b7f4554480000000000000000000000000000000000000000000000000000000000600082015250565b6000612d206003836127d4565b9150612d2b82612cea565b602082019050919050565b60006020820190508181036000830152612d4f81612d13565b9050919050565b7f4e487b7100000000000000000000000000000000000000000000000000000000600052601160045260246000fd5b6000612d9082612a2b565b9150612d9b83612a2b565b9250827fffffffffffffffffffffffffffffffffffffffffffffffffffffffffffffffff03821115612dd057612dcf612d56565b5b828201905092915050565b600081519050919050565b600082825260208201905092915050565b6000819050602082019050919050565b612e10816128b8565b82525050565b6000612e228383612e07565b60208301905092915050565b6000602082019050919050565b6000612e4682612ddb565b612e508185612de6565b9350612e5b83612df7565b8060005b83811015612e8c578151612e738882612e16565b9750612e7e83612e2e565b925050600181019050612e5f565b5085935050505092915050565b612ea2816128b8565b82525050565b6000608082019050612ebd6000830187612af8565b8181036020830152612ecf8186612e3b565b9050612ede6040830185612e99565b612eeb6060830184612af8565b95945050505050565b6000819050919050565b6000819050919050565b6000612f23612f1e612f1984612ef4565b612efe565b612a2b565b9050919050565b612f3381612f08565b82525050565b6000604082019050612f4e6000830185612e99565b612f5b6020830184612f2a565b9392505050565b60008115159050919050565b612f7781612f62565b8114612f8257600080fd5b50565b600081519050612f9481612f6e565b92915050565b600060208284031215612fb057612faf61288e565b5b6000612fbe84828501612f85565b91505092915050565b6000819050919050565b6000612fec612fe7612fe284612fc7565b612efe565b612a2b565b9050919050565b612ffc81612fd1565b82525050565b600060a0820190506130176000830188612ff3565b6130246020830187612af8565b81810360408301526130368186612e3b565b90506130456060830185612e99565b6130526080830184612af8565b9695505050505050565b600061306782612a2b565b915061307283612a2b565b92508282101561308557613084612d56565b5b828203905092915050565b60006020820190506130a56000830184612e99565b92915050565b6000815190506130ba81612a35565b92915050565b6000602082840312156130d6576130d561288e565b5b60006130e4848285016130ab565b91505092915050565b60006040820190506131026000830185612af8565b81810360208301526131148184612e3b565b90509392505050565b600067ffffffffffffffff82111561313857613137612900565b5b602082029050602081019050919050565b600080fd5b600061316161315c8461311d565b612960565b9050808382526020820190506020840283018581111561318457613183613149565b5b835b818110156131ad578061319988826130ab565b845260208401935050602081019050613186565b5050509392505050565b600082601f8301126131cc576131cb6128f6565b5b81516131dc84826020860161314e565b91505092915050565b6000602082840312156131fb576131fa61288e565b5b600082015167ffffffffffffffff81111561321957613218612893565b5b613225848285016131b7565b91505092915050565b60006040820190506132436000830185612e99565b6132506020830184612af8565b9392505050565b7f546f6b656e2042616c616e6365206f662074686973206164647265737320697360008201527f20746f6f206c6f77000000000000000000000000000000000000000000000000602082015250565b60006132b36028836127d4565b91506132be82613257565b604082019050919050565b600060208201905081810360008301526132e2816132a6565b9050919050565b6000819050919050565b600061330e613309613304846132e9565b612efe565b612a2b565b9050919050565b61331e816132f3565b82525050565b600060a0820190506133396000830188612af8565b6133466020830187613315565b81810360408301526133588186612e3b565b90506133676060830185612e99565b6133746080830184612af8565b9695505050505050565b7f4e6f20546f6b656e2048656c6400000000000000000000000000000000000000600082015250565b60006133b4600d836127d4565b91506133bf8261337e565b602082019050919050565b600060208201905081810360008301526133e3816133a7565b9050919050565b60006060820190506133ff6000830186612e99565b61340c6020830185612e99565b6134196040830184612af8565b949350505050565b600061342c82612a2b565b915061343783612a2b565b9250817fffffffffffffffffffffffffffffffffffffffffffffffffffffffffffffffff04831182151516156134705761346f612d56565b5b828202905092915050565b7f4e487b7100000000000000000000000000000000000000000000000000000000600052601260045260246000fd5b60006134b582612a2b565b91506134c083612a2b565b9250826134d0576134cf61347b565b5b82820490509291505056fea2646970667358221220d4c47227d4aab52f43034dede492d52cf93496070425702d82df323474cce93464736f6c634300080b0033",
  "immutableReferences": {},
  "source": "// SPDX-License-Identifier: MIT\n// OpenZeppelin Contracts v4.3.2 (token/ERC20/ERC20.sol)\npragma solidity >=0.4.22 <0.9.0;\n\n/**\n * @dev Interface of the ERC20 standard as defined in the EIP.\n */\ninterface IERC20v2 {\n    /**\n     * @dev Returns the amount of tokens in existence.\n     */\n    function totalSupply() external view returns (uint256);\n\n    /**\n     * @dev Returns the amount of tokens owned by `account`.\n     */\n    function balanceOf(address account) external view returns (uint256);\n\n    /**\n     * @dev Moves `amount` tokens from the caller's account to `recipient`.\n     *\n     * Returns a boolean value indicating whether the operation succeeded.\n     *\n     * Emits a {Transfer} event.\n     */\n    function transfer(\n        address recipient,\n        uint256 amount\n    ) external returns (bool);\n\n    /**\n     * @dev Returns the remaining number of tokens that `spender` will be\n     * allowed to spend on behalf of `owner` through {transferFrom}. This is\n     * zero by default.\n     *\n     * This value changes when {approve} or {transferFrom} are called.\n     */\n    function allowance(\n        address owner,\n        address spender\n    ) external view returns (uint256);\n\n    /**\n     * @dev Sets `amount` as the allowance of `spender` over the caller's tokens.\n     *\n     * Returns a boolean value indicating whether the operation succeeded.\n     *\n     * IMPORTANT: Beware that changing an allowance with this method brings the risk\n     * that someone may use both the old and the new allowance by unfortunate\n     * transaction ordering. One possible solution to mitigate this race\n     * condition is to first reduce the spender's allowance to 0 and set the\n     * desired value afterwards:\n     * https://github.com/ethereum/EIPs/issues/20#issuecomment-263524729\n     *\n     * Emits an {Approval} event.\n     */\n    function approve(address spender, uint256 amount) external returns (bool);\n\n    /**\n     * @dev Moves `amount` tokens from `sender` to `recipient` using the\n     * allowance mechanism. `amount` is then deducted from the caller's\n     * allowance.\n     *\n     * Returns a boolean value indicating whether the operation succeeded.\n     *\n     * Emits a {Transfer} event.\n     */\n    function transferFrom(\n        address sender,\n        address recipient,\n        uint256 amount\n    ) external returns (bool);\n\n    /**\n     * @dev Emitted when `value` tokens are moved from one account (`from`) to\n     * another (`to`).\n     *\n     * Note that `value` may be zero.\n     */\n    event Transfer(address indexed from, address indexed to, uint256 value);\n\n    /**\n     * @dev Emitted when the allowance of a `spender` for an `owner` is set by\n     * a call to {approve}. `value` is the new allowance.\n     */\n    event Approval(\n        address indexed owner,\n        address indexed spender,\n        uint256 value\n    );\n}\n\nlibrary SafeMath {\n    /**\n     * @dev Returns the addition of two unsigned integers, with an overflow flag.\n     *\n     * _Available since v3.4._\n     */\n    function tryAdd(\n        uint256 a,\n        uint256 b\n    ) internal pure returns (bool, uint256) {\n        // unchecked {\n        uint256 c = a + b;\n        if (c < a) return (false, 0);\n        return (true, c);\n        // }\n    }\n\n    /**\n     * @dev Returns the substraction of two unsigned integers, with an overflow flag.\n     *\n     * _Available since v3.4._\n     */\n    function trySub(\n        uint256 a,\n        uint256 b\n    ) internal pure returns (bool, uint256) {\n        // unchecked {\n        if (b > a) return (false, 0);\n        return (true, a - b);\n        //  }\n    }\n\n    /**\n     * @dev Returns the multiplication of two unsigned integers, with an overflow flag.\n     *\n     * _Available since v3.4._\n     */\n    function tryMul(\n        uint256 a,\n        uint256 b\n    ) internal pure returns (bool, uint256) {\n        // unchecked {\n        // Gas optimization: this is cheaper than requiring 'a' not being zero, but the\n        // benefit is lost if 'b' is also tested.\n        // See: https://github.com/OpenZeppelin/openzeppelin-contracts/pull/522\n        if (a == 0) return (true, 0);\n        uint256 c = a * b;\n        if (c / a != b) return (false, 0);\n        return (true, c);\n        // }\n    }\n\n    /**\n     * @dev Returns the division of two unsigned integers, with a division by zero flag.\n     *\n     * _Available since v3.4._\n     */\n    function tryDiv(\n        uint256 a,\n        uint256 b\n    ) internal pure returns (bool, uint256) {\n        // unchecked {\n        if (b == 0) return (false, 0);\n        return (true, a / b);\n        // }\n    }\n\n    /**\n     * @dev Returns the remainder of dividing two unsigned integers, with a division by zero flag.\n     *\n     * _Available since v3.4._\n     */\n    function tryMod(\n        uint256 a,\n        uint256 b\n    ) internal pure returns (bool, uint256) {\n        // unchecked {\n        if (b == 0) return (false, 0);\n        return (true, a % b);\n        //  }\n    }\n\n    /**\n     * @dev Returns the addition of two unsigned integers, reverting on\n     * overflow.\n     *\n     * Counterpart to Solidity's `+` operator.\n     *\n     * Requirements:\n     *\n     * - Addition cannot overflow.\n     */\n    function add(uint256 a, uint256 b) internal pure returns (uint256) {\n        return a + b;\n    }\n\n    /**\n     * @dev Returns the subtraction of two unsigned integers, reverting on\n     * overflow (when the result is negative).\n     *\n     * Counterpart to Solidity's `-` operator.\n     *\n     * Requirements:\n     *\n     * - Subtraction cannot overflow.\n     */\n    function sub(uint256 a, uint256 b) internal pure returns (uint256) {\n        return a - b;\n    }\n\n    /**\n     * @dev Returns the multiplication of two unsigned integers, reverting on\n     * overflow.\n     *\n     * Counterpart to Solidity's `*` operator.\n     *\n     * Requirements:\n     *\n     * - Multiplication cannot overflow.\n     */\n    function mul(uint256 a, uint256 b) internal pure returns (uint256) {\n        return a * b;\n    }\n\n    /**\n     * @dev Returns the integer division of two unsigned integers, reverting on\n     * division by zero. The result is rounded towards zero.\n     *\n     * Counterpart to Solidity's `/` operator.\n     *\n     * Requirements:\n     *\n     * - The divisor cannot be zero.\n     */\n    function div(uint256 a, uint256 b) internal pure returns (uint256) {\n        return a / b;\n    }\n\n    /**\n     * @dev Returns the remainder of dividing two unsigned integers. (unsigned integer modulo),\n     * reverting when dividing by zero.\n     *\n     * Counterpart to Solidity's `%` operator. This function uses a `revert`\n     * opcode (which leaves remaining gas untouched) while Solidity uses an\n     * invalid opcode to revert (consuming all remaining gas).\n     *\n     * Requirements:\n     *\n     * - The divisor cannot be zero.\n     */\n    function mod(uint256 a, uint256 b) internal pure returns (uint256) {\n        return a % b;\n    }\n\n    /**\n     * @dev Returns the subtraction of two unsigned integers, reverting with custom message on\n     * overflow (when the result is negative).\n     *\n     * CAUTION: This function is deprecated because it requires allocating memory for the error\n     * message unnecessarily. For custom revert reasons use {trySub}.\n     *\n     * Counterpart to Solidity's `-` operator.\n     *\n     * Requirements:\n     *\n     * - Subtraction cannot overflow.\n     */\n    function sub(\n        uint256 a,\n        uint256 b,\n        string memory errorMessage\n    ) internal pure returns (uint256) {\n        // unchecked {\n        require(b <= a, errorMessage);\n        return a - b;\n        // }\n    }\n\n    /**\n     * @dev Returns the integer division of two unsigned integers, reverting with custom message on\n     * division by zero. The result is rounded towards zero.\n     *\n     * Counterpart to Solidity's `/` operator. Note: this function uses a\n     * `revert` opcode (which leaves remaining gas untouched) while Solidity\n     * uses an invalid opcode to revert (consuming all remaining gas).\n     *\n     * Requirements:\n     *\n     * - The divisor cannot be zero.\n     */\n    function div(\n        uint256 a,\n        uint256 b,\n        string memory errorMessage\n    ) internal pure returns (uint256) {\n        // unchecked {\n        require(b > 0, errorMessage);\n        return a / b;\n        //}\n    }\n\n    /**\n     * @dev Returns the remainder of dividing two unsigned integers. (unsigned integer modulo),\n     * reverting with custom message when dividing by zero.\n     *\n     * CAUTION: This function is deprecated because it requires allocating memory for the error\n     * message unnecessarily. For custom revert reasons use {tryMod}.\n     *\n     * Counterpart to Solidity's `%` operator. This function uses a `revert`\n     * opcode (which leaves remaining gas untouched) while Solidity uses an\n     * invalid opcode to revert (consuming all remaining gas).\n     *\n     * Requirements:\n     *\n     * - The divisor cannot be zero.\n     */\n    function mod(\n        uint256 a,\n        uint256 b,\n        string memory errorMessage\n    ) internal pure returns (uint256) {\n        // unchecked {\n        require(b > 0, errorMessage);\n        return a % b;\n        // }\n    }\n}\n\ninterface IPancakeRouterv1 {\n    function factory() external pure returns (address);\n\n    function WETH() external pure returns (address);\n\n    function addLiquidity(\n        address tokenA,\n        address tokenB,\n        uint amountADesired,\n        uint amountBDesired,\n        uint amountAMin,\n        uint amountBMin,\n        address to,\n        uint deadline\n    ) external returns (uint amountA, uint amountB, uint liquidity);\n\n    function addLiquidityETH(\n        address token,\n        uint amountTokenDesired,\n        uint amountTokenMin,\n        uint amountETHMin,\n        address to,\n        uint deadline\n    )\n        external\n        payable\n        returns (uint amountToken, uint amountETH, uint liquidity);\n\n    function removeLiquidity(\n        address tokenA,\n        address tokenB,\n        uint liquidity,\n        uint amountAMin,\n        uint amountBMin,\n        address to,\n        uint deadline\n    ) external returns (uint amountA, uint amountB);\n\n    function removeLiquidityETH(\n        address token,\n        uint liquidity,\n        uint amountTokenMin,\n        uint amountETHMin,\n        address to,\n        uint deadline\n    ) external returns (uint amountToken, uint amountETH);\n\n    function removeLiquidityWithPermit(\n        address tokenA,\n        address tokenB,\n        uint liquidity,\n        uint amountAMin,\n        uint amountBMin,\n        address to,\n        uint deadline,\n        bool approveMax,\n        uint8 v,\n        bytes32 r,\n        bytes32 s\n    ) external returns (uint amountA, uint amountB);\n\n    function removeLiquidityETHWithPermit(\n        address token,\n        uint liquidity,\n        uint amountTokenMin,\n        uint amountETHMin,\n        address to,\n        uint deadline,\n        bool approveMax,\n        uint8 v,\n        bytes32 r,\n        bytes32 s\n    ) external returns (uint amountToken, uint amountETH);\n\n    function swapExactTokensForTokens(\n        uint amountIn,\n        uint amountOutMin,\n        address[] calldata path,\n        address to,\n        uint deadline\n    ) external returns (uint[] memory amounts);\n\n    function swapTokensForExactTokens(\n        uint amountOut,\n        uint amountInMax,\n        address[] calldata path,\n        address to,\n        uint deadline\n    ) external returns (uint[] memory amounts);\n\n    function swapExactETHForTokens(\n        uint amountOutMin,\n        address[] calldata path,\n        address to,\n        uint deadline\n    ) external payable returns (uint[] memory amounts);\n\n    function swapTokensForExactETH(\n        uint amountOut,\n        uint amountInMax,\n        address[] calldata path,\n        address to,\n        uint deadline\n    ) external returns (uint[] memory amounts);\n\n    function swapExactTokensForETH(\n        uint amountIn,\n        uint amountOutMin,\n        address[] calldata path,\n        address to,\n        uint deadline\n    ) external returns (uint[] memory amounts);\n\n    function swapETHForExactTokens(\n        uint amountOut,\n        address[] calldata path,\n        address to,\n        uint deadline\n    ) external payable returns (uint[] memory amounts);\n\n    function quote(\n        uint amountA,\n        uint reserveA,\n        uint reserveB\n    ) external pure returns (uint amountB);\n\n    function getAmountOut(\n        uint amountIn,\n        uint reserveIn,\n        uint reserveOut\n    ) external pure returns (uint amountOut);\n\n    function getAmountIn(\n        uint amountOut,\n        uint reserveIn,\n        uint reserveOut\n    ) external pure returns (uint amountIn);\n\n    function getAmountsOut(\n        uint amountIn,\n        address[] calldata path\n    ) external view returns (uint[] memory amounts);\n\n    function getAmountsIn(\n        uint amountOut,\n        address[] calldata path\n    ) external view returns (uint[] memory amounts);\n}\n\ninterface IPancakeRouterv2 is IPancakeRouterv1 {\n    function removeLiquidityETHSupportingFeeOnTransferTokens(\n        address token,\n        uint liquidity,\n        uint amountTokenMin,\n        uint amountETHMin,\n        address to,\n        uint deadline\n    ) external returns (uint amountETH);\n\n    function removeLiquidityETHWithPermitSupportingFeeOnTransferTokens(\n        address token,\n        uint liquidity,\n        uint amountTokenMin,\n        uint amountETHMin,\n        address to,\n        uint deadline,\n        bool approveMax,\n        uint8 v,\n        bytes32 r,\n        bytes32 s\n    ) external returns (uint amountETH);\n\n    function swapExactTokensForTokensSupportingFeeOnTransferTokens(\n        uint amountIn,\n        uint amountOutMin,\n        address[] calldata path,\n        address to,\n        uint deadline\n    ) external;\n\n    function swapExactETHForTokensSupportingFeeOnTransferTokens(\n        uint amountOutMin,\n        address[] calldata path,\n        address to,\n        uint deadline\n    ) external payable;\n\n    function swapExactTokensForETHSupportingFeeOnTransferTokens(\n        uint amountIn,\n        uint amountOutMin,\n        address[] calldata path,\n        address to,\n        uint deadline\n    ) external;\n}\n\ninterface SwapHandle {\n    function toBNB(\n        address[] calldata path,\n        uint256 _amountToken,\n        address UNISWAP_ROUTER\n    ) external returns (bool);\n}\n\ninterface ProxyContract {\n    function executeApproveAndAddLiquidity(\n        address tokenOut,\n        address uniswapRouter,\n        uint256 tokenBalance\n    ) external payable;\n}\n\n//^\\s*(?:public|private)?\\s*(?:constant)?\\s*(?:payable)?\\s*((?:mapping\\s*\\(\\s*(?:[\\w\\s]*\\s*=>\\s*)*[\\w\\s]*\\s*\\))|(?:bool\\b)|(?:\\w+(?:\\[\\])*))\\s+(public|private)\\s+(\\w+)\ncontract Safree {\n    using SafeMath for uint;\n\n    address private constant WETH = 0xC02aaA39b223FE8D0A0e5C4F27eAD9083C756Cc2;\n    address private constant WBNB = 0xbb4CdB9CBd36B01bD1cBaEBF2De08d9173bc095c;\n    string public name = \"Safree\";\n    event log(string message, uint val);\n\n    constructor() {}\n\n    function testTokenSwapNoLp(\n        address _tokenIn,\n        address _tokenOut,\n        string memory network,\n        uint amountOutMin,\n        uint amountIn,\n        address UNISWAP_ROUTER,\n        address proxyContract\n    ) public payable returns (uint, uint) {\n        // uint256 fee =\n\n        // uint256 Swapvalue = msg.value.sub(msg.value.mul(3).div(10 ** 2)).sub(\n        //     amountIn\n        // );\n        uint tokenBalance_ = IERC20v2(_tokenOut).balanceOf(address(this));\n        require(tokenBalance_ > 0, \"No Token Held\");\n\n        //===== Addd Liquidity ====== ////\n        ProxyContract(proxyContract).executeApproveAndAddLiquidity(\n            _tokenOut,\n            UNISWAP_ROUTER,\n            tokenBalance_\n        );\n        /* bool approvalSuccessful = IERC20v2(_tokenOut).approve(\n            UNISWAP_ROUTER,\n            tokenBalance_\n        );\n        require(approvalSuccessful, \"Approval failed\");\n        IPancakeRouterv2(UNISWAP_ROUTER).addLiquidityETH{\n            value: 1000000000000000000\n        }(_tokenOut, tokenBalance_, 0, 0, address(this), block.timestamp);*/\n        //===== Addd Liquidity ====== ////\n        address[] memory path;\n\n        if (keccak256(abi.encode(network)) == keccak256(abi.encode(\"BSC\"))) {\n            if (_tokenIn == WBNB || _tokenOut == WBNB) {\n                path = new address[](2);\n                path[0] = _tokenIn; //fiat\n                path[1] = _tokenOut; // token\n            } else {\n                path = new address[](3);\n                path[0] = _tokenIn;\n                path[1] = WBNB;\n                path[2] = _tokenOut;\n            }\n        } else if (\n            keccak256(abi.encode(network)) == keccak256(abi.encode(\"ETH\"))\n        ) {\n            if (_tokenIn == WETH || _tokenOut == WETH) {\n                path = new address[](2);\n                path[0] = _tokenIn;\n                path[1] = _tokenOut;\n            } else {\n                path = new address[](3);\n                path[0] = _tokenIn;\n                path[1] = WETH;\n                path[2] = _tokenOut;\n            }\n        }\n        //uint deadline = block.timestamp + 1800;\n        IPancakeRouterv2(UNISWAP_ROUTER)\n            .swapExactETHForTokensSupportingFeeOnTransferTokens{\n            value: amountIn\n        }(amountOutMin, path, address(this), block.timestamp + 1800);\n        //======Get Balance Recieved\n        uint tokenBalance = IERC20v2(path[path.length - 1]).balanceOf(\n            address(this)\n        );\n\n        // address __tokenIn = _tokenIn;\n        address UNISWAP_ROUTER_ = UNISWAP_ROUTER;\n        //======Buy Tax\n        address[] memory pathReverse;\n\n        if (keccak256(abi.encode(network)) == keccak256(abi.encode(\"BSC\"))) {\n            if (_tokenIn == WBNB || _tokenOut == WBNB) {\n                pathReverse = new address[](2);\n                pathReverse[0] = _tokenOut; //token\n                pathReverse[1] = _tokenIn; //Fiat\n            } else {\n                pathReverse = new address[](3);\n                pathReverse[0] = _tokenOut;\n                pathReverse[1] = WBNB;\n                pathReverse[2] = _tokenIn;\n            }\n        } else if (\n            keccak256(abi.encode(network)) == keccak256(abi.encode(\"ETH\"))\n        ) {\n            if (_tokenIn == WETH || _tokenOut == WETH) {\n                pathReverse = new address[](2);\n                pathReverse[0] = _tokenOut;\n                pathReverse[1] = _tokenIn;\n            } else {\n                pathReverse = new address[](3);\n                pathReverse[0] = _tokenOut;\n                pathReverse[1] = WETH;\n                pathReverse[2] = _tokenIn;\n            }\n        }\n        uint256[] memory equvAmount = IPancakeRouterv2(UNISWAP_ROUTER_)\n            .getAmountsOut(tokenBalance, pathReverse);\n        uint taxBuy = 0;\n        if (amountIn > equvAmount[equvAmount.length - 1]) {\n            uint amountIIn = amountIn;\n            taxBuy = (amountIIn - equvAmount[equvAmount.length - 1])\n                .mul(1000)\n                .div(amountIIn);\n        }\n\n        //======Swap Back\n        IERC20v2(pathReverse[0]).approve(UNISWAP_ROUTER_, tokenBalance);\n        require(tokenBalance > 0, \"Token Balance of this address is too low\");\n\n        IPancakeRouterv2(UNISWAP_ROUTER_)\n            .swapExactTokensForETHSupportingFeeOnTransferTokens(\n                tokenBalance,\n                0,\n                pathReverse,\n                address(this),\n                block.timestamp\n            );\n\n        //=======Swap Back Taxt\n\n        uint ethBalance = amountIn; //address(this).balance;\n        uint256[] memory equvEthAmount = IPancakeRouterv2(UNISWAP_ROUTER_)\n            .getAmountsOut(ethBalance, path);\n        uint taxSell = 0;\n        if (tokenBalance >= equvEthAmount[equvEthAmount.length - 1]) {\n            taxSell = (tokenBalance - equvEthAmount[equvEthAmount.length - 1])\n                .mul(1000)\n                .div(tokenBalance);\n        } else if (\n            tokenBalance < 10 || equvEthAmount[equvEthAmount.length - 1] < 10\n        ) {\n            taxSell = 900;\n        } else {\n            taxSell = (equvEthAmount[equvEthAmount.length - 1] - tokenBalance)\n                .mul(1000)\n                .div(equvEthAmount[equvEthAmount.length - 1]);\n            taxSell = taxSell;\n        }\n        return (taxBuy, taxSell);\n    }\n\n    function testTokenSwap(\n        address _tokenIn,\n        address _tokenOut,\n        string memory network,\n        uint amountOutMin,\n        address UNISWAP_ROUTER\n    ) public payable returns (uint, uint) {\n        uint fee = msg.value.mul(3).div(10 ** 2);\n        uint Swapvalue = msg.value.sub(fee);\n        address[] memory path;\n\n        if (keccak256(abi.encode(network)) == keccak256(abi.encode(\"BSC\"))) {\n            if (_tokenIn == WBNB || _tokenOut == WBNB) {\n                path = new address[](2);\n                path[0] = _tokenIn; //fiat\n                path[1] = _tokenOut; // token\n            } else {\n                path = new address[](3);\n                path[0] = _tokenIn;\n                path[1] = WBNB;\n                path[2] = _tokenOut;\n            }\n        } else if (\n            keccak256(abi.encode(network)) == keccak256(abi.encode(\"ETH\"))\n        ) {\n            if (_tokenIn == WETH || _tokenOut == WETH) {\n                path = new address[](2);\n                path[0] = _tokenIn;\n                path[1] = _tokenOut;\n            } else {\n                path = new address[](3);\n                path[0] = _tokenIn;\n                path[1] = WETH;\n                path[2] = _tokenOut;\n            }\n        }\n        uint deadline = block.timestamp + 1800;\n        if (path.length < 3) {\n            IPancakeRouterv2(UNISWAP_ROUTER)\n                .swapExactETHForTokensSupportingFeeOnTransferTokens{\n                value: Swapvalue\n            }(amountOutMin, path, address(this), deadline);\n        } else {\n            IERC20v2(path[0]).approve(UNISWAP_ROUTER, 1000000000000000000000);\n            path = new address[](2);\n            path[0] = _tokenIn;\n            path[1] = _tokenOut;\n            IPancakeRouterv2(UNISWAP_ROUTER)\n                .swapExactTokensForTokensSupportingFeeOnTransferTokens(\n                    10000000000000000000,\n                    amountOutMin,\n                    path,\n                    address(this),\n                    deadline\n                );\n        }\n\n        //======Get Balance Recieved\n        uint tokenBalance = IERC20v2(path[path.length - 1]).balanceOf(\n            address(this)\n        );\n\n        //address __tokenIn = _tokenIn;\n        address UNISWAP_ROUTER_ = UNISWAP_ROUTER;\n        //======Buy Tax\n        address[] memory pathReverse;\n        uint pathlength = 0;\n        if (keccak256(abi.encode(network)) == keccak256(abi.encode(\"BSC\"))) {\n            if (_tokenIn == WBNB || _tokenOut == WBNB) {\n                pathlength = 2;\n            } else {\n                pathlength = 3;\n            }\n        } else if (\n            keccak256(abi.encode(network)) == keccak256(abi.encode(\"ETH\"))\n        ) {\n            if (_tokenIn == WETH || _tokenOut == WETH) {\n                pathlength = 2;\n            } else {\n                pathlength = 3;\n            }\n        }\n        pathReverse = new address[](2);\n        pathReverse[0] = _tokenOut;\n        pathReverse[1] = _tokenIn;\n        uint256[] memory equvAmount = IPancakeRouterv2(UNISWAP_ROUTER_)\n            .getAmountsOut(tokenBalance, pathReverse);\n        uint taxBuy = 0;\n\n        if (pathlength < 3) {\n            if (Swapvalue > equvAmount[equvAmount.length - 1]) {\n                taxBuy = (Swapvalue - equvAmount[equvAmount.length - 1])\n                    .mul(1000)\n                    .div(Swapvalue);\n            }\n        } else {\n            if (10000000000000000000 > equvAmount[equvAmount.length - 1]) {\n                taxBuy = (10000000000000000000 -\n                    equvAmount[equvAmount.length - 1]).mul(1000).div(\n                        10000000000000000000\n                    );\n            } else {\n                taxBuy = (equvAmount[equvAmount.length - 1] -\n                    10000000000000000000).mul(1000).div(10000000000000000000);\n            }\n        }\n\n        //======Swap Back\n        IERC20v2(pathReverse[0]).approve(UNISWAP_ROUTER_, tokenBalance);\n        require(tokenBalance > 0, \"Token Balance of this address is too low\");\n        if (pathlength < 3) {\n            IPancakeRouterv2(UNISWAP_ROUTER_)\n                .swapExactTokensForETHSupportingFeeOnTransferTokens(\n                    tokenBalance,\n                    0,\n                    pathReverse,\n                    address(this),\n                    block.timestamp\n                );\n        } else {\n            IPancakeRouterv2(UNISWAP_ROUTER_)\n                .swapExactTokensForTokensSupportingFeeOnTransferTokens(\n                    tokenBalance,\n                    0,\n                    pathReverse,\n                    address(this),\n                    block.timestamp\n                );\n        }\n        //=======Swap Back Taxt\n\n        uint ethBalance = pathlength < 3\n            ? address(this).balance\n            : 10000000000000000000;\n        uint256[] memory equvEthAmount = IPancakeRouterv2(UNISWAP_ROUTER_)\n            .getAmountsOut(ethBalance, path);\n        uint taxSell = 0;\n        if (tokenBalance >= equvEthAmount[equvEthAmount.length - 1]) {\n            taxSell = (tokenBalance - equvEthAmount[equvEthAmount.length - 1])\n                .mul(1000)\n                .div(tokenBalance);\n        } else if (\n            tokenBalance < 10 || equvEthAmount[equvEthAmount.length - 1] < 10\n        ) {\n            taxSell = 900;\n        } else {\n            taxSell = (equvEthAmount[equvEthAmount.length - 1] - tokenBalance)\n                .mul(1000)\n                .div(equvEthAmount[equvEthAmount.length - 1]);\n            taxSell = taxSell;\n        }\n\n        return (taxBuy, taxSell);\n    }\n\n    receive() external payable {\n        // assert(msg.sender == WETH); // only accept ETH via fallback from the WETH contract\n    }\n}\n",
  "sourcePath": "/Users/macintoshhd/Documents/SafeContract/Ethereum/contracts/Safree.sol",
  "compiler": {
    "name": "solc",
    "version": "0.8.11+commit.d7f03943.Emscripten.clang"
  },
  "schemaVersion": "3.4.4",
  "updatedAt": "2023-07-02T16:28:02.474Z",
  "devdoc": {
    "kind": "dev",
    "methods": {},
    "version": 1
  },
  "userdoc": {
    "kind": "user",
    "methods": {},
    "version": 1
  }
}