{
  "contractName": "BakeryFlashswap",
  "abi": [
    {
      "inputs": [
        {
          "internalType": "address",
          "name": "WETH_",
          "type": "address"
        },
        {
          "internalType": "address",
          "name": "UNISWAP_FACTORY_",
          "type": "address"
        }
      ],
      "stateMutability": "nonpayable",
      "type": "constructor"
    },
    {
      "anonymous": false,
      "inputs": [
        {
          "indexed": false,
          "internalType": "string",
          "name": "message",
          "type": "string"
        },
        {
          "indexed": false,
          "internalType": "uint256",
          "name": "val",
          "type": "uint256"
        }
      ],
      "name": "log",
      "type": "event"
    },
    {
      "inputs": [
        {
          "internalType": "address",
          "name": "_tokenBorrow",
          "type": "address"
        }
      ],
      "name": "getTokenPair",
      "outputs": [
        {
          "internalType": "address",
          "name": "",
          "type": "address"
        }
      ],
      "stateMutability": "view",
      "type": "function"
    },
    {
      "inputs": [
        {
          "internalType": "address",
          "name": "_tokenBorrow",
          "type": "address"
        }
      ],
      "name": "setTokenBorrow",
      "outputs": [
        {
          "internalType": "address",
          "name": "",
          "type": "address"
        }
      ],
      "stateMutability": "nonpayable",
      "type": "function"
    },
    {
      "inputs": [
        {
          "internalType": "address",
          "name": "_tokenBorrow",
          "type": "address"
        },
        {
          "internalType": "address",
          "name": "to",
          "type": "address"
        },
        {
          "internalType": "uint256",
          "name": "amount",
          "type": "uint256"
        }
      ],
      "name": "initFlashloan",
      "outputs": [],
      "stateMutability": "nonpayable",
      "type": "function"
    },
    {
      "inputs": [
        {
          "internalType": "address",
          "name": "_sender",
          "type": "address"
        },
        {
          "internalType": "uint256",
          "name": "_amount0",
          "type": "uint256"
        },
        {
          "internalType": "uint256",
          "name": "_amount1",
          "type": "uint256"
        },
        {
          "internalType": "bytes",
          "name": "_data",
          "type": "bytes"
        }
      ],
      "name": "uniswapV2Call",
      "outputs": [],
      "stateMutability": "nonpayable",
      "type": "function"
    },
    {
      "inputs": [],
      "name": "withdrawals",
      "outputs": [
        {
          "internalType": "bool",
          "name": "",
          "type": "bool"
        }
      ],
      "stateMutability": "nonpayable",
      "type": "function"
    }
  ],
  "bytecode": "0x60e06040527310ed43c718714eb63d5aa57b78b54704e256024e6000806101000a81548173ffffffffffffffffffffffffffffffffffffffff021916908373ffffffffffffffffffffffffffffffffffffffff1602179055503480156200006557600080fd5b50604051620029793803806200297983398181016040528101906200008b91906200014f565b8173ffffffffffffffffffffffffffffffffffffffff1660808173ffffffffffffffffffffffffffffffffffffffff1660601b815250508073ffffffffffffffffffffffffffffffffffffffff1660a08173ffffffffffffffffffffffffffffffffffffffff1660601b815250503373ffffffffffffffffffffffffffffffffffffffff1660c08173ffffffffffffffffffffffffffffffffffffffff1660601b815250505050620001e9565b6000815190506200014981620001cf565b92915050565b60008060408385031215620001695762000168620001ca565b5b6000620001798582860162000138565b92505060206200018c8582860162000138565b9150509250929050565b6000620001a382620001aa565b9050919050565b600073ffffffffffffffffffffffffffffffffffffffff82169050919050565b600080fd5b620001da8162000196565b8114620001e657600080fd5b50565b60805160601c60a05160601c60c05160601c6126f56200028460003960008181611632015261175c01526000818161027a0152818161116401526117f401526000818161041d015281816105bb015281816106aa0152818161081e01528181610a6401528181610e52015281816110a2015281816111a1015281816114270152818161167501528181611720015261183101526126f56000f3fe608060405234801561001057600080fd5b50600436106100575760003560e01c806310d1e85c1461005c57806326f39d2f146100785780637b58e4cf14610094578063ade0e93e146100c4578063b1aecc8e146100e2575b600080fd5b61007660048036038101906100719190611a85565b610112565b005b610092600480360381019061008d9190611a32565b611160565b005b6100ae60048036038101906100a99190611998565b6115aa565b6040516100bb9190611e28565b60405180910390f35b6100cc611617565b6040516100d99190611e95565b60405180910390f35b6100fc60048036038101906100f79190611998565b6117f0565b6040516101099190611e28565b60405180910390f35b6000600267ffffffffffffffff81111561012f5761012e6123f5565b5b60405190808252806020026020018201604052801561015d5781602001602082028036833780820191505090505b50905060006107084261017091906121e8565b905060003373ffffffffffffffffffffffffffffffffffffffff16630dfe16816040518163ffffffff1660e01b815260040160206040518083038186803b1580156101ba57600080fd5b505afa1580156101ce573d6000803e3d6000fd5b505050506040513d601f19601f820116820180604052508101906101f291906119c5565b905060003373ffffffffffffffffffffffffffffffffffffffff1663d21220a76040518163ffffffff1660e01b815260040160206040518083038186803b15801561023c57600080fd5b505afa158015610250573d6000803e3d6000fd5b505050506040513d601f19601f8201168201806040525081019061027491906119c5565b905060007f000000000000000000000000000000000000000000000000000000000000000073ffffffffffffffffffffffffffffffffffffffff1663e6a4390584846040518363ffffffff1660e01b81526004016102d3929190611e43565b60206040518083038186803b1580156102eb57600080fd5b505afa1580156102ff573d6000803e3d6000fd5b505050506040513d601f19601f8201168201806040525081019061032391906119c5565b905060008173ffffffffffffffffffffffffffffffffffffffff163373ffffffffffffffffffffffffffffffffffffffff1614610395576040517f08c379a000000000000000000000000000000000000000000000000000000000815260040161038c90611ed0565b60405180910390fd5b3073ffffffffffffffffffffffffffffffffffffffff168b73ffffffffffffffffffffffffffffffffffffffff1614610403576040517f08c379a00000000000000000000000000000000000000000000000000000000081526004016103fa90611eb0565b60405180910390fd5b600080898981019061041591906119f2565b9150915060007f000000000000000000000000000000000000000000000000000000000000000073ffffffffffffffffffffffffffffffffffffffff166370a08231306040518263ffffffff1660e01b81526004016104749190611e28565b60206040518083038186803b15801561048c57600080fd5b505afa1580156104a0573d6000803e3d6000fd5b505050506040513d601f19601f820116820180604052508101906104c49190611b3a565b90507fb60e72ccf6d57ab53eb84d7e94a9545806ed7f93c4d5673f11a64f03471e584e816040516104f59190611fd6565b60405180910390a160008d1461050b578661050d565b855b89600081518110610521576105206123c6565b5b602002602001019073ffffffffffffffffffffffffffffffffffffffff16908173ffffffffffffffffffffffffffffffffffffffff168152505060008d14610569578561056b565b865b8960018151811061057f5761057e6123c6565b5b602002602001019073ffffffffffffffffffffffffffffffffffffffff16908173ffffffffffffffffffffffffffffffffffffffff16815250507f000000000000000000000000000000000000000000000000000000000000000073ffffffffffffffffffffffffffffffffffffffff1663095ea7b360008054906101000a900473ffffffffffffffffffffffffffffffffffffffff168f6040518363ffffffff1660e01b8152600401610634929190611e6c565b602060405180830381600087803b15801561064e57600080fd5b505af1158015610662573d6000803e3d6000fd5b505050506040513d601f19601f820116820180604052508101906106869190611b0d565b507fb60e72ccf6d57ab53eb84d7e94a9545806ed7f93c4d5673f11a64f03471e584e7f000000000000000000000000000000000000000000000000000000000000000073ffffffffffffffffffffffffffffffffffffffff1663dd62ed3e3060008054906101000a900473ffffffffffffffffffffffffffffffffffffffff166040518363ffffffff1660e01b8152600401610723929190611e43565b60206040518083038186803b15801561073b57600080fd5b505afa15801561074f573d6000803e3d6000fd5b505050506040513d601f19601f820116820180604052508101906107739190611b3a565b6040516107809190612060565b60405180910390a160008054906101000a900473ffffffffffffffffffffffffffffffffffffffff1673ffffffffffffffffffffffffffffffffffffffff16635c11d7958e60008c308d6040518663ffffffff1660e01b81526004016107ea9594939291906120dc565b600060405180830381600087803b15801561080457600080fd5b505af1158015610818573d6000803e3d6000fd5b505050507f000000000000000000000000000000000000000000000000000000000000000073ffffffffffffffffffffffffffffffffffffffff1689600081518110610867576108666123c6565b5b602002602001015173ffffffffffffffffffffffffffffffffffffffff161415610a62578860018151811061089f5761089e6123c6565b5b6020026020010151600160006101000a81548173ffffffffffffffffffffffffffffffffffffffff021916908373ffffffffffffffffffffffffffffffffffffffff160217905550600160009054906101000a900473ffffffffffffffffffffffffffffffffffffffff1673ffffffffffffffffffffffffffffffffffffffff166370a08231306040518263ffffffff1660e01b81526004016109429190611e28565b60206040518083038186803b15801561095a57600080fd5b505afa15801561096e573d6000803e3d6000fd5b505050506040513d601f19601f820116820180604052508101906109929190611b3a565b9350886001815181106109a8576109a76123c6565b5b602002602001015173ffffffffffffffffffffffffffffffffffffffff1663095ea7b360008054906101000a900473ffffffffffffffffffffffffffffffffffffffff16866040518363ffffffff1660e01b8152600401610a0a929190611e6c565b602060405180830381600087803b158015610a2457600080fd5b505af1158015610a38573d6000803e3d6000fd5b505050506040513d601f19601f82011682018060405250810190610a5c9190611b0d565b50610ca5565b7f000000000000000000000000000000000000000000000000000000000000000073ffffffffffffffffffffffffffffffffffffffff1689600181518110610aad57610aac6123c6565b5b602002602001015173ffffffffffffffffffffffffffffffffffffffff161415610ca45788600081518110610ae557610ae46123c6565b5b6020026020010151600160006101000a81548173ffffffffffffffffffffffffffffffffffffffff021916908373ffffffffffffffffffffffffffffffffffffffff160217905550600160009054906101000a900473ffffffffffffffffffffffffffffffffffffffff1673ffffffffffffffffffffffffffffffffffffffff166370a08231306040518263ffffffff1660e01b8152600401610b889190611e28565b60206040518083038186803b158015610ba057600080fd5b505afa158015610bb4573d6000803e3d6000fd5b505050506040513d601f19601f82011682018060405250810190610bd89190611b3a565b935088600081518110610bee57610bed6123c6565b5b602002602001015173ffffffffffffffffffffffffffffffffffffffff1663095ea7b360008054906101000a900473ffffffffffffffffffffffffffffffffffffffff16866040518363ffffffff1660e01b8152600401610c50929190611e6c565b602060405180830381600087803b158015610c6a57600080fd5b505af1158015610c7e573d6000803e3d6000fd5b505050506040513d601f19601f82011682018060405250810190610ca29190611b0d565b505b5b7fb60e72ccf6d57ab53eb84d7e94a9545806ed7f93c4d5673f11a64f03471e584e84604051610cd49190611f4c565b60405180910390a17fb60e72ccf6d57ab53eb84d7e94a9545806ed7f93c4d5673f11a64f03471e584e600160009054906101000a900473ffffffffffffffffffffffffffffffffffffffff1673ffffffffffffffffffffffffffffffffffffffff1663dd62ed3e3060008054906101000a900473ffffffffffffffffffffffffffffffffffffffff166040518363ffffffff1660e01b8152600401610d7a929190611e43565b60206040518083038186803b158015610d9257600080fd5b505afa158015610da6573d6000803e3d6000fd5b505050506040513d601f19601f82011682018060405250810190610dca9190611b3a565b604051610dd79190611ef0565b60405180910390a1600160009054906101000a900473ffffffffffffffffffffffffffffffffffffffff1689600081518110610e1657610e156123c6565b5b602002602001019073ffffffffffffffffffffffffffffffffffffffff16908173ffffffffffffffffffffffffffffffffffffffff16815250507f000000000000000000000000000000000000000000000000000000000000000089600181518110610e8557610e846123c6565b5b602002602001019073ffffffffffffffffffffffffffffffffffffffff16908173ffffffffffffffffffffffffffffffffffffffff168152505060008054906101000a900473ffffffffffffffffffffffffffffffffffffffff1673ffffffffffffffffffffffffffffffffffffffff16635c11d7958560008c308d6040518663ffffffff1660e01b8152600401610f219594939291906120dc565b600060405180830381600087803b158015610f3b57600080fd5b505af1158015610f4f573d6000803e3d6000fd5b50505050600060016103e5600385610f67919061226f565b610f71919061223e565b610f7b91906121e8565b905060008184610f8b91906121e8565b90507fb60e72ccf6d57ab53eb84d7e94a9545806ed7f93c4d5673f11a64f03471e584e84604051610fbc9190611f7a565b60405180910390a17fb60e72ccf6d57ab53eb84d7e94a9545806ed7f93c4d5673f11a64f03471e584e8f604051610ff39190612032565b60405180910390a17fb60e72ccf6d57ab53eb84d7e94a9545806ed7f93c4d5673f11a64f03471e584e8e60405161102a9190612004565b60405180910390a17fb60e72ccf6d57ab53eb84d7e94a9545806ed7f93c4d5673f11a64f03471e584e826040516110619190611fa8565b60405180910390a17fb60e72ccf6d57ab53eb84d7e94a9545806ed7f93c4d5673f11a64f03471e584e816040516110989190611f1e565b60405180910390a17f000000000000000000000000000000000000000000000000000000000000000073ffffffffffffffffffffffffffffffffffffffff1663a9059cbb88836040518363ffffffff1660e01b81526004016110fb929190611e6c565b602060405180830381600087803b15801561111557600080fd5b505af1158015611129573d6000803e3d6000fd5b505050506040513d601f19601f8201168201806040525081019061114d9190611b0d565b5050505050505050505050505050505050565b60007f000000000000000000000000000000000000000000000000000000000000000073ffffffffffffffffffffffffffffffffffffffff1663e6a43905857f00000000000000000000000000000000000000000000000000000000000000006040518363ffffffff1660e01b81526004016111dd929190611e43565b60206040518083038186803b1580156111f557600080fd5b505afa158015611209573d6000803e3d6000fd5b505050506040513d601f19601f8201168201806040525081019061122d91906119c5565b9050600073ffffffffffffffffffffffffffffffffffffffff168173ffffffffffffffffffffffffffffffffffffffff16141561129f576040517f08c379a00000000000000000000000000000000000000000000000000000000081526004016112969061208e565b60405180910390fd5b60008173ffffffffffffffffffffffffffffffffffffffff16630dfe16816040518163ffffffff1660e01b815260040160206040518083038186803b1580156112e757600080fd5b505afa1580156112fb573d6000803e3d6000fd5b505050506040513d601f19601f8201168201806040525081019061131f91906119c5565b905060008273ffffffffffffffffffffffffffffffffffffffff1663d21220a76040518163ffffffff1660e01b815260040160206040518083038186803b15801561136957600080fd5b505afa15801561137d573d6000803e3d6000fd5b505050506040513d601f19601f820116820180604052508101906113a191906119c5565b905060008273ffffffffffffffffffffffffffffffffffffffff168773ffffffffffffffffffffffffffffffffffffffff16146113de57846113e1565b60005b905060008273ffffffffffffffffffffffffffffffffffffffff168873ffffffffffffffffffffffffffffffffffffffff161461141e5785611421565b60005b905060007f000000000000000000000000000000000000000000000000000000000000000073ffffffffffffffffffffffffffffffffffffffff166370a08231306040518263ffffffff1660e01b815260040161147e9190611e28565b60206040518083038186803b15801561149657600080fd5b505afa1580156114aa573d6000803e3d6000fd5b505050506040513d601f19601f820116820180604052508101906114ce9190611b3a565b90507fb60e72ccf6d57ab53eb84d7e94a9545806ed7f93c4d5673f11a64f03471e584e816040516114ff91906120ae565b60405180910390a16000898860405160200161151c929190611e6c565b60405160208183030381529060405290508673ffffffffffffffffffffffffffffffffffffffff1663022c0d9f85858c856040518563ffffffff1660e01b815260040161156c9493929190612136565b600060405180830381600087803b15801561158657600080fd5b505af115801561159a573d6000803e3d6000fd5b5050505050505050505050505050565b600081600160006101000a81548173ffffffffffffffffffffffffffffffffffffffff021916908373ffffffffffffffffffffffffffffffffffffffff160217905550600160009054906101000a900473ffffffffffffffffffffffffffffffffffffffff169050919050565b60003373ffffffffffffffffffffffffffffffffffffffff167f000000000000000000000000000000000000000000000000000000000000000073ffffffffffffffffffffffffffffffffffffffff161461167157600080fd5b60007f000000000000000000000000000000000000000000000000000000000000000073ffffffffffffffffffffffffffffffffffffffff166370a08231306040518263ffffffff1660e01b81526004016116cc9190611e28565b60206040518083038186803b1580156116e457600080fd5b505afa1580156116f8573d6000803e3d6000fd5b505050506040513d601f19601f8201168201806040525081019061171c9190611b3a565b90507f000000000000000000000000000000000000000000000000000000000000000073ffffffffffffffffffffffffffffffffffffffff1663a9059cbb7f0000000000000000000000000000000000000000000000000000000000000000836040518363ffffffff1660e01b8152600401611799929190611e6c565b602060405180830381600087803b1580156117b357600080fd5b505af11580156117c7573d6000803e3d6000fd5b505050506040513d601f19601f820116820180604052508101906117eb9190611b0d565b505090565b60007f000000000000000000000000000000000000000000000000000000000000000073ffffffffffffffffffffffffffffffffffffffff1663e6a43905837f00000000000000000000000000000000000000000000000000000000000000006040518363ffffffff1660e01b815260040161186d929190611e43565b60206040518083038186803b15801561188557600080fd5b505afa158015611899573d6000803e3d6000fd5b505050506040513d601f19601f820116820180604052508101906118bd91906119c5565b9050919050565b6000813590506118d381612663565b92915050565b6000815190506118e881612663565b92915050565b6000813590506118fd8161267a565b92915050565b60008151905061191281612691565b92915050565b60008083601f84011261192e5761192d612429565b5b8235905067ffffffffffffffff81111561194b5761194a612424565b5b6020830191508360018202830111156119675761196661242e565b5b9250929050565b60008135905061197d816126a8565b92915050565b600081519050611992816126a8565b92915050565b6000602082840312156119ae576119ad612438565b5b60006119bc848285016118c4565b91505092915050565b6000602082840312156119db576119da612438565b5b60006119e9848285016118d9565b91505092915050565b60008060408385031215611a0957611a08612438565b5b6000611a17858286016118ee565b9250506020611a288582860161196e565b9150509250929050565b600080600060608486031215611a4b57611a4a612438565b5b6000611a59868287016118c4565b9350506020611a6a868287016118c4565b9250506040611a7b8682870161196e565b9150509250925092565b600080600080600060808688031215611aa157611aa0612438565b5b6000611aaf888289016118c4565b9550506020611ac08882890161196e565b9450506040611ad18882890161196e565b935050606086013567ffffffffffffffff811115611af257611af1612433565b5b611afe88828901611918565b92509250509295509295909350565b600060208284031215611b2357611b22612438565b5b6000611b3184828501611903565b91505092915050565b600060208284031215611b5057611b4f612438565b5b6000611b5e84828501611983565b91505092915050565b6000611b738383611b7f565b60208301905092915050565b611b88816122c9565b82525050565b611b97816122c9565b82525050565b6000611ba882612192565b611bb281856121b5565b9350611bbd83612182565b8060005b83811015611bee578151611bd58882611b67565b9750611be0836121a8565b925050600181019050611bc1565b5085935050505092915050565b611c04816122ed565b82525050565b6000611c158261219d565b611c1f81856121c6565b9350611c2f818560208601612335565b611c388161243d565b840191505092915050565b611c4c81612323565b82525050565b6000611c5f600a836121d7565b9150611c6a8261244e565b602082019050919050565b6000611c826016836121d7565b9150611c8d82612477565b602082019050919050565b6000611ca5600f836121d7565b9150611cb0826124a0565b602082019050919050565b6000611cc8600c836121d7565b9150611cd3826124c9565b602082019050919050565b6000611ceb601d836121d7565b9150611cf6826124f2565b602082019050919050565b6000611d0e6006836121d7565b9150611d198261251b565b602082019050919050565b6000611d316003836121d7565b9150611d3c82612544565b602082019050919050565b6000611d546015836121d7565b9150611d5f8261256d565b602082019050919050565b6000611d776007836121d7565b9150611d8282612596565b602082019050919050565b6000611d9a6007836121d7565b9150611da5826125bf565b602082019050919050565b6000611dbd6013836121d7565b9150611dc8826125e8565b602082019050919050565b6000611de06010836121d7565b9150611deb82612611565b602082019050919050565b6000611e036014836121d7565b9150611e0e8261263a565b602082019050919050565b611e2281612319565b82525050565b6000602082019050611e3d6000830184611b8e565b92915050565b6000604082019050611e586000830185611b8e565b611e656020830184611b8e565b9392505050565b6000604082019050611e816000830185611b8e565b611e8e6020830184611e19565b9392505050565b6000602082019050611eaa6000830184611bfb565b92915050565b60006020820190508181036000830152611ec981611c52565b9050919050565b60006020820190508181036000830152611ee981611c75565b9050919050565b60006040820190508181036000830152611f0981611c98565b9050611f186020830184611e19565b92915050565b60006040820190508181036000830152611f3781611cbb565b9050611f466020830184611e19565b92915050565b60006040820190508181036000830152611f6581611cde565b9050611f746020830184611e19565b92915050565b60006040820190508181036000830152611f9381611d01565b9050611fa26020830184611e19565b92915050565b60006040820190508181036000830152611fc181611d24565b9050611fd06020830184611e19565b92915050565b60006040820190508181036000830152611fef81611d47565b9050611ffe6020830184611e19565b92915050565b6000604082019050818103600083015261201d81611d6a565b905061202c6020830184611e19565b92915050565b6000604082019050818103600083015261204b81611d8d565b905061205a6020830184611e19565b92915050565b6000604082019050818103600083015261207981611db0565b90506120886020830184611e19565b92915050565b600060208201905081810360008301526120a781611dd3565b9050919050565b600060408201905081810360008301526120c781611df6565b90506120d66020830184611e19565b92915050565b600060a0820190506120f16000830188611e19565b6120fe6020830187611c43565b81810360408301526121108186611b9d565b905061211f6060830185611b8e565b61212c6080830184611e19565b9695505050505050565b600060808201905061214b6000830187611e19565b6121586020830186611e19565b6121656040830185611b8e565b81810360608301526121778184611c0a565b905095945050505050565b6000819050602082019050919050565b600081519050919050565b600081519050919050565b6000602082019050919050565b600082825260208201905092915050565b600082825260208201905092915050565b600082825260208201905092915050565b60006121f382612319565b91506121fe83612319565b9250827fffffffffffffffffffffffffffffffffffffffffffffffffffffffffffffffff0382111561223357612232612368565b5b828201905092915050565b600061224982612319565b915061225483612319565b92508261226457612263612397565b5b828204905092915050565b600061227a82612319565b915061228583612319565b9250817fffffffffffffffffffffffffffffffffffffffffffffffffffffffffffffffff04831182151516156122be576122bd612368565b5b828202905092915050565b60006122d4826122f9565b9050919050565b60006122e6826122f9565b9050919050565b60008115159050919050565b600073ffffffffffffffffffffffffffffffffffffffff82169050919050565b6000819050919050565b600061232e82612319565b9050919050565b60005b83811015612353578082015181840152602081019050612338565b83811115612362576000848401525b50505050565b7f4e487b7100000000000000000000000000000000000000000000000000000000600052601160045260246000fd5b7f4e487b7100000000000000000000000000000000000000000000000000000000600052601260045260246000fd5b7f4e487b7100000000000000000000000000000000000000000000000000000000600052603260045260246000fd5b7f4e487b7100000000000000000000000000000000000000000000000000000000600052604160045260246000fd5b600080fd5b600080fd5b600080fd5b600080fd5b600080fd5b6000601f19601f8301169050919050565b7f4e6f742073656e64727400000000000000000000000000000000000000000000600082015250565b7f4d7367206e6f742073656e742066726f6d207061697200000000000000000000600082015250565b7f546f6b656e20416c6c6f77616e63650000000000000000000000000000000000600082015250565b7f526570617920416d6f756e740000000000000000000000000000000000000000600082015250565b7f546f6b656e2052656369657665642034726d5377617020416d6f756e74000000600082015250565b7f616d6f756e740000000000000000000000000000000000000000000000000000600082015250565b7f4665650000000000000000000000000000000000000000000000000000000000600082015250565b7f546f6b656e20426f72726f77656420416d6f756e740000000000000000000000600082015250565b7f616d6f756e743100000000000000000000000000000000000000000000000000600082015250565b7f616d6f756e743000000000000000000000000000000000000000000000000000600082015250565b7f546f6b656e2045544820416c6c6f77616e636500000000000000000000000000600082015250565b7f5061697220646f6e6f7420657869737400000000000000000000000000000000600082015250565b7f546f6b656e20696e697469616c20416d6f756e74000000000000000000000000600082015250565b61266c816122c9565b811461267757600080fd5b50565b612683816122db565b811461268e57600080fd5b50565b61269a816122ed565b81146126a557600080fd5b50565b6126b181612319565b81146126bc57600080fd5b5056fea26469706673582212201a3216370b3a1ff5236b88c313e567dd4cd2baadd1fe54b5e07138dcef376e2864736f6c63430008070033",
  "immutableReferences": {
    "784": [
      {
        "length": 32,
        "start": 1053
      },
      {
        "length": 32,
        "start": 1467
      },
      {
        "length": 32,
        "start": 1706
      },
      {
        "length": 32,
        "start": 2078
      },
      {
        "length": 32,
        "start": 2660
      },
      {
        "length": 32,
        "start": 3666
      },
      {
        "length": 32,
        "start": 4258
      },
      {
        "length": 32,
        "start": 4513
      },
      {
        "length": 32,
        "start": 5159
      },
      {
        "length": 32,
        "start": 5749
      },
      {
        "length": 32,
        "start": 5920
      },
      {
        "length": 32,
        "start": 6193
      }
    ],
    "786": [
      {
        "length": 32,
        "start": 634
      },
      {
        "length": 32,
        "start": 4452
      },
      {
        "length": 32,
        "start": 6132
      }
    ],
    "793": [
      {
        "length": 32,
        "start": 5682
      },
      {
        "length": 32,
        "start": 5980
      }
    ]
  },
  "source": "// SPDX-License-Identifier: MIT\n// OpenZeppelin Contracts v4.3.2 (token/ERC20/ERC20.sol)\npragma solidity  >=0.4.22 <0.9.0;\ninterface IERC20UNISWAP {\n    /**\n     * @dev Returns the amount of tokens in existence.\n     */\n    function totalSupply() external view returns (uint256);\n\n    /**\n     * @dev Returns the amount of tokens owned by `account`.\n     */\n    function balanceOf(address account) external view returns (uint256);\n\n    /**\n     * @dev Moves `amount` tokens from the caller's account to `recipient`.\n     *\n     * Returns a boolean value indicating whether the operation succeeded.\n     *\n     * Emits a {Transfer} event.\n     */\n    function transfer(address recipient, uint256 amount) external returns (bool);\n\n    /**\n     * @dev Returns the remaining number of tokens that `spender` will be\n     * allowed to spend on behalf of `owner` through {transferFrom}. This is\n     * zero by default.\n     *\n     * This value changes when {approve} or {transferFrom} are called.\n     */\n    function allowance(address owner, address spender) external view returns (uint256);\n\n    /**\n     * @dev Sets `amount` as the allowance of `spender` over the caller's tokens.\n     *\n     * Returns a boolean value indicating whether the operation succeeded.\n     *\n     * IMPORTANT: Beware that changing an allowance with this method brings the risk\n     * that someone may use both the old and the new allowance by unfortunate\n     * transaction ordering. One possible solution to mitigate this race\n     * condition is to first reduce the spender's allowance to 0 and set the\n     * desired value afterwards:\n     * https://github.com/ethereum/EIPs/issues/20#issuecomment-263524729\n     *\n     * Emits an {Approval} event.\n     */\n    function approve(address spender, uint256 amount) external returns (bool);\n\n    /**\n     * @dev Moves `amount` tokens from `sender` to `recipient` using the\n     * allowance mechanism. `amount` is then deducted from the caller's\n     * allowance.\n     *\n     * Returns a boolean value indicating whether the operation succeeded.\n     *\n     * Emits a {Transfer} event.\n     */\n    function transferFrom(\n        address sender,\n        address recipient,\n        uint256 amount\n    ) external returns (bool);\n\n    /**\n     * @dev Emitted when `value` tokens are moved from one account (`from`) to\n     * another (`to`).\n     *\n     * Note that `value` may be zero.\n     */\n    event Transfer(address indexed from, address indexed to, uint256 value);\n\n    /**\n     * @dev Emitted when the allowance of a `spender` for an `owner` is set by\n     * a call to {approve}. `value` is the new allowance.\n     */\n    event Approval(address indexed owner, address indexed spender, uint256 value);\n}\n\ninterface IUniswapV2Factory {\n    event PairCreated(address indexed token0, address indexed token1, address pair, uint);\n\n    function feeTo() external view returns (address);\n    function feeToSetter() external view returns (address);\n\n    function getPair(address tokenA, address tokenB) external view returns (address pair);\n    function allPairs(uint) external view returns (address pair);\n    function allPairsLength() external view returns (uint);\n\n    function createPair(address tokenA, address tokenB) external returns (address pair);\n\n    function setFeeTo(address) external;\n    function setFeeToSetter(address) external;\n}\ninterface IUniswapV2Callee {\n    function uniswapV2Call(\n        address sender,\n        uint amount0,\n        uint amount1,\n        bytes calldata data\n    ) external;\n}\ninterface IUniswapV2Pair {\n    event Approval(address indexed owner, address indexed spender, uint value);\n    event Transfer(address indexed from, address indexed to, uint value);\n\n    function name() external pure returns (string memory);\n    function symbol() external pure returns (string memory);\n    function decimals() external pure returns (uint8);\n    function totalSupply() external view returns (uint);\n    function balanceOf(address owner) external view returns (uint);\n    function allowance(address owner, address spender) external view returns (uint);\n\n    function approve(address spender, uint value) external returns (bool);\n    function transfer(address to, uint value) external returns (bool);\n    function transferFrom(address from, address to, uint value) external returns (bool);\n\n    function DOMAIN_SEPARATOR() external view returns (bytes32);\n    function PERMIT_TYPEHASH() external pure returns (bytes32);\n    function nonces(address owner) external view returns (uint);\n\n    function permit(address owner, address spender, uint value, uint deadline, uint8 v, bytes32 r, bytes32 s) external;\n\n    event Mint(address indexed sender, uint amount0, uint amount1);\n    event Burn(address indexed sender, uint amount0, uint amount1, address indexed to);\n    event Swap(\n        address indexed sender,\n        uint amount0In,\n        uint amount1In,\n        uint amount0Out,\n        uint amount1Out,\n        address indexed to\n    );\n    event Sync(uint112 reserve0, uint112 reserve1);\n\n    function MINIMUM_LIQUIDITY() external pure returns (uint);\n    function factory() external view returns (address);\n    function token0() external view returns (address);\n    function token1() external view returns (address);\n    function getReserves() external view returns (uint112 reserve0, uint112 reserve1, uint32 blockTimestampLast);\n    function price0CumulativeLast() external view returns (uint);\n    function price1CumulativeLast() external view returns (uint);\n    function kLast() external view returns (uint);\n\n    function mint(address to) external returns (uint liquidity);\n    function burn(address to) external returns (uint amount0, uint amount1);\n    function swap(uint amount0Out, uint amount1Out, address to, bytes calldata data) external;\n    function skim(address to) external;\n    function sync() external;\n\n    function initialize(address, address) external;\n}\ninterface IPancakeRouter01 {\n    function factory() external pure returns (address);\n    function WETH() external pure returns (address);\n\n    function addLiquidity(\n        address tokenA,\n        address tokenB,\n        uint amountADesired,\n        uint amountBDesired,\n        uint amountAMin,\n        uint amountBMin,\n        address to,\n        uint deadline\n    ) external returns (uint amountA, uint amountB, uint liquidity);\n    function addLiquidityETH(\n        address token,\n        uint amountTokenDesired,\n        uint amountTokenMin,\n        uint amountETHMin,\n        address to,\n        uint deadline\n    ) external payable returns (uint amountToken, uint amountETH, uint liquidity);\n    function removeLiquidity(\n        address tokenA,\n        address tokenB,\n        uint liquidity,\n        uint amountAMin,\n        uint amountBMin,\n        address to,\n        uint deadline\n    ) external returns (uint amountA, uint amountB);\n    function removeLiquidityETH(\n        address token,\n        uint liquidity,\n        uint amountTokenMin,\n        uint amountETHMin,\n        address to,\n        uint deadline\n    ) external returns (uint amountToken, uint amountETH);\n    function removeLiquidityWithPermit(\n        address tokenA,\n        address tokenB,\n        uint liquidity,\n        uint amountAMin,\n        uint amountBMin,\n        address to,\n        uint deadline,\n        bool approveMax, uint8 v, bytes32 r, bytes32 s\n    ) external returns (uint amountA, uint amountB);\n    function removeLiquidityETHWithPermit(\n        address token,\n        uint liquidity,\n        uint amountTokenMin,\n        uint amountETHMin,\n        address to,\n        uint deadline,\n        bool approveMax, uint8 v, bytes32 r, bytes32 s\n    ) external returns (uint amountToken, uint amountETH);\n    function swapExactTokensForTokens(\n        uint amountIn,\n        uint amountOutMin,\n        address[] calldata path,\n        address to,\n        uint deadline\n    ) external returns (uint[] memory amounts);\n    function swapTokensForExactTokens(\n        uint amountOut,\n        uint amountInMax,\n        address[] calldata path,\n        address to,\n        uint deadline\n    ) external returns (uint[] memory amounts);\n    function swapExactETHForTokens(uint amountOutMin, address[] calldata path, address to, uint deadline)\n        external\n        payable\n        returns (uint[] memory amounts);\n    function swapTokensForExactETH(uint amountOut, uint amountInMax, address[] calldata path, address to, uint deadline)\n        external\n        returns (uint[] memory amounts);\n    function swapExactTokensForETH(uint amountIn, uint amountOutMin, address[] calldata path, address to, uint deadline)\n        external\n        returns (uint[] memory amounts);\n    function swapETHForExactTokens(uint amountOut, address[] calldata path, address to, uint deadline)\n        external\n        payable\n        returns (uint[] memory amounts);\n\n    function quote(uint amountA, uint reserveA, uint reserveB) external pure returns (uint amountB);\n    function getAmountOut(uint amountIn, uint reserveIn, uint reserveOut) external pure returns (uint amountOut);\n    function getAmountIn(uint amountOut, uint reserveIn, uint reserveOut) external pure returns (uint amountIn);\n    function getAmountsOut(uint amountIn, address[] calldata path) external view returns (uint[] memory amounts);\n    function getAmountsIn(uint amountOut, address[] calldata path) external view returns (uint[] memory amounts);\n}\n\ninterface IPancakeRouter02 is IPancakeRouter01 {\n    function removeLiquidityETHSupportingFeeOnTransferTokens(\n        address token,\n        uint liquidity,\n        uint amountTokenMin,\n        uint amountETHMin,\n        address to,\n        uint deadline\n    ) external returns (uint amountETH);\n    function removeLiquidityETHWithPermitSupportingFeeOnTransferTokens(\n        address token,\n        uint liquidity,\n        uint amountTokenMin,\n        uint amountETHMin,\n        address to,\n        uint deadline,\n        bool approveMax, uint8 v, bytes32 r, bytes32 s\n    ) external returns (uint amountETH);\n\n    function swapExactTokensForTokensSupportingFeeOnTransferTokens(\n        uint amountIn,\n        uint amountOutMin,\n        address[] calldata path,\n        address to,\n        uint deadline\n    ) external;\n    function swapExactETHForTokensSupportingFeeOnTransferTokens(\n        uint amountOutMin,\n        address[] calldata path,\n        address to,\n        uint deadline\n    ) external payable;\n    function swapExactTokensForETHSupportingFeeOnTransferTokens(\n        uint amountIn,\n        uint amountOutMin,\n        address[] calldata path,\n        address to,\n        uint deadline\n    ) external;\n}\n\ncontract BakeryFlashswap is IUniswapV2Callee {\n    address private immutable  WETH;\n    address private immutable UNISWAP_FACTORY;\n    address private UNISWAP_ROUTER = 0x10ED43C718714eb63d5aA57B78B54704E256024E;\n    address private TokenBorrow;\n    address private immutable Cowner;\n\n\n    event log(string message,  uint val);\n\n    constructor (address WETH_,address UNISWAP_FACTORY_) {\n        WETH = WETH_;\n        UNISWAP_FACTORY = UNISWAP_FACTORY_;\n        Cowner = msg.sender;\n    }\n    function getTokenPair(address _tokenBorrow) external view returns(address) {\n        return IUniswapV2Factory(UNISWAP_FACTORY).getPair(_tokenBorrow,WETH);\n    }\n    function setTokenBorrow(address _tokenBorrow) external returns(address){\n        TokenBorrow = _tokenBorrow;\n        return TokenBorrow;\n    }\n    function initFlashloan(address _tokenBorrow,address to, uint amount) external{\n        address pair = IUniswapV2Factory(UNISWAP_FACTORY).getPair(_tokenBorrow,WETH);\n        require(pair!= address(0),'Pair donot exist');\n        address token0 = IUniswapV2Pair(pair).token0();\n        address token1 = IUniswapV2Pair(pair).token1();\n        uint amount0Out = _tokenBorrow == token0 ? 0:amount; //: 0;\n        uint amount1Out = _tokenBorrow == token1 ? 0:amount; //: 0;\n\n        uint tokenRecieved = IERC20UNISWAP(WETH).balanceOf(address(this));\n        emit log(\"Token initial Amount\",tokenRecieved);\n\n        bytes memory data = abi.encode(_tokenBorrow,amount);\n        \n        IUniswapV2Pair(pair).swap(amount0Out, amount1Out,to,data);\n    }\n\n    function uniswapV2Call(address _sender,uint _amount0,uint _amount1, bytes calldata _data) external override {\n        address[] memory path = new address[](2);\n        uint  deadline = block.timestamp + 1800;\n        address token0 = IUniswapV2Pair(msg.sender).token0();\n        address token1 = IUniswapV2Pair(msg.sender).token1();\n        address pair = IUniswapV2Factory(UNISWAP_FACTORY).getPair(token0,token1);\n        uint tokenRecieved;\n        require (msg.sender == pair,'Msg not sent from pair');\n        require(_sender == address(this),'Not sendrt');\n\n        //data sent through abi encode now decodes\n        (address _tokenBorrow, uint amount) = abi.decode(_data,(address, uint));\n\n        //Swap token\n        uint ethRecieved = IERC20UNISWAP(WETH).balanceOf(address(this));\n        emit log(\"Token Borrowed Amount\",ethRecieved);\n\n        path[0] = _amount0 == 0 ? token1 : token0;\n        path[1] = _amount0 == 0 ? token0 : token1;\n        IERC20UNISWAP(WETH).approve(UNISWAP_ROUTER, _amount0);\n        emit log(\"Token ETH Allowance\",IERC20UNISWAP(WETH).allowance(address(this),UNISWAP_ROUTER));\n        \n        IPancakeRouter02(UNISWAP_ROUTER).swapExactTokensForTokensSupportingFeeOnTransferTokens(_amount0,0,path,address(this),deadline);\n\n        //Swap to Eth\n        if (path[0] == WETH) {\n            TokenBorrow = path[1];\n            tokenRecieved = IERC20UNISWAP(TokenBorrow).balanceOf(address(this));\n            IERC20UNISWAP(path[1]).approve(UNISWAP_ROUTER, tokenRecieved);\n        }else if (path[1] == WETH) {\n            TokenBorrow = path[0];\n            tokenRecieved = IERC20UNISWAP(TokenBorrow).balanceOf(address(this));\n            IERC20UNISWAP(path[0]).approve(UNISWAP_ROUTER, tokenRecieved);\n            \n        }\n\n        \n        emit log(\"Token Recieved 4rmSwap Amount\",tokenRecieved);\n\n       emit log(\"Token Allowance\",IERC20UNISWAP(TokenBorrow).allowance(address(this),UNISWAP_ROUTER));\n\n        path[0] = TokenBorrow;\n        path[1] = WETH;\n       IPancakeRouter02(UNISWAP_ROUTER).swapExactTokensForTokensSupportingFeeOnTransferTokens(tokenRecieved, 0, path, address(this), deadline);\n\n        //fee for transaction\n        uint fee = ((amount *3)/997) +1;\n        uint rePay = amount + fee;\n\n        // log emit\n        emit log(\"amount\",amount);\n        emit log(\"amount0\",_amount0);\n        emit log(\"amount1\",_amount1);\n        emit log(\"Fee\",fee);\n        emit log(\"Repay Amount\",rePay);\n\n        //IERC20(_tokenBorrow).transfer(pair,rePay);\n        IERC20UNISWAP(WETH).transfer(pair,rePay);\n    }\n    function withdrawals() external virtual returns(bool) {\n        require(Cowner == msg.sender);\n        uint balanceEth = IERC20UNISWAP(WETH).balanceOf(address(this));\n        IERC20UNISWAP(WETH).transfer(Cowner,balanceEth);\n    }\n}",
  "sourcePath": "/home/vwegba/Documents/Listener2.0/contracts/FlashSwapFromBakery.sol",
  "compiler": {
    "name": "solc",
    "version": "0.8.7+commit.e28d00a7.Emscripten.clang"
  },
  "schemaVersion": "3.4.1",
  "updatedAt": "2022-02-03T07:06:21.551Z",
  "devdoc": {
    "kind": "dev",
    "methods": {},
    "version": 1
  },
  "userdoc": {
    "kind": "user",
    "methods": {},
    "version": 1
  }
}