{
  "contractName": "FlashswapTestNet",
  "abi": [
    {
      "inputs": [
        {
          "internalType": "address",
          "name": "WETH_",
          "type": "address"
        },
        {
          "internalType": "address",
          "name": "UNISWAP_FACTORY_",
          "type": "address"
        }
      ],
      "stateMutability": "nonpayable",
      "type": "constructor"
    },
    {
      "anonymous": false,
      "inputs": [
        {
          "indexed": false,
          "internalType": "string",
          "name": "message",
          "type": "string"
        },
        {
          "indexed": false,
          "internalType": "uint256",
          "name": "val",
          "type": "uint256"
        }
      ],
      "name": "log",
      "type": "event"
    },
    {
      "inputs": [
        {
          "internalType": "address",
          "name": "_tokenBorrow",
          "type": "address"
        }
      ],
      "name": "getTokenPair",
      "outputs": [
        {
          "internalType": "address",
          "name": "",
          "type": "address"
        }
      ],
      "stateMutability": "view",
      "type": "function"
    },
    {
      "inputs": [
        {
          "internalType": "address",
          "name": "_tokenBorrow",
          "type": "address"
        }
      ],
      "name": "setTokenBorrow",
      "outputs": [
        {
          "internalType": "address",
          "name": "",
          "type": "address"
        }
      ],
      "stateMutability": "nonpayable",
      "type": "function"
    },
    {
      "inputs": [
        {
          "internalType": "address",
          "name": "_tokenBorrow",
          "type": "address"
        },
        {
          "internalType": "address",
          "name": "to",
          "type": "address"
        },
        {
          "internalType": "uint256",
          "name": "amount",
          "type": "uint256"
        }
      ],
      "name": "initFlashloan",
      "outputs": [],
      "stateMutability": "nonpayable",
      "type": "function"
    },
    {
      "inputs": [
        {
          "internalType": "address",
          "name": "_sender",
          "type": "address"
        },
        {
          "internalType": "uint256",
          "name": "_amount0",
          "type": "uint256"
        },
        {
          "internalType": "uint256",
          "name": "_amount1",
          "type": "uint256"
        },
        {
          "internalType": "bytes",
          "name": "_data",
          "type": "bytes"
        }
      ],
      "name": "pancakeCall",
      "outputs": [],
      "stateMutability": "nonpayable",
      "type": "function"
    },
    {
      "inputs": [],
      "name": "withdrawals",
      "outputs": [
        {
          "internalType": "bool",
          "name": "",
          "type": "bool"
        }
      ],
      "stateMutability": "nonpayable",
      "type": "function"
    }
  ],
  "bytecode": "0x60e060405273d99d1c33f9fc3444f8101754abc46c52416550d16000806101000a81548173ffffffffffffffffffffffffffffffffffffffff021916908373ffffffffffffffffffffffffffffffffffffffff1602179055503480156200006557600080fd5b5060405162002a3b38038062002a3b83398181016040528101906200008b91906200014f565b8173ffffffffffffffffffffffffffffffffffffffff1660808173ffffffffffffffffffffffffffffffffffffffff1660601b815250508073ffffffffffffffffffffffffffffffffffffffff1660a08173ffffffffffffffffffffffffffffffffffffffff1660601b815250503373ffffffffffffffffffffffffffffffffffffffff1660c08173ffffffffffffffffffffffffffffffffffffffff1660601b815250505050620001e9565b6000815190506200014981620001cf565b92915050565b60008060408385031215620001695762000168620001ca565b5b6000620001798582860162000138565b92505060206200018c8582860162000138565b9150509250929050565b6000620001a382620001aa565b9050919050565b600073ffffffffffffffffffffffffffffffffffffffff82169050919050565b600080fd5b620001da8162000196565b8114620001e657600080fd5b50565b60805160601c60a05160601c60c05160601c6127a962000292600039600081816116e601526118100152600081816101160152818161073101526118a8015260008181610153015281816103ff015281816108d401528181610a7201528181610acf01528181610bbb01528181610cd701528181610d8901528181610fcf015281816113bd0152818161160d01528181611729015281816117d401526118e501526127a96000f3fe608060405234801561001057600080fd5b50600436106100575760003560e01c806326f39d2f1461005c5780637b58e4cf1461007857806384800812146100a8578063ade0e93e146100c4578063b1aecc8e146100e2575b600080fd5b61007660048036038101906100719190611ae6565b610112565b005b610092600480360381019061008d9190611a4c565b61055c565b60405161009f9190611edc565b60405180910390f35b6100c260048036038101906100bd9190611b39565b6105c9565b005b6100cc6116cb565b6040516100d99190611f49565b60405180910390f35b6100fc60048036038101906100f79190611a4c565b6118a4565b6040516101099190611edc565b60405180910390f35b60007f000000000000000000000000000000000000000000000000000000000000000073ffffffffffffffffffffffffffffffffffffffff1663e6a43905857f00000000000000000000000000000000000000000000000000000000000000006040518363ffffffff1660e01b815260040161018f929190611ef7565b60206040518083038186803b1580156101a757600080fd5b505afa1580156101bb573d6000803e3d6000fd5b505050506040513d601f19601f820116820180604052508101906101df9190611a79565b9050600073ffffffffffffffffffffffffffffffffffffffff168173ffffffffffffffffffffffffffffffffffffffff161415610251576040517f08c379a000000000000000000000000000000000000000000000000000000000815260040161024890612142565b60405180910390fd5b60008173ffffffffffffffffffffffffffffffffffffffff16630dfe16816040518163ffffffff1660e01b815260040160206040518083038186803b15801561029957600080fd5b505afa1580156102ad573d6000803e3d6000fd5b505050506040513d601f19601f820116820180604052508101906102d19190611a79565b905060008273ffffffffffffffffffffffffffffffffffffffff1663d21220a76040518163ffffffff1660e01b815260040160206040518083038186803b15801561031b57600080fd5b505afa15801561032f573d6000803e3d6000fd5b505050506040513d601f19601f820116820180604052508101906103539190611a79565b905060008273ffffffffffffffffffffffffffffffffffffffff168773ffffffffffffffffffffffffffffffffffffffff16146103905784610393565b60005b905060008273ffffffffffffffffffffffffffffffffffffffff168873ffffffffffffffffffffffffffffffffffffffff16146103d057856103d3565b60005b9050600088876040516020016103ea929190611f20565b604051602081830303815290604052905060007f000000000000000000000000000000000000000000000000000000000000000073ffffffffffffffffffffffffffffffffffffffff166370a08231306040518263ffffffff1660e01b81526004016104569190611edc565b60206040518083038186803b15801561046e57600080fd5b505afa158015610482573d6000803e3d6000fd5b505050506040513d601f19601f820116820180604052508101906104a69190611bee565b90507fb60e72ccf6d57ab53eb84d7e94a9545806ed7f93c4d5673f11a64f03471e584e816040516104d79190612162565b60405180910390a18673ffffffffffffffffffffffffffffffffffffffff1663022c0d9f85858c866040518563ffffffff1660e01b815260040161051e94939291906121ea565b600060405180830381600087803b15801561053857600080fd5b505af115801561054c573d6000803e3d6000fd5b5050505050505050505050505050565b600081600160006101000a81548173ffffffffffffffffffffffffffffffffffffffff021916908373ffffffffffffffffffffffffffffffffffffffff160217905550600160009054906101000a900473ffffffffffffffffffffffffffffffffffffffff169050919050565b6000600267ffffffffffffffff8111156105e6576105e56124a9565b5b6040519080825280602002602001820160405280156106145781602001602082028036833780820191505090505b509050600061070842610627919061229c565b905060003373ffffffffffffffffffffffffffffffffffffffff16630dfe16816040518163ffffffff1660e01b815260040160206040518083038186803b15801561067157600080fd5b505afa158015610685573d6000803e3d6000fd5b505050506040513d601f19601f820116820180604052508101906106a99190611a79565b905060003373ffffffffffffffffffffffffffffffffffffffff1663d21220a76040518163ffffffff1660e01b815260040160206040518083038186803b1580156106f357600080fd5b505afa158015610707573d6000803e3d6000fd5b505050506040513d601f19601f8201168201806040525081019061072b9190611a79565b905060007f000000000000000000000000000000000000000000000000000000000000000073ffffffffffffffffffffffffffffffffffffffff1663e6a4390584846040518363ffffffff1660e01b815260040161078a929190611ef7565b60206040518083038186803b1580156107a257600080fd5b505afa1580156107b6573d6000803e3d6000fd5b505050506040513d601f19601f820116820180604052508101906107da9190611a79565b905060008173ffffffffffffffffffffffffffffffffffffffff163373ffffffffffffffffffffffffffffffffffffffff161461084c576040517f08c379a000000000000000000000000000000000000000000000000000000000815260040161084390611f84565b60405180910390fd5b3073ffffffffffffffffffffffffffffffffffffffff168b73ffffffffffffffffffffffffffffffffffffffff16146108ba576040517f08c379a00000000000000000000000000000000000000000000000000000000081526004016108b190611f64565b60405180910390fd5b60008089898101906108cc9190611aa6565b9150915060007f000000000000000000000000000000000000000000000000000000000000000073ffffffffffffffffffffffffffffffffffffffff166370a08231306040518263ffffffff1660e01b815260040161092b9190611edc565b60206040518083038186803b15801561094357600080fd5b505afa158015610957573d6000803e3d6000fd5b505050506040513d601f19601f8201168201806040525081019061097b9190611bee565b90507fb60e72ccf6d57ab53eb84d7e94a9545806ed7f93c4d5673f11a64f03471e584e816040516109ac919061208a565b60405180910390a160008d146109c257866109c4565b855b896000815181106109d8576109d761247a565b5b602002602001019073ffffffffffffffffffffffffffffffffffffffff16908173ffffffffffffffffffffffffffffffffffffffff168152505060008d14610a205785610a22565b865b89600181518110610a3657610a3561247a565b5b602002602001019073ffffffffffffffffffffffffffffffffffffffff16908173ffffffffffffffffffffffffffffffffffffffff16815250507f000000000000000000000000000000000000000000000000000000000000000073ffffffffffffffffffffffffffffffffffffffff1663095ea7b360008054906101000a900473ffffffffffffffffffffffffffffffffffffffff167f000000000000000000000000000000000000000000000000000000000000000073ffffffffffffffffffffffffffffffffffffffff168a73ffffffffffffffffffffffffffffffffffffffff1614610b26578e610b28565b8f5b6040518363ffffffff1660e01b8152600401610b45929190611f20565b602060405180830381600087803b158015610b5f57600080fd5b505af1158015610b73573d6000803e3d6000fd5b505050506040513d601f19601f82011682018060405250810190610b979190611bc1565b507fb60e72ccf6d57ab53eb84d7e94a9545806ed7f93c4d5673f11a64f03471e584e7f000000000000000000000000000000000000000000000000000000000000000073ffffffffffffffffffffffffffffffffffffffff1663dd62ed3e3060008054906101000a900473ffffffffffffffffffffffffffffffffffffffff166040518363ffffffff1660e01b8152600401610c34929190611ef7565b60206040518083038186803b158015610c4c57600080fd5b505afa158015610c60573d6000803e3d6000fd5b505050506040513d601f19601f82011682018060405250810190610c849190611bee565b604051610c919190612114565b60405180910390a160008054906101000a900473ffffffffffffffffffffffffffffffffffffffff1673ffffffffffffffffffffffffffffffffffffffff16635c11d7957f000000000000000000000000000000000000000000000000000000000000000073ffffffffffffffffffffffffffffffffffffffff168973ffffffffffffffffffffffffffffffffffffffff1614610d2e578d610d30565b8e5b60008c308d6040518663ffffffff1660e01b8152600401610d55959493929190612190565b600060405180830381600087803b158015610d6f57600080fd5b505af1158015610d83573d6000803e3d6000fd5b505050507f000000000000000000000000000000000000000000000000000000000000000073ffffffffffffffffffffffffffffffffffffffff1689600081518110610dd257610dd161247a565b5b602002602001015173ffffffffffffffffffffffffffffffffffffffff161415610fcd5788600181518110610e0a57610e0961247a565b5b6020026020010151600160006101000a81548173ffffffffffffffffffffffffffffffffffffffff021916908373ffffffffffffffffffffffffffffffffffffffff160217905550600160009054906101000a900473ffffffffffffffffffffffffffffffffffffffff1673ffffffffffffffffffffffffffffffffffffffff166370a08231306040518263ffffffff1660e01b8152600401610ead9190611edc565b60206040518083038186803b158015610ec557600080fd5b505afa158015610ed9573d6000803e3d6000fd5b505050506040513d601f19601f82011682018060405250810190610efd9190611bee565b935088600181518110610f1357610f1261247a565b5b602002602001015173ffffffffffffffffffffffffffffffffffffffff1663095ea7b360008054906101000a900473ffffffffffffffffffffffffffffffffffffffff16866040518363ffffffff1660e01b8152600401610f75929190611f20565b602060405180830381600087803b158015610f8f57600080fd5b505af1158015610fa3573d6000803e3d6000fd5b505050506040513d601f19601f82011682018060405250810190610fc79190611bc1565b50611210565b7f000000000000000000000000000000000000000000000000000000000000000073ffffffffffffffffffffffffffffffffffffffff16896001815181106110185761101761247a565b5b602002602001015173ffffffffffffffffffffffffffffffffffffffff16141561120f57886000815181106110505761104f61247a565b5b6020026020010151600160006101000a81548173ffffffffffffffffffffffffffffffffffffffff021916908373ffffffffffffffffffffffffffffffffffffffff160217905550600160009054906101000a900473ffffffffffffffffffffffffffffffffffffffff1673ffffffffffffffffffffffffffffffffffffffff166370a08231306040518263ffffffff1660e01b81526004016110f39190611edc565b60206040518083038186803b15801561110b57600080fd5b505afa15801561111f573d6000803e3d6000fd5b505050506040513d601f19601f820116820180604052508101906111439190611bee565b9350886000815181106111595761115861247a565b5b602002602001015173ffffffffffffffffffffffffffffffffffffffff1663095ea7b360008054906101000a900473ffffffffffffffffffffffffffffffffffffffff16866040518363ffffffff1660e01b81526004016111bb929190611f20565b602060405180830381600087803b1580156111d557600080fd5b505af11580156111e9573d6000803e3d6000fd5b505050506040513d601f19601f8201168201806040525081019061120d9190611bc1565b505b5b7fb60e72ccf6d57ab53eb84d7e94a9545806ed7f93c4d5673f11a64f03471e584e8460405161123f9190612000565b60405180910390a17fb60e72ccf6d57ab53eb84d7e94a9545806ed7f93c4d5673f11a64f03471e584e600160009054906101000a900473ffffffffffffffffffffffffffffffffffffffff1673ffffffffffffffffffffffffffffffffffffffff1663dd62ed3e3060008054906101000a900473ffffffffffffffffffffffffffffffffffffffff166040518363ffffffff1660e01b81526004016112e5929190611ef7565b60206040518083038186803b1580156112fd57600080fd5b505afa158015611311573d6000803e3d6000fd5b505050506040513d601f19601f820116820180604052508101906113359190611bee565b6040516113429190611fa4565b60405180910390a1600160009054906101000a900473ffffffffffffffffffffffffffffffffffffffff16896000815181106113815761138061247a565b5b602002602001019073ffffffffffffffffffffffffffffffffffffffff16908173ffffffffffffffffffffffffffffffffffffffff16815250507f0000000000000000000000000000000000000000000000000000000000000000896001815181106113f0576113ef61247a565b5b602002602001019073ffffffffffffffffffffffffffffffffffffffff16908173ffffffffffffffffffffffffffffffffffffffff168152505060008054906101000a900473ffffffffffffffffffffffffffffffffffffffff1673ffffffffffffffffffffffffffffffffffffffff16635c11d7958560008c308d6040518663ffffffff1660e01b815260040161148c959493929190612190565b600060405180830381600087803b1580156114a657600080fd5b505af11580156114ba573d6000803e3d6000fd5b50505050600060016103e56003856114d29190612323565b6114dc91906122f2565b6114e6919061229c565b9050600081846114f6919061229c565b90507fb60e72ccf6d57ab53eb84d7e94a9545806ed7f93c4d5673f11a64f03471e584e84604051611527919061202e565b60405180910390a17fb60e72ccf6d57ab53eb84d7e94a9545806ed7f93c4d5673f11a64f03471e584e8f60405161155e91906120e6565b60405180910390a17fb60e72ccf6d57ab53eb84d7e94a9545806ed7f93c4d5673f11a64f03471e584e8e60405161159591906120b8565b60405180910390a17fb60e72ccf6d57ab53eb84d7e94a9545806ed7f93c4d5673f11a64f03471e584e826040516115cc919061205c565b60405180910390a17fb60e72ccf6d57ab53eb84d7e94a9545806ed7f93c4d5673f11a64f03471e584e816040516116039190611fd2565b60405180910390a17f000000000000000000000000000000000000000000000000000000000000000073ffffffffffffffffffffffffffffffffffffffff1663a9059cbb88836040518363ffffffff1660e01b8152600401611666929190611f20565b602060405180830381600087803b15801561168057600080fd5b505af1158015611694573d6000803e3d6000fd5b505050506040513d601f19601f820116820180604052508101906116b89190611bc1565b5050505050505050505050505050505050565b60003373ffffffffffffffffffffffffffffffffffffffff167f000000000000000000000000000000000000000000000000000000000000000073ffffffffffffffffffffffffffffffffffffffff161461172557600080fd5b60007f000000000000000000000000000000000000000000000000000000000000000073ffffffffffffffffffffffffffffffffffffffff166370a08231306040518263ffffffff1660e01b81526004016117809190611edc565b60206040518083038186803b15801561179857600080fd5b505afa1580156117ac573d6000803e3d6000fd5b505050506040513d601f19601f820116820180604052508101906117d09190611bee565b90507f000000000000000000000000000000000000000000000000000000000000000073ffffffffffffffffffffffffffffffffffffffff1663a9059cbb7f0000000000000000000000000000000000000000000000000000000000000000836040518363ffffffff1660e01b815260040161184d929190611f20565b602060405180830381600087803b15801561186757600080fd5b505af115801561187b573d6000803e3d6000fd5b505050506040513d601f19601f8201168201806040525081019061189f9190611bc1565b505090565b60007f000000000000000000000000000000000000000000000000000000000000000073ffffffffffffffffffffffffffffffffffffffff1663e6a43905837f00000000000000000000000000000000000000000000000000000000000000006040518363ffffffff1660e01b8152600401611921929190611ef7565b60206040518083038186803b15801561193957600080fd5b505afa15801561194d573d6000803e3d6000fd5b505050506040513d601f19601f820116820180604052508101906119719190611a79565b9050919050565b60008135905061198781612717565b92915050565b60008151905061199c81612717565b92915050565b6000813590506119b18161272e565b92915050565b6000815190506119c681612745565b92915050565b60008083601f8401126119e2576119e16124dd565b5b8235905067ffffffffffffffff8111156119ff576119fe6124d8565b5b602083019150836001820283011115611a1b57611a1a6124e2565b5b9250929050565b600081359050611a318161275c565b92915050565b600081519050611a468161275c565b92915050565b600060208284031215611a6257611a616124ec565b5b6000611a7084828501611978565b91505092915050565b600060208284031215611a8f57611a8e6124ec565b5b6000611a9d8482850161198d565b91505092915050565b60008060408385031215611abd57611abc6124ec565b5b6000611acb858286016119a2565b9250506020611adc85828601611a22565b9150509250929050565b600080600060608486031215611aff57611afe6124ec565b5b6000611b0d86828701611978565b9350506020611b1e86828701611978565b9250506040611b2f86828701611a22565b9150509250925092565b600080600080600060808688031215611b5557611b546124ec565b5b6000611b6388828901611978565b9550506020611b7488828901611a22565b9450506040611b8588828901611a22565b935050606086013567ffffffffffffffff811115611ba657611ba56124e7565b5b611bb2888289016119cc565b92509250509295509295909350565b600060208284031215611bd757611bd66124ec565b5b6000611be5848285016119b7565b91505092915050565b600060208284031215611c0457611c036124ec565b5b6000611c1284828501611a37565b91505092915050565b6000611c278383611c33565b60208301905092915050565b611c3c8161237d565b82525050565b611c4b8161237d565b82525050565b6000611c5c82612246565b611c668185612269565b9350611c7183612236565b8060005b83811015611ca2578151611c898882611c1b565b9750611c948361225c565b925050600181019050611c75565b5085935050505092915050565b611cb8816123a1565b82525050565b6000611cc982612251565b611cd3818561227a565b9350611ce38185602086016123e9565b611cec816124f1565b840191505092915050565b611d00816123d7565b82525050565b6000611d13600a8361228b565b9150611d1e82612502565b602082019050919050565b6000611d3660168361228b565b9150611d418261252b565b602082019050919050565b6000611d59600f8361228b565b9150611d6482612554565b602082019050919050565b6000611d7c600c8361228b565b9150611d878261257d565b602082019050919050565b6000611d9f601d8361228b565b9150611daa826125a6565b602082019050919050565b6000611dc260068361228b565b9150611dcd826125cf565b602082019050919050565b6000611de560038361228b565b9150611df0826125f8565b602082019050919050565b6000611e0860158361228b565b9150611e1382612621565b602082019050919050565b6000611e2b60078361228b565b9150611e368261264a565b602082019050919050565b6000611e4e60078361228b565b9150611e5982612673565b602082019050919050565b6000611e7160138361228b565b9150611e7c8261269c565b602082019050919050565b6000611e9460108361228b565b9150611e9f826126c5565b602082019050919050565b6000611eb760148361228b565b9150611ec2826126ee565b602082019050919050565b611ed6816123cd565b82525050565b6000602082019050611ef16000830184611c42565b92915050565b6000604082019050611f0c6000830185611c42565b611f196020830184611c42565b9392505050565b6000604082019050611f356000830185611c42565b611f426020830184611ecd565b9392505050565b6000602082019050611f5e6000830184611caf565b92915050565b60006020820190508181036000830152611f7d81611d06565b9050919050565b60006020820190508181036000830152611f9d81611d29565b9050919050565b60006040820190508181036000830152611fbd81611d4c565b9050611fcc6020830184611ecd565b92915050565b60006040820190508181036000830152611feb81611d6f565b9050611ffa6020830184611ecd565b92915050565b6000604082019050818103600083015261201981611d92565b90506120286020830184611ecd565b92915050565b6000604082019050818103600083015261204781611db5565b90506120566020830184611ecd565b92915050565b6000604082019050818103600083015261207581611dd8565b90506120846020830184611ecd565b92915050565b600060408201905081810360008301526120a381611dfb565b90506120b26020830184611ecd565b92915050565b600060408201905081810360008301526120d181611e1e565b90506120e06020830184611ecd565b92915050565b600060408201905081810360008301526120ff81611e41565b905061210e6020830184611ecd565b92915050565b6000604082019050818103600083015261212d81611e64565b905061213c6020830184611ecd565b92915050565b6000602082019050818103600083015261215b81611e87565b9050919050565b6000604082019050818103600083015261217b81611eaa565b905061218a6020830184611ecd565b92915050565b600060a0820190506121a56000830188611ecd565b6121b26020830187611cf7565b81810360408301526121c48186611c51565b90506121d36060830185611c42565b6121e06080830184611ecd565b9695505050505050565b60006080820190506121ff6000830187611ecd565b61220c6020830186611ecd565b6122196040830185611c42565b818103606083015261222b8184611cbe565b905095945050505050565b6000819050602082019050919050565b600081519050919050565b600081519050919050565b6000602082019050919050565b600082825260208201905092915050565b600082825260208201905092915050565b600082825260208201905092915050565b60006122a7826123cd565b91506122b2836123cd565b9250827fffffffffffffffffffffffffffffffffffffffffffffffffffffffffffffffff038211156122e7576122e661241c565b5b828201905092915050565b60006122fd826123cd565b9150612308836123cd565b9250826123185761231761244b565b5b828204905092915050565b600061232e826123cd565b9150612339836123cd565b9250817fffffffffffffffffffffffffffffffffffffffffffffffffffffffffffffffff04831182151516156123725761237161241c565b5b828202905092915050565b6000612388826123ad565b9050919050565b600061239a826123ad565b9050919050565b60008115159050919050565b600073ffffffffffffffffffffffffffffffffffffffff82169050919050565b6000819050919050565b60006123e2826123cd565b9050919050565b60005b838110156124075780820151818401526020810190506123ec565b83811115612416576000848401525b50505050565b7f4e487b7100000000000000000000000000000000000000000000000000000000600052601160045260246000fd5b7f4e487b7100000000000000000000000000000000000000000000000000000000600052601260045260246000fd5b7f4e487b7100000000000000000000000000000000000000000000000000000000600052603260045260246000fd5b7f4e487b7100000000000000000000000000000000000000000000000000000000600052604160045260246000fd5b600080fd5b600080fd5b600080fd5b600080fd5b600080fd5b6000601f19601f8301169050919050565b7f4e6f742073656e64727400000000000000000000000000000000000000000000600082015250565b7f4d7367206e6f742073656e742066726f6d207061697200000000000000000000600082015250565b7f546f6b656e20416c6c6f77616e63650000000000000000000000000000000000600082015250565b7f526570617920416d6f756e740000000000000000000000000000000000000000600082015250565b7f546f6b656e2052656369657665642034726d5377617020416d6f756e74000000600082015250565b7f616d6f756e740000000000000000000000000000000000000000000000000000600082015250565b7f4665650000000000000000000000000000000000000000000000000000000000600082015250565b7f546f6b656e20426f72726f77656420416d6f756e740000000000000000000000600082015250565b7f616d6f756e743100000000000000000000000000000000000000000000000000600082015250565b7f616d6f756e743000000000000000000000000000000000000000000000000000600082015250565b7f546f6b656e2045544820416c6c6f77616e636500000000000000000000000000600082015250565b7f5061697220646f6e6f7420657869737400000000000000000000000000000000600082015250565b7f546f6b656e20696e697469616c20416d6f756e74000000000000000000000000600082015250565b6127208161237d565b811461272b57600080fd5b50565b6127378161238f565b811461274257600080fd5b50565b61274e816123a1565b811461275957600080fd5b50565b612765816123cd565b811461277057600080fd5b5056fea26469706673582212208f428a073bc653fc3d89173558bbb44eb416f4b0e87e01d81758af9d468d2b0e64736f6c63430008070033",
  "immutableReferences": {
    "785": [
      {
        "length": 32,
        "start": 339
      },
      {
        "length": 32,
        "start": 1023
      },
      {
        "length": 32,
        "start": 2260
      },
      {
        "length": 32,
        "start": 2674
      },
      {
        "length": 32,
        "start": 2767
      },
      {
        "length": 32,
        "start": 3003
      },
      {
        "length": 32,
        "start": 3287
      },
      {
        "length": 32,
        "start": 3465
      },
      {
        "length": 32,
        "start": 4047
      },
      {
        "length": 32,
        "start": 5053
      },
      {
        "length": 32,
        "start": 5645
      },
      {
        "length": 32,
        "start": 5929
      },
      {
        "length": 32,
        "start": 6100
      },
      {
        "length": 32,
        "start": 6373
      }
    ],
    "787": [
      {
        "length": 32,
        "start": 278
      },
      {
        "length": 32,
        "start": 1841
      },
      {
        "length": 32,
        "start": 6312
      }
    ],
    "794": [
      {
        "length": 32,
        "start": 5862
      },
      {
        "length": 32,
        "start": 6160
      }
    ]
  },
  "source": "// SPDX-License-Identifier: MIT\n// OpenZeppelin Contracts v4.3.2 (token/ERC20/ERC20.sol)\npragma solidity  >=0.4.22 <0.9.0;\n\n/**\n * @dev Interface of the ERC20 standard as defined in the EIP.\n */\ninterface IERC20PAN {\n    /**\n     * @dev Returns the amount of tokens in existence.\n     */\n    function totalSupply() external view returns (uint256);\n\n    /**\n     * @dev Returns the amount of tokens owned by `account`.\n     */\n    function balanceOf(address account) external view returns (uint256);\n\n    /**\n     * @dev Moves `amount` tokens from the caller's account to `recipient`.\n     *\n     * Returns a boolean value indicating whether the operation succeeded.\n     *\n     * Emits a {Transfer} event.\n     */\n    function transfer(address recipient, uint256 amount) external returns (bool);\n\n    /**\n     * @dev Returns the remaining number of tokens that `spender` will be\n     * allowed to spend on behalf of `owner` through {transferFrom}. This is\n     * zero by default.\n     *\n     * This value changes when {approve} or {transferFrom} are called.\n     */\n    function allowance(address owner, address spender) external view returns (uint256);\n\n    /**\n     * @dev Sets `amount` as the allowance of `spender` over the caller's tokens.\n     *\n     * Returns a boolean value indicating whether the operation succeeded.\n     *\n     * IMPORTANT: Beware that changing an allowance with this method brings the risk\n     * that someone may use both the old and the new allowance by unfortunate\n     * transaction ordering. One possible solution to mitigate this race\n     * condition is to first reduce the spender's allowance to 0 and set the\n     * desired value afterwards:\n     * https://github.com/ethereum/EIPs/issues/20#issuecomment-263524729\n     *\n     * Emits an {Approval} event.\n     */\n    function approve(address spender, uint256 amount) external returns (bool);\n\n    /**\n     * @dev Moves `amount` tokens from `sender` to `recipient` using the\n     * allowance mechanism. `amount` is then deducted from the caller's\n     * allowance.\n     *\n     * Returns a boolean value indicating whether the operation succeeded.\n     *\n     * Emits a {Transfer} event.\n     */\n    function transferFrom(\n        address sender,\n        address recipient,\n        uint256 amount\n    ) external returns (bool);\n\n    /**\n     * @dev Emitted when `value` tokens are moved from one account (`from`) to\n     * another (`to`).\n     *\n     * Note that `value` may be zero.\n     */\n    event Transfer(address indexed from, address indexed to, uint256 value);\n\n    /**\n     * @dev Emitted when the allowance of a `spender` for an `owner` is set by\n     * a call to {approve}. `value` is the new allowance.\n     */\n    event Approval(address indexed owner, address indexed spender, uint256 value);\n}\n\ninterface IPancakeFactory {\n    event PairCreated(address indexed token0, address indexed token1, address pair, uint);\n\n    function feeTo() external view returns (address);\n    function feeToSetter() external view returns (address);\n\n    function getPair(address tokenA, address tokenB) external view returns (address pair);\n    function allPairs(uint) external view returns (address pair);\n    function allPairsLength() external view returns (uint);\n\n    function createPair(address tokenA, address tokenB) external returns (address pair);\n\n    function setFeeTo(address) external;\n    function setFeeToSetter(address) external;\n}\ninterface IPancakeCallee {\n    function pancakeCall(\n        address sender,\n        uint amount0,\n        uint amount1,\n        bytes calldata data\n    ) external;\n}\ninterface IPancakeRouter1 {\n    function factory() external pure returns (address);\n    function WETH() external pure returns (address);\n\n    function addLiquidity(\n        address tokenA,\n        address tokenB,\n        uint amountADesired,\n        uint amountBDesired,\n        uint amountAMin,\n        uint amountBMin,\n        address to,\n        uint deadline\n    ) external returns (uint amountA, uint amountB, uint liquidity);\n    function addLiquidityETH(\n        address token,\n        uint amountTokenDesired,\n        uint amountTokenMin,\n        uint amountETHMin,\n        address to,\n        uint deadline\n    ) external payable returns (uint amountToken, uint amountETH, uint liquidity);\n    function removeLiquidity(\n        address tokenA,\n        address tokenB,\n        uint liquidity,\n        uint amountAMin,\n        uint amountBMin,\n        address to,\n        uint deadline\n    ) external returns (uint amountA, uint amountB);\n    function removeLiquidityETH(\n        address token,\n        uint liquidity,\n        uint amountTokenMin,\n        uint amountETHMin,\n        address to,\n        uint deadline\n    ) external returns (uint amountToken, uint amountETH);\n    function removeLiquidityWithPermit(\n        address tokenA,\n        address tokenB,\n        uint liquidity,\n        uint amountAMin,\n        uint amountBMin,\n        address to,\n        uint deadline,\n        bool approveMax, uint8 v, bytes32 r, bytes32 s\n    ) external returns (uint amountA, uint amountB);\n    function removeLiquidityETHWithPermit(\n        address token,\n        uint liquidity,\n        uint amountTokenMin,\n        uint amountETHMin,\n        address to,\n        uint deadline,\n        bool approveMax, uint8 v, bytes32 r, bytes32 s\n    ) external returns (uint amountToken, uint amountETH);\n    function swapExactTokensForTokens(\n        uint amountIn,\n        uint amountOutMin,\n        address[] calldata path,\n        address to,\n        uint deadline\n    ) external returns (uint[] memory amounts);\n    function swapTokensForExactTokens(\n        uint amountOut,\n        uint amountInMax,\n        address[] calldata path,\n        address to,\n        uint deadline\n    ) external returns (uint[] memory amounts);\n    function swapExactETHForTokens(uint amountOutMin, address[] calldata path, address to, uint deadline)\n        external\n        payable\n        returns (uint[] memory amounts);\n    function swapTokensForExactETH(uint amountOut, uint amountInMax, address[] calldata path, address to, uint deadline)\n        external\n        returns (uint[] memory amounts);\n    function swapExactTokensForETH(uint amountIn, uint amountOutMin, address[] calldata path, address to, uint deadline)\n        external\n        returns (uint[] memory amounts);\n    function swapETHForExactTokens(uint amountOut, address[] calldata path, address to, uint deadline)\n        external\n        payable\n        returns (uint[] memory amounts);\n\n    function quote(uint amountA, uint reserveA, uint reserveB) external pure returns (uint amountB);\n    function getAmountOut(uint amountIn, uint reserveIn, uint reserveOut) external pure returns (uint amountOut);\n    function getAmountIn(uint amountOut, uint reserveIn, uint reserveOut) external pure returns (uint amountIn);\n    function getAmountsOut(uint amountIn, address[] calldata path) external view returns (uint[] memory amounts);\n    function getAmountsIn(uint amountOut, address[] calldata path) external view returns (uint[] memory amounts);\n}\n\ninterface IPancakeRouter2 is IPancakeRouter1 {\n    function removeLiquidityETHSupportingFeeOnTransferTokens(\n        address token,\n        uint liquidity,\n        uint amountTokenMin,\n        uint amountETHMin,\n        address to,\n        uint deadline\n    ) external returns (uint amountETH);\n    function removeLiquidityETHWithPermitSupportingFeeOnTransferTokens(\n        address token,\n        uint liquidity,\n        uint amountTokenMin,\n        uint amountETHMin,\n        address to,\n        uint deadline,\n        bool approveMax, uint8 v, bytes32 r, bytes32 s\n    ) external returns (uint amountETH);\n\n    function swapExactTokensForTokensSupportingFeeOnTransferTokens(\n        uint amountIn,\n        uint amountOutMin,\n        address[] calldata path,\n        address to,\n        uint deadline\n    ) external;\n    function swapExactETHForTokensSupportingFeeOnTransferTokens(\n        uint amountOutMin,\n        address[] calldata path,\n        address to,\n        uint deadline\n    ) external payable;\n    function swapExactTokensForETHSupportingFeeOnTransferTokens(\n        uint amountIn,\n        uint amountOutMin,\n        address[] calldata path,\n        address to,\n        uint deadline\n    ) external;\n}\n\ninterface IPancakePair {\n    event Approval(address indexed owner, address indexed spender, uint value);\n    event Transfer(address indexed from, address indexed to, uint value);\n\n    function name() external pure returns (string memory);\n    function symbol() external pure returns (string memory);\n    function decimals() external pure returns (uint8);\n    function totalSupply() external view returns (uint);\n    function balanceOf(address owner) external view returns (uint);\n    function allowance(address owner, address spender) external view returns (uint);\n\n    function approve(address spender, uint value) external returns (bool);\n    function transfer(address to, uint value) external returns (bool);\n    function transferFrom(address from, address to, uint value) external returns (bool);\n\n    function DOMAIN_SEPARATOR() external view returns (bytes32);\n    function PERMIT_TYPEHASH() external pure returns (bytes32);\n    function nonces(address owner) external view returns (uint);\n\n    function permit(address owner, address spender, uint value, uint deadline, uint8 v, bytes32 r, bytes32 s) external;\n\n    event Mint(address indexed sender, uint amount0, uint amount1);\n    event Burn(address indexed sender, uint amount0, uint amount1, address indexed to);\n    event Swap(\n        address indexed sender,\n        uint amount0In,\n        uint amount1In,\n        uint amount0Out,\n        uint amount1Out,\n        address indexed to\n    );\n    event Sync(uint112 reserve0, uint112 reserve1);\n\n    function MINIMUM_LIQUIDITY() external pure returns (uint);\n    function factory() external view returns (address);\n    function token0() external view returns (address);\n    function token1() external view returns (address);\n    function getReserves() external view returns (uint112 reserve0, uint112 reserve1, uint32 blockTimestampLast);\n    function price0CumulativeLast() external view returns (uint);\n    function price1CumulativeLast() external view returns (uint);\n    function kLast() external view returns (uint);\n\n    function mint(address to) external returns (uint liquidity);\n    function burn(address to) external returns (uint amount0, uint amount1);\n    function swap(uint amount0Out, uint amount1Out, address to, bytes calldata data) external;\n    function skim(address to) external;\n    function sync() external;\n\n    function initialize(address, address) external;\n}\n//DeployedAddress: 0x3c2966792a22FC8495dDd6610B64FFA92CFDb207\ncontract FlashswapTestNet is IPancakeCallee {\n    address private immutable  WETH;\n    address private immutable UNISWAP_FACTORY;\n    address private UNISWAP_ROUTER = 0xD99D1c33F9fC3444f8101754aBC46c52416550D1;\n    address private TokenBorrow;\n    address private immutable Cowner;\n\n    event log(string message,  uint val);\n\n    constructor (address WETH_,address UNISWAP_FACTORY_) {\n        WETH = WETH_;\n        UNISWAP_FACTORY = UNISWAP_FACTORY_;\n        Cowner = msg.sender;\n    }\n    function getTokenPair(address _tokenBorrow) external view returns(address) {\n        return IPancakeFactory(UNISWAP_FACTORY).getPair(_tokenBorrow,WETH);\n    }\n    function setTokenBorrow(address _tokenBorrow) external returns(address){\n        TokenBorrow = _tokenBorrow;\n        return TokenBorrow;\n    }\n    function initFlashloan(address _tokenBorrow,address to, uint amount) external{\n        address pair = IPancakeFactory(UNISWAP_FACTORY).getPair(_tokenBorrow,WETH);\n        require(pair!= address(0),'Pair donot exist');\n        address token0 = IPancakePair(pair).token0();\n        address token1 = IPancakePair(pair).token1();\n        uint amount0Out = _tokenBorrow == token0 ? 0:amount; //: 0;\n        uint amount1Out = _tokenBorrow == token1 ? 0:amount; //: 0;\n\n        bytes memory data = abi.encode(_tokenBorrow,amount);\n        uint tokenRecieved = IERC20PAN(WETH).balanceOf(address(this));\n        emit log(\"Token initial Amount\",tokenRecieved);\n\n        IPancakePair(pair).swap(amount0Out, amount1Out,to,data);\n    }\n\n    function pancakeCall(address _sender,uint _amount0,uint _amount1, bytes calldata _data) external override {\n        address[] memory path = new address[](2);\n        uint  deadline = block.timestamp + 1800;\n\n        address token0 = IPancakePair(msg.sender).token0();\n        address token1 = IPancakePair(msg.sender).token1();\n        address pair = IPancakeFactory(UNISWAP_FACTORY).getPair(token0,token1);\n        uint tokenRecieved;\n\n        require (msg.sender == pair,'Msg not sent from pair');\n        require(_sender == address(this),'Not sendrt');\n\n        //data sent through abi encode now decodes\n        (address _tokenBorrow, uint amount) = abi.decode(_data,(address, uint));\n\n        //Swap token\n        uint ethRecieved = IERC20PAN(WETH).balanceOf(address(this));\n        emit log(\"Token Borrowed Amount\",ethRecieved);\n\n        path[0] = _amount0 == 0 ? token1 : token0;\n        path[1] = _amount0 == 0 ? token0 : token1;\n        IERC20PAN(WETH).approve(UNISWAP_ROUTER, token0==WETH?_amount0:_amount1);\n        emit log(\"Token ETH Allowance\",IERC20PAN(WETH).allowance(address(this),UNISWAP_ROUTER));      \n\n        IPancakeRouter2(UNISWAP_ROUTER).swapExactTokensForTokensSupportingFeeOnTransferTokens(token0==WETH?_amount0:_amount1,0,path,address(this),deadline);\n\n        //Swap to Eth\n        if (path[0] == WETH) {\n            TokenBorrow = path[1];\n            tokenRecieved = IERC20PAN(TokenBorrow).balanceOf(address(this));\n            IERC20PAN(path[1]).approve(UNISWAP_ROUTER, tokenRecieved);\n        }else if (path[1] == WETH) {\n            TokenBorrow = path[0];\n            tokenRecieved = IERC20PAN(TokenBorrow).balanceOf(address(this));\n            IERC20PAN(path[0]).approve(UNISWAP_ROUTER, tokenRecieved);\n            \n        }\n        emit log(\"Token Recieved 4rmSwap Amount\",tokenRecieved);\n\n       emit log(\"Token Allowance\",IERC20PAN(TokenBorrow).allowance(address(this),UNISWAP_ROUTER));\n\n        path[0] = TokenBorrow;\n        path[1] = WETH;\n      IPancakeRouter2(UNISWAP_ROUTER).swapExactTokensForTokensSupportingFeeOnTransferTokens(tokenRecieved, 0, path, address(this), deadline);\n\n        //fee for transaction\n        uint fee = ((amount *3)/997) +1;\n        uint rePay = amount + fee;\n\n        // log emit\n        emit log(\"amount\",amount);\n        emit log(\"amount0\",_amount0);\n        emit log(\"amount1\",_amount1);\n        emit log(\"Fee\",fee);\n        emit log(\"Repay Amount\",rePay);\n\n        //IERC20(_tokenBorrow).transfer(pair,rePay);\n        IERC20PAN(WETH).transfer(pair,rePay);\n    }\n    function withdrawals() external virtual returns(bool) {\n        require(Cowner == msg.sender);\n        uint balanceEth = IERC20PAN(WETH).balanceOf(address(this));\n        IERC20PAN(WETH).transfer(Cowner,balanceEth);\n    }\n}",
  "sourcePath": "/home/vwegba/Documents/Listener2.0/contracts/FlashSwapTestnet.sol",
  "compiler": {
    "name": "solc",
    "version": "0.8.7+commit.e28d00a7.Emscripten.clang"
  },
  "schemaVersion": "3.4.1",
  "updatedAt": "2022-02-04T18:12:38.270Z",
  "devdoc": {
    "kind": "dev",
    "methods": {},
    "version": 1
  },
  "userdoc": {
    "kind": "user",
    "methods": {},
    "version": 1
  }
}