{
  "contractName": "Flashswap",
  "abi": [
    {
      "inputs": [
        {
          "internalType": "address",
          "name": "WETH_",
          "type": "address"
        },
        {
          "internalType": "address",
          "name": "UNISWAP_FACTORY_",
          "type": "address"
        }
      ],
      "stateMutability": "nonpayable",
      "type": "constructor"
    },
    {
      "anonymous": false,
      "inputs": [
        {
          "indexed": false,
          "internalType": "string",
          "name": "message",
          "type": "string"
        },
        {
          "indexed": false,
          "internalType": "uint256",
          "name": "val",
          "type": "uint256"
        }
      ],
      "name": "log",
      "type": "event"
    },
    {
      "inputs": [
        {
          "internalType": "address",
          "name": "_tokenBorrow",
          "type": "address"
        }
      ],
      "name": "getTokenPair",
      "outputs": [
        {
          "internalType": "address",
          "name": "",
          "type": "address"
        }
      ],
      "stateMutability": "view",
      "type": "function"
    },
    {
      "inputs": [
        {
          "internalType": "address",
          "name": "_tokenBorrow",
          "type": "address"
        },
        {
          "internalType": "address",
          "name": "to",
          "type": "address"
        },
        {
          "internalType": "uint256",
          "name": "amount",
          "type": "uint256"
        }
      ],
      "name": "initFlashloan",
      "outputs": [],
      "stateMutability": "nonpayable",
      "type": "function"
    },
    {
      "inputs": [
        {
          "internalType": "address",
          "name": "_sender",
          "type": "address"
        },
        {
          "internalType": "uint256",
          "name": "_amount0",
          "type": "uint256"
        },
        {
          "internalType": "uint256",
          "name": "_amount1",
          "type": "uint256"
        },
        {
          "internalType": "bytes",
          "name": "_data",
          "type": "bytes"
        }
      ],
      "name": "pancakeCall",
      "outputs": [],
      "stateMutability": "nonpayable",
      "type": "function"
    }
  ],
  "bytecode": "0x60c06040523480156200001157600080fd5b5060405162001505380380620015058339818101604052810190620000379190620000c4565b8173ffffffffffffffffffffffffffffffffffffffff1660808173ffffffffffffffffffffffffffffffffffffffff1660601b815250508073ffffffffffffffffffffffffffffffffffffffff1660a08173ffffffffffffffffffffffffffffffffffffffff1660601b8152505050506200015e565b600081519050620000be8162000144565b92915050565b60008060408385031215620000de57620000dd6200013f565b5b6000620000ee85828601620000ad565b92505060206200010185828601620000ad565b9150509250929050565b600062000118826200011f565b9050919050565b600073ffffffffffffffffffffffffffffffffffffffff82169050919050565b600080fd5b6200014f816200010b565b81146200015b57600080fd5b50565b60805160601c60a05160601c611361620001a46000396000818160b20152818161051b01526108c501526000818160ef01528181610807015261090201526113616000f3fe608060405234801561001057600080fd5b50600436106100415760003560e01c806326f39d2f146100465780638480081214610062578063b1aecc8e1461007e575b600080fd5b610060600480360381019061005b9190610aee565b6100ae565b005b61007c60048036038101906100779190610b41565b610413565b005b61009860048036038101906100939190610a54565b6108c1565b6040516100a59190610d65565b60405180910390f35b60007f000000000000000000000000000000000000000000000000000000000000000073ffffffffffffffffffffffffffffffffffffffff1663e6a43905857f00000000000000000000000000000000000000000000000000000000000000006040518363ffffffff1660e01b815260040161012b929190610d80565b60206040518083038186803b15801561014357600080fd5b505afa158015610157573d6000803e3d6000fd5b505050506040513d601f19601f8201168201806040525081019061017b9190610a81565b9050600073ffffffffffffffffffffffffffffffffffffffff168173ffffffffffffffffffffffffffffffffffffffff1614156101ed576040517f08c379a00000000000000000000000000000000000000000000000000000000081526004016101e490610ef8565b60405180910390fd5b60008173ffffffffffffffffffffffffffffffffffffffff16630dfe16816040518163ffffffff1660e01b815260040160206040518083038186803b15801561023557600080fd5b505afa158015610249573d6000803e3d6000fd5b505050506040513d601f19601f8201168201806040525081019061026d9190610a81565b905060008273ffffffffffffffffffffffffffffffffffffffff1663d21220a76040518163ffffffff1660e01b815260040160206040518083038186803b1580156102b757600080fd5b505afa1580156102cb573d6000803e3d6000fd5b505050506040513d601f19601f820116820180604052508101906102ef9190610a81565b905060008273ffffffffffffffffffffffffffffffffffffffff168773ffffffffffffffffffffffffffffffffffffffff161461032c578461032f565b60005b905060008273ffffffffffffffffffffffffffffffffffffffff168873ffffffffffffffffffffffffffffffffffffffff161461036c578561036f565b60005b905060008887604051602001610386929190610da9565b60405160208183030381529060405290508573ffffffffffffffffffffffffffffffffffffffff1663022c0d9f84848b856040518563ffffffff1660e01b81526004016103d69493929190610f18565b600060405180830381600087803b1580156103f057600080fd5b505af1158015610404573d6000803e3d6000fd5b50505050505050505050505050565b60003373ffffffffffffffffffffffffffffffffffffffff16630dfe16816040518163ffffffff1660e01b815260040160206040518083038186803b15801561045b57600080fd5b505afa15801561046f573d6000803e3d6000fd5b505050506040513d601f19601f820116820180604052508101906104939190610a81565b905060003373ffffffffffffffffffffffffffffffffffffffff1663d21220a76040518163ffffffff1660e01b815260040160206040518083038186803b1580156104dd57600080fd5b505afa1580156104f1573d6000803e3d6000fd5b505050506040513d601f19601f820116820180604052508101906105159190610a81565b905060007f000000000000000000000000000000000000000000000000000000000000000073ffffffffffffffffffffffffffffffffffffffff1663e6a4390584846040518363ffffffff1660e01b8152600401610574929190610d80565b60206040518083038186803b15801561058c57600080fd5b505afa1580156105a0573d6000803e3d6000fd5b505050506040513d601f19601f820116820180604052508101906105c49190610a81565b90508073ffffffffffffffffffffffffffffffffffffffff163373ffffffffffffffffffffffffffffffffffffffff1614610634576040517f08c379a000000000000000000000000000000000000000000000000000000000815260040161062b90610df2565b60405180910390fd5b3073ffffffffffffffffffffffffffffffffffffffff168873ffffffffffffffffffffffffffffffffffffffff16146106a2576040517f08c379a000000000000000000000000000000000000000000000000000000000815260040161069990610dd2565b60405180910390fd5b60008086868101906106b49190610aae565b91509150600060016103e56003846106cc9190611018565b6106d69190610fe7565b6106e09190610f91565b9050600081836106f09190610f91565b90507fb60e72ccf6d57ab53eb84d7e94a9545806ed7f93c4d5673f11a64f03471e584e836040516107219190610e40565b60405180910390a17fb60e72ccf6d57ab53eb84d7e94a9545806ed7f93c4d5673f11a64f03471e584e8b6040516107589190610eca565b60405180910390a17fb60e72ccf6d57ab53eb84d7e94a9545806ed7f93c4d5673f11a64f03471e584e8a60405161078f9190610e9c565b60405180910390a17fb60e72ccf6d57ab53eb84d7e94a9545806ed7f93c4d5673f11a64f03471e584e826040516107c69190610e6e565b60405180910390a17fb60e72ccf6d57ab53eb84d7e94a9545806ed7f93c4d5673f11a64f03471e584e816040516107fd9190610e12565b60405180910390a17f000000000000000000000000000000000000000000000000000000000000000073ffffffffffffffffffffffffffffffffffffffff1663a9059cbb86836040518363ffffffff1660e01b8152600401610860929190610da9565b602060405180830381600087803b15801561087a57600080fd5b505af115801561088e573d6000803e3d6000fd5b505050506040513d601f19601f820116820180604052508101906108b29190610bc9565b50505050505050505050505050565b60007f000000000000000000000000000000000000000000000000000000000000000073ffffffffffffffffffffffffffffffffffffffff1663e6a43905837f00000000000000000000000000000000000000000000000000000000000000006040518363ffffffff1660e01b815260040161093e929190610d80565b60206040518083038186803b15801561095657600080fd5b505afa15801561096a573d6000803e3d6000fd5b505050506040513d601f19601f8201168201806040525081019061098e9190610a81565b9050919050565b6000813590506109a4816112cf565b92915050565b6000815190506109b9816112cf565b92915050565b6000813590506109ce816112e6565b92915050565b6000815190506109e3816112fd565b92915050565b60008083601f8401126109ff576109fe611162565b5b8235905067ffffffffffffffff811115610a1c57610a1b61115d565b5b602083019150836001820283011115610a3857610a37611167565b5b9250929050565b600081359050610a4e81611314565b92915050565b600060208284031215610a6a57610a69611171565b5b6000610a7884828501610995565b91505092915050565b600060208284031215610a9757610a96611171565b5b6000610aa5848285016109aa565b91505092915050565b60008060408385031215610ac557610ac4611171565b5b6000610ad3858286016109bf565b9250506020610ae485828601610a3f565b9150509250929050565b600080600060608486031215610b0757610b06611171565b5b6000610b1586828701610995565b9350506020610b2686828701610995565b9250506040610b3786828701610a3f565b9150509250925092565b600080600080600060808688031215610b5d57610b5c611171565b5b6000610b6b88828901610995565b9550506020610b7c88828901610a3f565b9450506040610b8d88828901610a3f565b935050606086013567ffffffffffffffff811115610bae57610bad61116c565b5b610bba888289016109e9565b92509250509295509295909350565b600060208284031215610bdf57610bde611171565b5b6000610bed848285016109d4565b91505092915050565b610bff81611072565b82525050565b6000610c1082610f64565b610c1a8185610f6f565b9350610c2a8185602086016110cc565b610c3381611176565b840191505092915050565b6000610c4b600a83610f80565b9150610c5682611187565b602082019050919050565b6000610c6e601683610f80565b9150610c79826111b0565b602082019050919050565b6000610c91600c83610f80565b9150610c9c826111d9565b602082019050919050565b6000610cb4600683610f80565b9150610cbf82611202565b602082019050919050565b6000610cd7600383610f80565b9150610ce28261122b565b602082019050919050565b6000610cfa600783610f80565b9150610d0582611254565b602082019050919050565b6000610d1d600783610f80565b9150610d288261127d565b602082019050919050565b6000610d40601083610f80565b9150610d4b826112a6565b602082019050919050565b610d5f816110c2565b82525050565b6000602082019050610d7a6000830184610bf6565b92915050565b6000604082019050610d956000830185610bf6565b610da26020830184610bf6565b9392505050565b6000604082019050610dbe6000830185610bf6565b610dcb6020830184610d56565b9392505050565b60006020820190508181036000830152610deb81610c3e565b9050919050565b60006020820190508181036000830152610e0b81610c61565b9050919050565b60006040820190508181036000830152610e2b81610c84565b9050610e3a6020830184610d56565b92915050565b60006040820190508181036000830152610e5981610ca7565b9050610e686020830184610d56565b92915050565b60006040820190508181036000830152610e8781610cca565b9050610e966020830184610d56565b92915050565b60006040820190508181036000830152610eb581610ced565b9050610ec46020830184610d56565b92915050565b60006040820190508181036000830152610ee381610d10565b9050610ef26020830184610d56565b92915050565b60006020820190508181036000830152610f1181610d33565b9050919050565b6000608082019050610f2d6000830187610d56565b610f3a6020830186610d56565b610f476040830185610bf6565b8181036060830152610f598184610c05565b905095945050505050565b600081519050919050565b600082825260208201905092915050565b600082825260208201905092915050565b6000610f9c826110c2565b9150610fa7836110c2565b9250827fffffffffffffffffffffffffffffffffffffffffffffffffffffffffffffffff03821115610fdc57610fdb6110ff565b5b828201905092915050565b6000610ff2826110c2565b9150610ffd836110c2565b92508261100d5761100c61112e565b5b828204905092915050565b6000611023826110c2565b915061102e836110c2565b9250817fffffffffffffffffffffffffffffffffffffffffffffffffffffffffffffffff0483118215151615611067576110666110ff565b5b828202905092915050565b600061107d826110a2565b9050919050565b600061108f826110a2565b9050919050565b60008115159050919050565b600073ffffffffffffffffffffffffffffffffffffffff82169050919050565b6000819050919050565b60005b838110156110ea5780820151818401526020810190506110cf565b838111156110f9576000848401525b50505050565b7f4e487b7100000000000000000000000000000000000000000000000000000000600052601160045260246000fd5b7f4e487b7100000000000000000000000000000000000000000000000000000000600052601260045260246000fd5b600080fd5b600080fd5b600080fd5b600080fd5b600080fd5b6000601f19601f8301169050919050565b7f4e6f742073656e64727400000000000000000000000000000000000000000000600082015250565b7f4d7367206e6f742073656e742066726f6d207061697200000000000000000000600082015250565b7f526570617920416d6f756e740000000000000000000000000000000000000000600082015250565b7f616d6f756e740000000000000000000000000000000000000000000000000000600082015250565b7f4665650000000000000000000000000000000000000000000000000000000000600082015250565b7f616d6f756e743100000000000000000000000000000000000000000000000000600082015250565b7f616d6f756e743000000000000000000000000000000000000000000000000000600082015250565b7f5061697220646f6e6f7420657869737400000000000000000000000000000000600082015250565b6112d881611072565b81146112e357600080fd5b50565b6112ef81611084565b81146112fa57600080fd5b50565b61130681611096565b811461131157600080fd5b50565b61131d816110c2565b811461132857600080fd5b5056fea2646970667358221220a26e72032362315def7f5e9ff1821038032b29fe07833e258b33a0058ff003e864736f6c63430008070033",
  "immutableReferences": {
    "1542": [
      {
        "length": 32,
        "start": 239
      },
      {
        "length": 32,
        "start": 2055
      },
      {
        "length": 32,
        "start": 2306
      }
    ],
    "1544": [
      {
        "length": 32,
        "start": 178
      },
      {
        "length": 32,
        "start": 1307
      },
      {
        "length": 32,
        "start": 2245
      }
    ]
  },
  "source": "// SPDX-License-Identifier: MIT\n// OpenZeppelin Contracts v4.3.2 (token/ERC20/ERC20.sol)\npragma solidity  >=0.4.22 <0.9.0;\n\n/**\n * @dev Interface of the ERC20 standard as defined in the EIP.\n */\ninterface IERC20 {\n    /**\n     * @dev Returns the amount of tokens in existence.\n     */\n    function totalSupply() external view returns (uint256);\n\n    /**\n     * @dev Returns the amount of tokens owned by `account`.\n     */\n    function balanceOf(address account) external view returns (uint256);\n\n    /**\n     * @dev Moves `amount` tokens from the caller's account to `recipient`.\n     *\n     * Returns a boolean value indicating whether the operation succeeded.\n     *\n     * Emits a {Transfer} event.\n     */\n    function transfer(address recipient, uint256 amount) external returns (bool);\n\n    /**\n     * @dev Returns the remaining number of tokens that `spender` will be\n     * allowed to spend on behalf of `owner` through {transferFrom}. This is\n     * zero by default.\n     *\n     * This value changes when {approve} or {transferFrom} are called.\n     */\n    function allowance(address owner, address spender) external view returns (uint256);\n\n    /**\n     * @dev Sets `amount` as the allowance of `spender` over the caller's tokens.\n     *\n     * Returns a boolean value indicating whether the operation succeeded.\n     *\n     * IMPORTANT: Beware that changing an allowance with this method brings the risk\n     * that someone may use both the old and the new allowance by unfortunate\n     * transaction ordering. One possible solution to mitigate this race\n     * condition is to first reduce the spender's allowance to 0 and set the\n     * desired value afterwards:\n     * https://github.com/ethereum/EIPs/issues/20#issuecomment-263524729\n     *\n     * Emits an {Approval} event.\n     */\n    function approve(address spender, uint256 amount) external returns (bool);\n\n    /**\n     * @dev Moves `amount` tokens from `sender` to `recipient` using the\n     * allowance mechanism. `amount` is then deducted from the caller's\n     * allowance.\n     *\n     * Returns a boolean value indicating whether the operation succeeded.\n     *\n     * Emits a {Transfer} event.\n     */\n    function transferFrom(\n        address sender,\n        address recipient,\n        uint256 amount\n    ) external returns (bool);\n\n    /**\n     * @dev Emitted when `value` tokens are moved from one account (`from`) to\n     * another (`to`).\n     *\n     * Note that `value` may be zero.\n     */\n    event Transfer(address indexed from, address indexed to, uint256 value);\n\n    /**\n     * @dev Emitted when the allowance of a `spender` for an `owner` is set by\n     * a call to {approve}. `value` is the new allowance.\n     */\n    event Approval(address indexed owner, address indexed spender, uint256 value);\n}\n\ninterface IPancakeFactory {\n    event PairCreated(address indexed token0, address indexed token1, address pair, uint);\n\n    function feeTo() external view returns (address);\n    function feeToSetter() external view returns (address);\n\n    function getPair(address tokenA, address tokenB) external view returns (address pair);\n    function allPairs(uint) external view returns (address pair);\n    function allPairsLength() external view returns (uint);\n\n    function createPair(address tokenA, address tokenB) external returns (address pair);\n\n    function setFeeTo(address) external;\n    function setFeeToSetter(address) external;\n}\ninterface IPancakeCallee {\n    function pancakeCall(\n        address sender,\n        uint amount0,\n        uint amount1,\n        bytes calldata data\n    ) external;\n}\ninterface IPancakePair {\n    event Approval(address indexed owner, address indexed spender, uint value);\n    event Transfer(address indexed from, address indexed to, uint value);\n\n    function name() external pure returns (string memory);\n    function symbol() external pure returns (string memory);\n    function decimals() external pure returns (uint8);\n    function totalSupply() external view returns (uint);\n    function balanceOf(address owner) external view returns (uint);\n    function allowance(address owner, address spender) external view returns (uint);\n\n    function approve(address spender, uint value) external returns (bool);\n    function transfer(address to, uint value) external returns (bool);\n    function transferFrom(address from, address to, uint value) external returns (bool);\n\n    function DOMAIN_SEPARATOR() external view returns (bytes32);\n    function PERMIT_TYPEHASH() external pure returns (bytes32);\n    function nonces(address owner) external view returns (uint);\n\n    function permit(address owner, address spender, uint value, uint deadline, uint8 v, bytes32 r, bytes32 s) external;\n\n    event Mint(address indexed sender, uint amount0, uint amount1);\n    event Burn(address indexed sender, uint amount0, uint amount1, address indexed to);\n    event Swap(\n        address indexed sender,\n        uint amount0In,\n        uint amount1In,\n        uint amount0Out,\n        uint amount1Out,\n        address indexed to\n    );\n    event Sync(uint112 reserve0, uint112 reserve1);\n\n    function MINIMUM_LIQUIDITY() external pure returns (uint);\n    function factory() external view returns (address);\n    function token0() external view returns (address);\n    function token1() external view returns (address);\n    function getReserves() external view returns (uint112 reserve0, uint112 reserve1, uint32 blockTimestampLast);\n    function price0CumulativeLast() external view returns (uint);\n    function price1CumulativeLast() external view returns (uint);\n    function kLast() external view returns (uint);\n\n    function mint(address to) external returns (uint liquidity);\n    function burn(address to) external returns (uint amount0, uint amount1);\n    function swap(uint amount0Out, uint amount1Out, address to, bytes calldata data) external;\n    function skim(address to) external;\n    function sync() external;\n\n    function initialize(address, address) external;\n}\ncontract Flashswap is IPancakeCallee {\n    address private immutable  WETH;\n    address private immutable UNISWAP_FACTORY;\n\n    event log(string message,  uint val);\n\n    constructor (address WETH_,address UNISWAP_FACTORY_) {\n        WETH = WETH_;\n        UNISWAP_FACTORY = UNISWAP_FACTORY_;\n    }\n    function getTokenPair(address _tokenBorrow) external view returns(address) {\n        return IPancakeFactory(UNISWAP_FACTORY).getPair(_tokenBorrow,WETH);\n    }\n    function initFlashloan(address _tokenBorrow,address to, uint amount) external{\n        address pair = IPancakeFactory(UNISWAP_FACTORY).getPair(_tokenBorrow,WETH);\n        require(pair!= address(0),'Pair donot exist');\n        address token0 = IPancakePair(pair).token0();\n        address token1 = IPancakePair(pair).token1();\n        uint amount0Out = _tokenBorrow == token0 ? 0:amount; //: 0;\n        uint amount1Out = _tokenBorrow == token1 ? 0:amount; //: 0;\n\n        bytes memory data = abi.encode(_tokenBorrow,amount);\n\n        IPancakePair(pair).swap(amount0Out, amount1Out,to,data);\n    }\n\n    function pancakeCall(address _sender,uint _amount0,uint _amount1, bytes calldata _data) external override {\n        address token0 = IPancakePair(msg.sender).token0();\n        address token1 = IPancakePair(msg.sender).token1();\n        address pair = IPancakeFactory(UNISWAP_FACTORY).getPair(token0,token1);\n\n        require (msg.sender == pair,'Msg not sent from pair');\n        require(_sender == address(this),'Not sendrt');\n\n        //data sent through abi encode now decodes\n        (address _tokenBorrow, uint amount) = abi.decode(_data,(address, uint));\n\n        //fee for transaction\n        uint fee = ((amount *3)/997) +1;\n        uint rePay = amount + fee;\n\n        // log emit\n        emit log(\"amount\",amount);\n        emit log(\"amount0\",_amount0);\n        emit log(\"amount1\",_amount1);\n        emit log(\"Fee\",fee);\n        emit log(\"Repay Amount\",rePay);\n\n        //IERC20(_tokenBorrow).transfer(pair,rePay);\n        IERC20(WETH).transfer(pair,rePay);\n    }\n}",
  "sourcePath": "/home/vwegba/Documents/Listener2.0/contracts/Flashswap.sol",
  "compiler": {
    "name": "solc",
    "version": "0.8.7+commit.e28d00a7.Emscripten.clang"
  },
  "schemaVersion": "3.4.1",
  "updatedAt": "2022-01-29T18:10:11.680Z",
  "devdoc": {
    "kind": "dev",
    "methods": {},
    "version": 1
  },
  "userdoc": {
    "kind": "user",
    "methods": {},
    "version": 1
  }
}