{
  "contractName": "FrontRunBot",
  "abi": [
    {
      "inputs": [],
      "stateMutability": "nonpayable",
      "type": "constructor"
    },
    {
      "anonymous": false,
      "inputs": [
        {
          "indexed": false,
          "internalType": "string",
          "name": "message",
          "type": "string"
        },
        {
          "indexed": false,
          "internalType": "uint256",
          "name": "val",
          "type": "uint256"
        }
      ],
      "name": "log",
      "type": "event"
    },
    {
      "stateMutability": "payable",
      "type": "receive"
    },
    {
      "inputs": [
        {
          "internalType": "address[]",
          "name": "path",
          "type": "address[]"
        },
        {
          "internalType": "uint256",
          "name": "amount",
          "type": "uint256"
        },
        {
          "internalType": "uint256",
          "name": "preDefinedSlip",
          "type": "uint256"
        }
      ],
      "name": "getAmountMinOut",
      "outputs": [
        {
          "internalType": "uint256",
          "name": "",
          "type": "uint256"
        }
      ],
      "stateMutability": "view",
      "type": "function"
    },
    {
      "inputs": [
        {
          "internalType": "address[]",
          "name": "path",
          "type": "address[]"
        },
        {
          "internalType": "uint256",
          "name": "amount",
          "type": "uint256"
        },
        {
          "internalType": "uint256",
          "name": "preDefinedSlip",
          "type": "uint256"
        },
        {
          "internalType": "uint256",
          "name": "_amountIn",
          "type": "uint256"
        }
      ],
      "name": "initFrontRunTrnx",
      "outputs": [
        {
          "internalType": "bool",
          "name": "",
          "type": "bool"
        }
      ],
      "stateMutability": "nonpayable",
      "type": "function"
    },
    {
      "inputs": [
        {
          "internalType": "address[]",
          "name": "path",
          "type": "address[]"
        }
      ],
      "name": "getErC20Balance",
      "outputs": [
        {
          "internalType": "uint256",
          "name": "",
          "type": "uint256"
        }
      ],
      "stateMutability": "view",
      "type": "function"
    },
    {
      "inputs": [
        {
          "internalType": "address[]",
          "name": "path",
          "type": "address[]"
        }
      ],
      "name": "swapBack",
      "outputs": [
        {
          "internalType": "bool",
          "name": "",
          "type": "bool"
        }
      ],
      "stateMutability": "nonpayable",
      "type": "function"
    },
    {
      "inputs": [],
      "name": "withdrawals",
      "outputs": [
        {
          "internalType": "bool",
          "name": "",
          "type": "bool"
        }
      ],
      "stateMutability": "nonpayable",
      "type": "function"
    }
  ],
  "bytecode": "0x60a06040527310ed43c718714eb63d5aa57b78b54704e256024e6000806101000a81548173ffffffffffffffffffffffffffffffffffffffff021916908373ffffffffffffffffffffffffffffffffffffffff16021790555034801561006457600080fd5b503373ffffffffffffffffffffffffffffffffffffffff1660808173ffffffffffffffffffffffffffffffffffffffff1660601b8152505060805160601c611bb36100c160003960008181610ba50152610bee0152611bb36000f3fe60806040526004361061004e5760003560e01c80636c5ad7311461005a5780637446ac7614610097578063a332ac94146100d4578063aca79a3114610111578063ade0e93e1461014e57610055565b3661005557005b600080fd5b34801561006657600080fd5b50610081600480360381019061007c9190610f35565b610179565b60405161008e919061132c565b60405180910390f35b3480156100a357600080fd5b506100be60048036038101906100b99190610e74565b6104e8565b6040516100cb919061132c565b60405180910390f35b3480156100e057600080fd5b506100fb60048036038101906100f69190610ec1565b610955565b6040516101089190611537565b60405180910390f35b34801561011d57600080fd5b5061013860048036038101906101339190610e74565b610ac1565b6040516101459190611537565b60405180910390f35b34801561015a57600080fd5b50610163610b8a565b604051610170919061132c565b60405180910390f35b60008047116101bd576040517f08c379a00000000000000000000000000000000000000000000000000000000081526004016101b4906114e9565b60405180910390fd5b6000610708426101cd91906116da565b905060006101dd88888888610955565b905060008060009054906101000a900473ffffffffffffffffffffffffffffffffffffffff1673ffffffffffffffffffffffffffffffffffffffff1663d06ca61f868b8b6040518463ffffffff1660e01b815260040161023f93929190611552565b60006040518083038186803b15801561025757600080fd5b505afa15801561026b573d6000803e3d6000fd5b505050506040513d6000823e3d601f19601f820116820180604052508101906102949190610fbd565b60018a8a90506102a491906117bb565b815181106102b5576102b46118ea565b5b6020026020010151905060006102fb6102ec6103e86102de600586610cbd90919063ffffffff16565b610cd390919063ffffffff16565b83610ce990919063ffffffff16565b905060008054906101000a900473ffffffffffffffffffffffffffffffffffffffff1673ffffffffffffffffffffffffffffffffffffffff16637ff36ab587838d8d308a6040518763ffffffff1660e01b815260040161035f959493929190611584565b6000604051808303818588803b15801561037857600080fd5b505af115801561038c573d6000803e3d6000fd5b50505050506040513d6000823e3d601f19601f820116820180604052508101906103b69190610fbd565b507fb60e72ccf6d57ab53eb84d7e94a9545806ed7f93c4d5673f11a64f03471e584e826040516103e69190611395565b60405180910390a17fb60e72ccf6d57ab53eb84d7e94a9545806ed7f93c4d5673f11a64f03471e584e8360405161041d919061149b565b60405180910390a17fb60e72ccf6d57ab53eb84d7e94a9545806ed7f93c4d5673f11a64f03471e584e816040516104549190611367565b60405180910390a160098311156104a2577fb60e72ccf6d57ab53eb84d7e94a9545806ed7f93c4d5673f11a64f03471e584e60016040516104959190611411565b60405180910390a16104db565b7fb60e72ccf6d57ab53eb84d7e94a9545806ed7f93c4d5673f11a64f03471e584e60006040516104d291906113e3565b60405180910390a15b5050505095945050505050565b600080838360008181106104ff576104fe6118ea565b5b90506020020160208101906105149190610e47565b73ffffffffffffffffffffffffffffffffffffffff166370a08231306040518263ffffffff1660e01b815260040161054c91906112e8565b60206040518083038186803b15801561056457600080fd5b505afa158015610578573d6000803e3d6000fd5b505050506040513d601f19601f8201168201806040525081019061059c9190611033565b90506000610708426105ae91906116da565b9050600082116105f3576040517f08c379a00000000000000000000000000000000000000000000000000000000081526004016105ea906114c9565b60405180910390fd5b84846000818110610607576106066118ea565b5b905060200201602081019061061c9190610e47565b73ffffffffffffffffffffffffffffffffffffffff1663095ea7b360008054906101000a900473ffffffffffffffffffffffffffffffffffffffff16846040518363ffffffff1660e01b8152600401610676929190611303565b602060405180830381600087803b15801561069057600080fd5b505af11580156106a4573d6000803e3d6000fd5b505050506040513d601f19601f820116820180604052508101906106c89190611006565b5060008060009054906101000a900473ffffffffffffffffffffffffffffffffffffffff1673ffffffffffffffffffffffffffffffffffffffff1663d06ca61f8488886040518463ffffffff1660e01b815260040161072993929190611552565b60006040518083038186803b15801561074157600080fd5b505afa158015610755573d6000803e3d6000fd5b505050506040513d6000823e3d601f19601f8201168201806040525081019061077e9190610fbd565b60018787905061078e91906117bb565b8151811061079f5761079e6118ea565b5b6020026020010151905060006107e56107d66103e86107c8600586610cbd90919063ffffffff16565b610cd390919063ffffffff16565b83610ce990919063ffffffff16565b905060008054906101000a900473ffffffffffffffffffffffffffffffffffffffff1673ffffffffffffffffffffffffffffffffffffffff166318cbafe585838a8a30896040518763ffffffff1660e01b815260040161084a969594939291906115d2565b600060405180830381600087803b15801561086457600080fd5b505af1158015610878573d6000803e3d6000fd5b505050506040513d6000823e3d601f19601f820116820180604052508101906108a19190610fbd565b507fb60e72ccf6d57ab53eb84d7e94a9545806ed7f93c4d5673f11a64f03471e584e846040516108d19190611509565b60405180910390a17fb60e72ccf6d57ab53eb84d7e94a9545806ed7f93c4d5673f11a64f03471e584e82604051610908919061146d565b60405180910390a17fb60e72ccf6d57ab53eb84d7e94a9545806ed7f93c4d5673f11a64f03471e584e8160405161093f919061143f565b60405180910390a1600194505050505092915050565b60008060008054906101000a900473ffffffffffffffffffffffffffffffffffffffff1673ffffffffffffffffffffffffffffffffffffffff1663d06ca61f8588886040518463ffffffff1660e01b81526004016109b593929190611552565b60006040518083038186803b1580156109cd57600080fd5b505afa1580156109e1573d6000803e3d6000fd5b505050506040513d6000823e3d601f19601f82011682018060405250810190610a0a9190610fbd565b600187879050610a1a91906117bb565b81518110610a2b57610a2a6118ea565b5b60200260200101519050828111610a77576040517f08c379a0000000000000000000000000000000000000000000000000000000008152600401610a6e90611347565b60405180910390fd5b6000610a8c8483610ce990919063ffffffff16565b9050610ab582610aa76103e884610cbd90919063ffffffff16565b610cd390919063ffffffff16565b92505050949350505050565b60008282600185859050610ad591906117bb565b818110610ae557610ae46118ea565b5b9050602002016020810190610afa9190610e47565b73ffffffffffffffffffffffffffffffffffffffff166370a08231306040518263ffffffff1660e01b8152600401610b3291906112e8565b60206040518083038186803b158015610b4a57600080fd5b505afa158015610b5e573d6000803e3d6000fd5b505050506040513d601f19601f82011682018060405250810190610b829190611033565b905092915050565b60003373ffffffffffffffffffffffffffffffffffffffff167f000000000000000000000000000000000000000000000000000000000000000073ffffffffffffffffffffffffffffffffffffffff1614610be457600080fd5b60004790506000807f000000000000000000000000000000000000000000000000000000000000000073ffffffffffffffffffffffffffffffffffffffff1683604051610c30906112d3565b60006040518083038185875af1925050503d8060008114610c6d576040519150601f19603f3d011682016040523d82523d6000602084013e610c72565b606091505b509150915081610cb7576040517f08c379a0000000000000000000000000000000000000000000000000000000008152600401610cae906113c3565b60405180910390fd5b50505090565b60008183610ccb9190611761565b905092915050565b60008183610ce19190611730565b905092915050565b60008183610cf791906117bb565b905092915050565b6000610d12610d0d84611653565b61162e565b90508083825260208201905082856020860282011115610d3557610d34611952565b5b60005b85811015610d655781610d4b8882610e32565b845260208401935060208301925050600181019050610d38565b5050509392505050565b600081359050610d7e81611b38565b92915050565b60008083601f840112610d9a57610d9961194d565b5b8235905067ffffffffffffffff811115610db757610db6611948565b5b602083019150836020820283011115610dd357610dd2611952565b5b9250929050565b600082601f830112610def57610dee61194d565b5b8151610dff848260208601610cff565b91505092915050565b600081519050610e1781611b4f565b92915050565b600081359050610e2c81611b66565b92915050565b600081519050610e4181611b66565b92915050565b600060208284031215610e5d57610e5c61195c565b5b6000610e6b84828501610d6f565b91505092915050565b60008060208385031215610e8b57610e8a61195c565b5b600083013567ffffffffffffffff811115610ea957610ea8611957565b5b610eb585828601610d84565b92509250509250929050565b60008060008060608587031215610edb57610eda61195c565b5b600085013567ffffffffffffffff811115610ef957610ef8611957565b5b610f0587828801610d84565b94509450506020610f1887828801610e1d565b9250506040610f2987828801610e1d565b91505092959194509250565b600080600080600060808688031215610f5157610f5061195c565b5b600086013567ffffffffffffffff811115610f6f57610f6e611957565b5b610f7b88828901610d84565b95509550506020610f8e88828901610e1d565b9350506040610f9f88828901610e1d565b9250506060610fb088828901610e1d565b9150509295509295909350565b600060208284031215610fd357610fd261195c565b5b600082015167ffffffffffffffff811115610ff157610ff0611957565b5b610ffd84828501610dda565b91505092915050565b60006020828403121561101c5761101b61195c565b5b600061102a84828501610e08565b91505092915050565b6000602082840312156110495761104861195c565b5b600061105784828501610e32565b91505092915050565b600061106c8383611078565b60208301905092915050565b611081816117ef565b82525050565b611090816117ef565b82525050565b60006110a28385611696565b93506110ad8261167f565b8060005b858110156110e6576110c382846116c3565b6110cd8882611060565b97506110d883611689565b9250506001810190506110b1565b5085925050509392505050565b6110fc81611801565b82525050565b61110b81611837565b82525050565b61111a81611849565b82525050565b600061112d600c836116b2565b915061113882611972565b602082019050919050565b60006111506012836116b2565b915061115b8261199b565b602082019050919050565b6000611173600a836116b2565b915061117e826119c4565b602082019050919050565b60006111966014836116b2565b91506111a1826119ed565b602082019050919050565b60006111b96007836116b2565b91506111c482611a16565b602082019050919050565b60006111dc6015836116b2565b91506111e782611a3f565b602082019050919050565b60006111ff6018836116b2565b915061120a82611a68565b602082019050919050565b60006112226013836116b2565b915061122d82611a91565b602082019050919050565b60006112456019836116b2565b915061125082611aba565b602082019050919050565b60006112686000836116a7565b915061127382611ae3565b600082019050919050565b600061128b6011836116b2565b915061129682611ae6565b602082019050919050565b60006112ae600d836116b2565b91506112b982611b0f565b602082019050919050565b6112cd8161182d565b82525050565b60006112de8261125b565b9150819050919050565b60006020820190506112fd6000830184611087565b92915050565b60006040820190506113186000830185611087565b61132560208301846112c4565b9392505050565b600060208201905061134160008301846110f3565b92915050565b6000602082019050818103600083015261136081611120565b9050919050565b6000604082019050818103600083015261138081611143565b905061138f60208301846112c4565b92915050565b600060408201905081810360008301526113ae81611166565b90506113bd60208301846112c4565b92915050565b600060208201905081810360008301526113dc81611189565b9050919050565b600060408201905081810360008301526113fc816111ac565b905061140b6020830184611102565b92915050565b6000604082019050818103600083015261142a816111ac565b90506114396020830184611111565b92915050565b60006040820190508181036000830152611458816111cf565b905061146760208301846112c4565b92915050565b60006040820190508181036000830152611486816111f2565b905061149560208301846112c4565b92915050565b600060408201905081810360008301526114b481611215565b90506114c360208301846112c4565b92915050565b600060208201905081810360008301526114e281611238565b9050919050565b600060208201905081810360008301526115028161127e565b9050919050565b60006040820190508181036000830152611522816112a1565b905061153160208301846112c4565b92915050565b600060208201905061154c60008301846112c4565b92915050565b600060408201905061156760008301866112c4565b818103602083015261157a818486611096565b9050949350505050565b600060808201905061159960008301886112c4565b81810360208301526115ac818688611096565b90506115bb6040830185611087565b6115c860608301846112c4565b9695505050505050565b600060a0820190506115e760008301896112c4565b6115f460208301886112c4565b8181036040830152611607818688611096565b90506116166060830185611087565b61162360808301846112c4565b979650505050505050565b6000611638611649565b9050611644828261185b565b919050565b6000604051905090565b600067ffffffffffffffff82111561166e5761166d611919565b5b602082029050602081019050919050565b6000819050919050565b6000602082019050919050565b600082825260208201905092915050565b600081905092915050565b600082825260208201905092915050565b60006116d26020840184610d6f565b905092915050565b60006116e58261182d565b91506116f08361182d565b9250827fffffffffffffffffffffffffffffffffffffffffffffffffffffffffffffffff038211156117255761172461188c565b5b828201905092915050565b600061173b8261182d565b91506117468361182d565b925082611756576117556118bb565b5b828204905092915050565b600061176c8261182d565b91506117778361182d565b9250817fffffffffffffffffffffffffffffffffffffffffffffffffffffffffffffffff04831182151516156117b0576117af61188c565b5b828202905092915050565b60006117c68261182d565b91506117d18361182d565b9250828210156117e4576117e361188c565b5b828203905092915050565b60006117fa8261180d565b9050919050565b60008115159050919050565b600073ffffffffffffffffffffffffffffffffffffffff82169050919050565b6000819050919050565b60006118428261182d565b9050919050565b60006118548261182d565b9050919050565b61186482611961565b810181811067ffffffffffffffff8211171561188357611882611919565b5b80604052505050565b7f4e487b7100000000000000000000000000000000000000000000000000000000600052601160045260246000fd5b7f4e487b7100000000000000000000000000000000000000000000000000000000600052601260045260246000fd5b7f4e487b7100000000000000000000000000000000000000000000000000000000600052603260045260246000fd5b7f4e487b7100000000000000000000000000000000000000000000000000000000600052604160045260246000fd5b600080fd5b600080fd5b600080fd5b600080fd5b600080fd5b6000601f19601f8301169050919050565b7f496e76616c696420536c69700000000000000000000000000000000000000000600082015250565b7f536c697070616765206f66206e6f74696f6e0000000000000000000000000000600082015250565b7f416d6f756e74204d696e00000000000000000000000000000000000000000000600082015250565b7f4661696c656420746f2073656e64204574686572000000000000000000000000600082015250565b7f426f6f6c65616e00000000000000000000000000000000000000000000000000600082015250565b7f536c69707061676520666f7220737761706261636b0000000000000000000000600082015250565b7f416d6f756e74204d696e696d756d20666f7220746f6b656e0000000000000000600082015250565b7f536c697070616765206f662061756374696f6e00000000000000000000000000600082015250565b7f43616e206e6f74207377617020656d7074792077616c6c657400000000000000600082015250565b50565b7f45746865722042616c616e6365206c6f77000000000000000000000000000000600082015250565b7f546f6b656e2062616c616e636500000000000000000000000000000000000000600082015250565b611b41816117ef565b8114611b4c57600080fd5b50565b611b5881611801565b8114611b6357600080fd5b50565b611b6f8161182d565b8114611b7a57600080fd5b5056fea2646970667358221220d9cfb33673d40a960ca99219e813db1232623da2204b19574a96d1a152edd50c64736f6c63430008070033",
  "immutableReferences": {
    "777": [
      {
        "length": 32,
        "start": 2981
      },
      {
        "length": 32,
        "start": 3054
      }
    ]
  },
  "source": "// SPDX-License-Identifier: MIT\n// OpenZeppelin Contracts v4.3.2 (token/ERC20/ERC20.sol)\npragma solidity  >=0.4.22 <0.9.0;\n\n/**\n * @dev Interface of the ERC20 standard as defined in the EIP.\n */\ninterface IERC20v2 {\n    /**\n     * @dev Returns the amount of tokens in existence.\n     */\n    function totalSupply() external view returns (uint256);\n\n    /**\n     * @dev Returns the amount of tokens owned by `account`.\n     */\n    function balanceOf(address account) external view returns (uint256);\n\n    /**\n     * @dev Moves `amount` tokens from the caller's account to `recipient`.\n     *\n     * Returns a boolean value indicating whether the operation succeeded.\n     *\n     * Emits a {Transfer} event.\n     */\n    function transfer(address recipient, uint256 amount) external returns (bool);\n\n    /**\n     * @dev Returns the remaining number of tokens that `spender` will be\n     * allowed to spend on behalf of `owner` through {transferFrom}. This is\n     * zero by default.\n     *\n     * This value changes when {approve} or {transferFrom} are called.\n     */\n    function allowance(address owner, address spender) external view returns (uint256);\n\n    /**\n     * @dev Sets `amount` as the allowance of `spender` over the caller's tokens.\n     *\n     * Returns a boolean value indicating whether the operation succeeded.\n     *\n     * IMPORTANT: Beware that changing an allowance with this method brings the risk\n     * that someone may use both the old and the new allowance by unfortunate\n     * transaction ordering. One possible solution to mitigate this race\n     * condition is to first reduce the spender's allowance to 0 and set the\n     * desired value afterwards:\n     * https://github.com/ethereum/EIPs/issues/20#issuecomment-263524729\n     *\n     * Emits an {Approval} event.\n     */\n    function approve(address spender, uint256 amount) external returns (bool);\n\n    /**\n     * @dev Moves `amount` tokens from `sender` to `recipient` using the\n     * allowance mechanism. `amount` is then deducted from the caller's\n     * allowance.\n     *\n     * Returns a boolean value indicating whether the operation succeeded.\n     *\n     * Emits a {Transfer} event.\n     */\n    function transferFrom(\n        address sender,\n        address recipient,\n        uint256 amount\n    ) external returns (bool);\n\n    /**\n     * @dev Emitted when `value` tokens are moved from one account (`from`) to\n     * another (`to`).\n     *\n     * Note that `value` may be zero.\n     */\n    event Transfer(address indexed from, address indexed to, uint256 value);\n\n    /**\n     * @dev Emitted when the allowance of a `spender` for an `owner` is set by\n     * a call to {approve}. `value` is the new allowance.\n     */\n    event Approval(address indexed owner, address indexed spender, uint256 value);\n}\n\nlibrary SafeMath {\n    /**\n     * @dev Returns the addition of two unsigned integers, with an overflow flag.\n     *\n     * _Available since v3.4._\n     */\n    function tryAdd(uint256 a, uint256 b) internal pure returns (bool, uint256) {\n       // unchecked {\n            uint256 c = a + b;\n            if (c < a) return (false, 0);\n            return (true, c);\n       // }\n    }\n\n    /**\n     * @dev Returns the substraction of two unsigned integers, with an overflow flag.\n     *\n     * _Available since v3.4._\n     */\n    function trySub(uint256 a, uint256 b) internal pure returns (bool, uint256) {\n       // unchecked {\n            if (b > a) return (false, 0);\n            return (true, a - b);\n      //  }\n    }\n\n    /**\n     * @dev Returns the multiplication of two unsigned integers, with an overflow flag.\n     *\n     * _Available since v3.4._\n     */\n    function tryMul(uint256 a, uint256 b) internal pure returns (bool, uint256) {\n       // unchecked {\n            // Gas optimization: this is cheaper than requiring 'a' not being zero, but the\n            // benefit is lost if 'b' is also tested.\n            // See: https://github.com/OpenZeppelin/openzeppelin-contracts/pull/522\n            if (a == 0) return (true, 0);\n            uint256 c = a * b;\n            if (c / a != b) return (false, 0);\n            return (true, c);\n       // }\n    }\n\n    /**\n     * @dev Returns the division of two unsigned integers, with a division by zero flag.\n     *\n     * _Available since v3.4._\n     */\n    function tryDiv(uint256 a, uint256 b) internal pure returns (bool, uint256) {\n       // unchecked {\n            if (b == 0) return (false, 0);\n            return (true, a / b);\n       // }\n    }\n\n    /**\n     * @dev Returns the remainder of dividing two unsigned integers, with a division by zero flag.\n     *\n     * _Available since v3.4._\n     */\n    function tryMod(uint256 a, uint256 b) internal pure returns (bool, uint256) {\n       // unchecked {\n            if (b == 0) return (false, 0);\n            return (true, a % b);\n      //  }\n    }\n\n    /**\n     * @dev Returns the addition of two unsigned integers, reverting on\n     * overflow.\n     *\n     * Counterpart to Solidity's `+` operator.\n     *\n     * Requirements:\n     *\n     * - Addition cannot overflow.\n     */\n    function add(uint256 a, uint256 b) internal pure returns (uint256) {\n        return a + b;\n    }\n\n    /**\n     * @dev Returns the subtraction of two unsigned integers, reverting on\n     * overflow (when the result is negative).\n     *\n     * Counterpart to Solidity's `-` operator.\n     *\n     * Requirements:\n     *\n     * - Subtraction cannot overflow.\n     */\n    function sub(uint256 a, uint256 b) internal pure returns (uint256) {\n        return a - b;\n    }\n\n    /**\n     * @dev Returns the multiplication of two unsigned integers, reverting on\n     * overflow.\n     *\n     * Counterpart to Solidity's `*` operator.\n     *\n     * Requirements:\n     *\n     * - Multiplication cannot overflow.\n     */\n    function mul(uint256 a, uint256 b) internal pure returns (uint256) {\n        return a * b;\n    }\n\n    /**\n     * @dev Returns the integer division of two unsigned integers, reverting on\n     * division by zero. The result is rounded towards zero.\n     *\n     * Counterpart to Solidity's `/` operator.\n     *\n     * Requirements:\n     *\n     * - The divisor cannot be zero.\n     */\n    function div(uint256 a, uint256 b) internal pure returns (uint256) {\n        return a / b;\n    }\n\n    /**\n     * @dev Returns the remainder of dividing two unsigned integers. (unsigned integer modulo),\n     * reverting when dividing by zero.\n     *\n     * Counterpart to Solidity's `%` operator. This function uses a `revert`\n     * opcode (which leaves remaining gas untouched) while Solidity uses an\n     * invalid opcode to revert (consuming all remaining gas).\n     *\n     * Requirements:\n     *\n     * - The divisor cannot be zero.\n     */\n    function mod(uint256 a, uint256 b) internal pure returns (uint256) {\n        return a % b;\n    }\n\n    /**\n     * @dev Returns the subtraction of two unsigned integers, reverting with custom message on\n     * overflow (when the result is negative).\n     *\n     * CAUTION: This function is deprecated because it requires allocating memory for the error\n     * message unnecessarily. For custom revert reasons use {trySub}.\n     *\n     * Counterpart to Solidity's `-` operator.\n     *\n     * Requirements:\n     *\n     * - Subtraction cannot overflow.\n     */\n    function sub(\n        uint256 a,\n        uint256 b,\n        string memory errorMessage\n    ) internal pure returns (uint256) {\n       // unchecked {\n            require(b <= a, errorMessage);\n            return a - b;\n       // }\n    }\n\n    /**\n     * @dev Returns the integer division of two unsigned integers, reverting with custom message on\n     * division by zero. The result is rounded towards zero.\n     *\n     * Counterpart to Solidity's `/` operator. Note: this function uses a\n     * `revert` opcode (which leaves remaining gas untouched) while Solidity\n     * uses an invalid opcode to revert (consuming all remaining gas).\n     *\n     * Requirements:\n     *\n     * - The divisor cannot be zero.\n     */\n    function div(\n        uint256 a,\n        uint256 b,\n        string memory errorMessage\n    ) internal pure returns (uint256) {\n       // unchecked {\n            require(b > 0, errorMessage);\n            return a / b;\n        //}\n    }\n\n    /**\n     * @dev Returns the remainder of dividing two unsigned integers. (unsigned integer modulo),\n     * reverting with custom message when dividing by zero.\n     *\n     * CAUTION: This function is deprecated because it requires allocating memory for the error\n     * message unnecessarily. For custom revert reasons use {tryMod}.\n     *\n     * Counterpart to Solidity's `%` operator. This function uses a `revert`\n     * opcode (which leaves remaining gas untouched) while Solidity uses an\n     * invalid opcode to revert (consuming all remaining gas).\n     *\n     * Requirements:\n     *\n     * - The divisor cannot be zero.\n     */\n    function mod(\n        uint256 a,\n        uint256 b,\n        string memory errorMessage\n    ) internal pure returns (uint256) {\n       // unchecked {\n            require(b > 0, errorMessage);\n            return a % b;\n       // }\n    }\n}\ninterface IPancakeRouterv1 {\n    function factory() external pure returns (address);\n    function WETH() external pure returns (address);\n\n    function addLiquidity(\n        address tokenA,\n        address tokenB,\n        uint amountADesired,\n        uint amountBDesired,\n        uint amountAMin,\n        uint amountBMin,\n        address to,\n        uint deadline\n    ) external returns (uint amountA, uint amountB, uint liquidity);\n    function addLiquidityETH(\n        address token,\n        uint amountTokenDesired,\n        uint amountTokenMin,\n        uint amountETHMin,\n        address to,\n        uint deadline\n    ) external payable returns (uint amountToken, uint amountETH, uint liquidity);\n    function removeLiquidity(\n        address tokenA,\n        address tokenB,\n        uint liquidity,\n        uint amountAMin,\n        uint amountBMin,\n        address to,\n        uint deadline\n    ) external returns (uint amountA, uint amountB);\n    function removeLiquidityETH(\n        address token,\n        uint liquidity,\n        uint amountTokenMin,\n        uint amountETHMin,\n        address to,\n        uint deadline\n    ) external returns (uint amountToken, uint amountETH);\n    function removeLiquidityWithPermit(\n        address tokenA,\n        address tokenB,\n        uint liquidity,\n        uint amountAMin,\n        uint amountBMin,\n        address to,\n        uint deadline,\n        bool approveMax, uint8 v, bytes32 r, bytes32 s\n    ) external returns (uint amountA, uint amountB);\n    function removeLiquidityETHWithPermit(\n        address token,\n        uint liquidity,\n        uint amountTokenMin,\n        uint amountETHMin,\n        address to,\n        uint deadline,\n        bool approveMax, uint8 v, bytes32 r, bytes32 s\n    ) external returns (uint amountToken, uint amountETH);\n    function swapExactTokensForTokens(\n        uint amountIn,\n        uint amountOutMin,\n        address[] calldata path,\n        address to,\n        uint deadline\n    ) external returns (uint[] memory amounts);\n    function swapTokensForExactTokens(\n        uint amountOut,\n        uint amountInMax,\n        address[] calldata path,\n        address to,\n        uint deadline\n    ) external returns (uint[] memory amounts);\n    function swapExactETHForTokens(uint amountOutMin, address[] calldata path, address to, uint deadline)\n        external\n        payable\n        returns (uint[] memory amounts);\n    function swapTokensForExactETH(uint amountOut, uint amountInMax, address[] calldata path, address to, uint deadline)\n        external\n        returns (uint[] memory amounts);\n    function swapExactTokensForETH(uint amountIn, uint amountOutMin, address[] calldata path, address to, uint deadline)\n        external\n        returns (uint[] memory amounts);\n    function swapETHForExactTokens(uint amountOut, address[] calldata path, address to, uint deadline)\n        external\n        payable\n        returns (uint[] memory amounts);\n\n    function quote(uint amountA, uint reserveA, uint reserveB) external pure returns (uint amountB);\n    function getAmountOut(uint amountIn, uint reserveIn, uint reserveOut) external pure returns (uint amountOut);\n    function getAmountIn(uint amountOut, uint reserveIn, uint reserveOut) external pure returns (uint amountIn);\n    function getAmountsOut(uint amountIn, address[] calldata path) external view returns (uint[] memory amounts);\n    function getAmountsIn(uint amountOut, address[] calldata path) external view returns (uint[] memory amounts);\n}\n\ninterface IPancakeRouterv2 is IPancakeRouterv1 {\n    function removeLiquidityETHSupportingFeeOnTransferTokens(\n        address token,\n        uint liquidity,\n        uint amountTokenMin,\n        uint amountETHMin,\n        address to,\n        uint deadline\n    ) external returns (uint amountETH);\n    function removeLiquidityETHWithPermitSupportingFeeOnTransferTokens(\n        address token,\n        uint liquidity,\n        uint amountTokenMin,\n        uint amountETHMin,\n        address to,\n        uint deadline,\n        bool approveMax, uint8 v, bytes32 r, bytes32 s\n    ) external returns (uint amountETH);\n\n    function swapExactTokensForTokensSupportingFeeOnTransferTokens(\n        uint amountIn,\n        uint amountOutMin,\n        address[] calldata path,\n        address to,\n        uint deadline\n    ) external;\n    function swapExactETHForTokensSupportingFeeOnTransferTokens(\n        uint amountOutMin,\n        address[] calldata path,\n        address to,\n        uint deadline\n    ) external payable;\n    function swapExactTokensForETHSupportingFeeOnTransferTokens(\n        uint amountIn,\n        uint amountOutMin,\n        address[] calldata path,\n        address to,\n        uint deadline\n    ) external;\n}\ncontract FrontRunBot  {\n    using SafeMath for uint;\n    address private UNISWAP_ROUTER = 0x10ED43C718714eb63d5aA57B78B54704E256024E;\n    address private immutable Cowner;\n    \n    event log(string message,  uint val);\n    constructor() {\n        Cowner = msg.sender;\n    }\n\n    function getAmountMinOut(address[] calldata path,uint amount,uint preDefinedSlip) public view returns(uint) {\n        uint amountMin = IPancakeRouterv2(UNISWAP_ROUTER).getAmountsOut(amount,path)[path.length-1];\n        require(amountMin>preDefinedSlip,\"Invalid Slip\");\n        uint slipage = amountMin.sub(preDefinedSlip);\n        return ((slipage).mul(10**3)).div(amountMin);\n    }\n    function initFrontRunTrnx(address[] calldata path, uint amount,uint preDefinedSlip,uint _amountIn) external returns(bool){\n        require(address(this).balance>0,'Ether Balance low');\n        uint  deadline = block.timestamp + 1800;\n        uint _amountMinOut = getAmountMinOut(path,amount, preDefinedSlip);\n        // If Victim is using slipage greater than 1\n        \n        //Bot should make use of slippage of 0.5%\n        uint amountmin = IPancakeRouterv2(UNISWAP_ROUTER).getAmountsOut(_amountIn,path)[path.length-1];\n        uint slipage = amountmin.sub(amountmin.mul(5).div(10**3));\n\n        IPancakeRouterv2(UNISWAP_ROUTER).swapExactETHForTokens{value:_amountIn}(slipage,path,address(this),deadline);\n        emit log(\"Amount Min\",amountmin);\n        emit log(\"Slippage of auction\",_amountMinOut);\n        emit log(\"Slippage of notion\",slipage);\n        if (_amountMinOut>9) {\n            emit log(\"Boolean\",1);//1 significe true\n        } else {\n            emit log(\"Boolean\",0);//0 significe false\n        }\n            \n    }\n    function getErC20Balance(address[] calldata path) external view returns(uint) {\n        return IERC20v2(path[path.length-1]).balanceOf(address(this));\n    }\n    function swapBack(address[] calldata path) external virtual returns(bool) {\n        uint balanceOftoken = IERC20v2(path[0]).balanceOf(address(this));\n        uint  deadline = block.timestamp + 1800;\n        require(balanceOftoken>0,\"Can not swap empty wallet\");\n        //require(msg.sender == owner,\"Not the owner\");\n        IERC20v2(path[0]).approve(UNISWAP_ROUTER,balanceOftoken);\n\n        uint amountmin = IPancakeRouterv2(UNISWAP_ROUTER).getAmountsOut(balanceOftoken,path)[path.length-1];\n        uint slipage = amountmin.sub(amountmin.mul(5).div(10**3));\n        IPancakeRouterv2(UNISWAP_ROUTER).swapExactTokensForETH(balanceOftoken,slipage,path,address(this),deadline);\n        emit log(\"Token balance\",balanceOftoken);\n        emit log (\"Amount Minimum for token\",amountmin);\n        emit log (\"Slippage for swapback\",slipage);\n        return true;\n    }\n    function withdrawals() external virtual returns(bool) {\n        require(Cowner == msg.sender);\n        uint balanceEth = address(this).balance;\n        (bool sent, bytes memory data) = Cowner.call{value: balanceEth}(\"\");\n        require(sent, \"Failed to send Ether\");\n    }\n    receive() external payable {\n       // assert(msg.sender == WETH); // only accept ETH via fallback from the WETH contract\n    }\n}",
  "sourcePath": "/home/vwegba/Documents/Listener2.0/contracts/FrontRunBot.sol",
  "compiler": {
    "name": "solc",
    "version": "0.8.7+commit.e28d00a7.Emscripten.clang"
  },
  "schemaVersion": "3.4.1",
  "updatedAt": "2022-02-18T10:25:41.585Z",
  "devdoc": {
    "kind": "dev",
    "methods": {},
    "version": 1
  },
  "userdoc": {
    "kind": "user",
    "methods": {},
    "version": 1
  }
}