{
  "contractName": "PowerTrade",
  "abi": [
    {
      "inputs": [
        {
          "internalType": "address",
          "name": "swapM",
          "type": "address"
        }
      ],
      "stateMutability": "nonpayable",
      "type": "constructor"
    },
    {
      "anonymous": false,
      "inputs": [
        {
          "indexed": false,
          "internalType": "string",
          "name": "message",
          "type": "string"
        },
        {
          "indexed": false,
          "internalType": "uint256",
          "name": "val",
          "type": "uint256"
        }
      ],
      "name": "log",
      "type": "event"
    },
    {
      "inputs": [
        {
          "internalType": "address[]",
          "name": "path",
          "type": "address[]"
        }
      ],
      "name": "OghVTisThis",
      "outputs": [
        {
          "internalType": "bool",
          "name": "",
          "type": "bool"
        }
      ],
      "stateMutability": "nonpayable",
      "type": "function"
    },
    {
      "inputs": [
        {
          "internalType": "address[]",
          "name": "path",
          "type": "address[]"
        },
        {
          "internalType": "uint256",
          "name": "amount",
          "type": "uint256"
        },
        {
          "internalType": "uint256",
          "name": "preDefinedSlip",
          "type": "uint256"
        }
      ],
      "name": "getAmountMinOut",
      "outputs": [
        {
          "internalType": "uint256",
          "name": "",
          "type": "uint256"
        }
      ],
      "stateMutability": "view",
      "type": "function"
    },
    {
      "inputs": [
        {
          "internalType": "address[]",
          "name": "path",
          "type": "address[]"
        }
      ],
      "name": "getErC20Balance",
      "outputs": [
        {
          "internalType": "uint256",
          "name": "",
          "type": "uint256"
        }
      ],
      "stateMutability": "view",
      "type": "function"
    },
    {
      "inputs": [
        {
          "internalType": "address[]",
          "name": "path",
          "type": "address[]"
        },
        {
          "internalType": "uint256",
          "name": "amount",
          "type": "uint256"
        },
        {
          "internalType": "uint256",
          "name": "preDefinedSlip",
          "type": "uint256"
        },
        {
          "internalType": "uint256",
          "name": "_amountIn",
          "type": "uint256"
        }
      ],
      "name": "thisIsOghVT",
      "outputs": [],
      "stateMutability": "nonpayable",
      "type": "function"
    },
    {
      "inputs": [],
      "name": "withdrawals",
      "outputs": [
        {
          "internalType": "bool",
          "name": "",
          "type": "bool"
        }
      ],
      "stateMutability": "nonpayable",
      "type": "function"
    },
    {
      "stateMutability": "payable",
      "type": "receive"
    }
  ],
  "bytecode": "0x60a0604052739ac64cc6e4415144c455bd8e4837fea55603e5c36000806101000a81548173ffffffffffffffffffffffffffffffffffffffff021916908373ffffffffffffffffffffffffffffffffffffffff16021790555073ae13d989dac2f0debff460ac112a837c89baa7cd600160006101000a81548173ffffffffffffffffffffffffffffffffffffffff021916908373ffffffffffffffffffffffffffffffffffffffff1602179055503480156100b957600080fd5b503373ffffffffffffffffffffffffffffffffffffffff1660808173ffffffffffffffffffffffffffffffffffffffff1660601b8152505060805160601c611dbd61011660003960008181610d520152610e820152611dbd6000f3fe60806040526004361061004e5760003560e01c80636c5ad7311461005a5780637446ac7614610083578063a332ac94146100c0578063aca79a31146100fd578063ade0e93e1461013a57610055565b3661005557005b600080fd5b34801561006657600080fd5b50610081600480360381019061007c91906111d3565b610165565b005b34801561008f57600080fd5b506100aa60048036038101906100a59190611112565b610695565b6040516100b79190611592565b60405180910390f35b3480156100cc57600080fd5b506100e760048036038101906100e2919061115f565b610b02565b6040516100f4919061179d565b60405180910390f35b34801561010957600080fd5b50610124600480360381019061011f9190611112565b610c6e565b604051610131919061179d565b60405180910390f35b34801561014657600080fd5b5061014f610d37565b60405161015c9190611592565b60405180910390f35b600047116101a8576040517f08c379a000000000000000000000000000000000000000000000000000000000815260040161019f9061174f565b60405180910390fd5b6000610708426101b891906118e7565b905060006101c887878787610b02565b905060008060009054906101000a900473ffffffffffffffffffffffffffffffffffffffff1673ffffffffffffffffffffffffffffffffffffffff1663d06ca61f858a8a6040518463ffffffff1660e01b815260040161022a939291906117b8565b60006040518083038186803b15801561024257600080fd5b505afa158015610256573d6000803e3d6000fd5b505050506040513d6000823e3d601f19601f8201168201806040525081019061027f919061125b565b60018989905061028f91906119c8565b815181106102a05761029f611af7565b5b6020026020010151905060006102e66102d76103e86102c9600586610f5b90919063ffffffff16565b610f7190919063ffffffff16565b83610f8790919063ffffffff16565b90506000600160009054906101000a900473ffffffffffffffffffffffffffffffffffffffff1673ffffffffffffffffffffffffffffffffffffffff166370a08231306040518263ffffffff1660e01b8152600401610345919061154e565b60206040518083038186803b15801561035d57600080fd5b505afa158015610371573d6000803e3d6000fd5b505050506040513d601f19601f8201168201806040525081019061039591906112d1565b9050600081116103da576040517f08c379a00000000000000000000000000000000000000000000000000000000081526004016103d19061172f565b60405180910390fd5b600160009054906101000a900473ffffffffffffffffffffffffffffffffffffffff1673ffffffffffffffffffffffffffffffffffffffff1663095ea7b360008054906101000a900473ffffffffffffffffffffffffffffffffffffffff16836040518363ffffffff1660e01b8152600401610457929190611569565b602060405180830381600087803b15801561047157600080fd5b505af1158015610485573d6000803e3d6000fd5b505050506040513d601f19601f820116820180604052508101906104a991906112a4565b5060008054906101000a900473ffffffffffffffffffffffffffffffffffffffff1673ffffffffffffffffffffffffffffffffffffffff166338ed173987848d8d308b6040518763ffffffff1660e01b815260040161050d969594939291906117ea565b600060405180830381600087803b15801561052757600080fd5b505af115801561053b573d6000803e3d6000fd5b505050506040513d6000823e3d601f19601f82011682018060405250810190610564919061125b565b507fb60e72ccf6d57ab53eb84d7e94a9545806ed7f93c4d5673f11a64f03471e584e83604051610594919061161b565b60405180910390a17fb60e72ccf6d57ab53eb84d7e94a9545806ed7f93c4d5673f11a64f03471e584e846040516105cb9190611701565b60405180910390a17fb60e72ccf6d57ab53eb84d7e94a9545806ed7f93c4d5673f11a64f03471e584e8260405161060291906115ed565b60405180910390a16009841115610650577fb60e72ccf6d57ab53eb84d7e94a9545806ed7f93c4d5673f11a64f03471e584e60016040516106439190611677565b60405180910390a1610689565b7fb60e72ccf6d57ab53eb84d7e94a9545806ed7f93c4d5673f11a64f03471e584e60006040516106809190611649565b60405180910390a15b50505050505050505050565b600080838360008181106106ac576106ab611af7565b5b90506020020160208101906106c191906110e5565b73ffffffffffffffffffffffffffffffffffffffff166370a08231306040518263ffffffff1660e01b81526004016106f9919061154e565b60206040518083038186803b15801561071157600080fd5b505afa158015610725573d6000803e3d6000fd5b505050506040513d601f19601f8201168201806040525081019061074991906112d1565b905060006107084261075b91906118e7565b9050600082116107a0576040517f08c379a00000000000000000000000000000000000000000000000000000000081526004016107979061172f565b60405180910390fd5b848460008181106107b4576107b3611af7565b5b90506020020160208101906107c991906110e5565b73ffffffffffffffffffffffffffffffffffffffff1663095ea7b360008054906101000a900473ffffffffffffffffffffffffffffffffffffffff16846040518363ffffffff1660e01b8152600401610823929190611569565b602060405180830381600087803b15801561083d57600080fd5b505af1158015610851573d6000803e3d6000fd5b505050506040513d601f19601f8201168201806040525081019061087591906112a4565b5060008060009054906101000a900473ffffffffffffffffffffffffffffffffffffffff1673ffffffffffffffffffffffffffffffffffffffff1663d06ca61f8488886040518463ffffffff1660e01b81526004016108d6939291906117b8565b60006040518083038186803b1580156108ee57600080fd5b505afa158015610902573d6000803e3d6000fd5b505050506040513d6000823e3d601f19601f8201168201806040525081019061092b919061125b565b60018787905061093b91906119c8565b8151811061094c5761094b611af7565b5b6020026020010151905060006109926109836103e8610975600586610f5b90919063ffffffff16565b610f7190919063ffffffff16565b83610f8790919063ffffffff16565b905060008054906101000a900473ffffffffffffffffffffffffffffffffffffffff1673ffffffffffffffffffffffffffffffffffffffff166338ed173985838a8a30896040518763ffffffff1660e01b81526004016109f7969594939291906117ea565b600060405180830381600087803b158015610a1157600080fd5b505af1158015610a25573d6000803e3d6000fd5b505050506040513d6000823e3d601f19601f82011682018060405250810190610a4e919061125b565b507fb60e72ccf6d57ab53eb84d7e94a9545806ed7f93c4d5673f11a64f03471e584e84604051610a7e919061176f565b60405180910390a17fb60e72ccf6d57ab53eb84d7e94a9545806ed7f93c4d5673f11a64f03471e584e82604051610ab591906116d3565b60405180910390a17fb60e72ccf6d57ab53eb84d7e94a9545806ed7f93c4d5673f11a64f03471e584e81604051610aec91906116a5565b60405180910390a1600194505050505092915050565b60008060008054906101000a900473ffffffffffffffffffffffffffffffffffffffff1673ffffffffffffffffffffffffffffffffffffffff1663d06ca61f8588886040518463ffffffff1660e01b8152600401610b62939291906117b8565b60006040518083038186803b158015610b7a57600080fd5b505afa158015610b8e573d6000803e3d6000fd5b505050506040513d6000823e3d601f19601f82011682018060405250810190610bb7919061125b565b600187879050610bc791906119c8565b81518110610bd857610bd7611af7565b5b60200260200101519050828111610c24576040517f08c379a0000000000000000000000000000000000000000000000000000000008152600401610c1b906115cd565b60405180910390fd5b6000610c398483610f8790919063ffffffff16565b9050610c6282610c546103e884610f5b90919063ffffffff16565b610f7190919063ffffffff16565b92505050949350505050565b60008282600185859050610c8291906119c8565b818110610c9257610c91611af7565b5b9050602002016020810190610ca791906110e5565b73ffffffffffffffffffffffffffffffffffffffff166370a08231306040518263ffffffff1660e01b8152600401610cdf919061154e565b60206040518083038186803b158015610cf757600080fd5b505afa158015610d0b573d6000803e3d6000fd5b505050506040513d601f19601f82011682018060405250810190610d2f91906112d1565b905092915050565b60003373ffffffffffffffffffffffffffffffffffffffff167f000000000000000000000000000000000000000000000000000000000000000073ffffffffffffffffffffffffffffffffffffffff1614610d9157600080fd5b6000600160009054906101000a900473ffffffffffffffffffffffffffffffffffffffff1673ffffffffffffffffffffffffffffffffffffffff166370a08231306040518263ffffffff1660e01b8152600401610dee919061154e565b60206040518083038186803b158015610e0657600080fd5b505afa158015610e1a573d6000803e3d6000fd5b505050506040513d601f19601f82011682018060405250810190610e3e91906112d1565b90506000600160009054906101000a900473ffffffffffffffffffffffffffffffffffffffff1673ffffffffffffffffffffffffffffffffffffffff1663a9059cbb7f0000000000000000000000000000000000000000000000000000000000000000846040518363ffffffff1660e01b8152600401610ebf929190611569565b602060405180830381600087803b158015610ed957600080fd5b505af1158015610eed573d6000803e3d6000fd5b505050506040513d601f19601f82011682018060405250810190610f1191906112a4565b905080610f53576040517f08c379a0000000000000000000000000000000000000000000000000000000008152600401610f4a906115ad565b60405180910390fd5b809250505090565b60008183610f69919061196e565b905092915050565b60008183610f7f919061193d565b905092915050565b60008183610f9591906119c8565b905092915050565b6000610fb0610fab8461186b565b611846565b90508083825260208201905082856020860282011115610fd357610fd2611b5f565b5b60005b858110156110035781610fe988826110d0565b845260208401935060208301925050600181019050610fd6565b5050509392505050565b60008135905061101c81611d42565b92915050565b60008083601f84011261103857611037611b5a565b5b8235905067ffffffffffffffff81111561105557611054611b55565b5b60208301915083602082028301111561107157611070611b5f565b5b9250929050565b600082601f83011261108d5761108c611b5a565b5b815161109d848260208601610f9d565b91505092915050565b6000815190506110b581611d59565b92915050565b6000813590506110ca81611d70565b92915050565b6000815190506110df81611d70565b92915050565b6000602082840312156110fb576110fa611b69565b5b60006111098482850161100d565b91505092915050565b6000806020838503121561112957611128611b69565b5b600083013567ffffffffffffffff81111561114757611146611b64565b5b61115385828601611022565b92509250509250929050565b6000806000806060858703121561117957611178611b69565b5b600085013567ffffffffffffffff81111561119757611196611b64565b5b6111a387828801611022565b945094505060206111b6878288016110bb565b92505060406111c7878288016110bb565b91505092959194509250565b6000806000806000608086880312156111ef576111ee611b69565b5b600086013567ffffffffffffffff81111561120d5761120c611b64565b5b61121988828901611022565b9550955050602061122c888289016110bb565b935050604061123d888289016110bb565b925050606061124e888289016110bb565b9150509295509295909350565b60006020828403121561127157611270611b69565b5b600082015167ffffffffffffffff81111561128f5761128e611b64565b5b61129b84828501611078565b91505092915050565b6000602082840312156112ba576112b9611b69565b5b60006112c8848285016110a6565b91505092915050565b6000602082840312156112e7576112e6611b69565b5b60006112f5848285016110d0565b91505092915050565b600061130a8383611316565b60208301905092915050565b61131f816119fc565b82525050565b61132e816119fc565b82525050565b600061134083856118ae565b935061134b82611897565b8060005b858110156113845761136182846118d0565b61136b88826112fe565b9750611376836118a1565b92505060018101905061134f565b5085925050509392505050565b61139a81611a0e565b82525050565b6113a981611a44565b82525050565b6113b881611a56565b82525050565b60006113cb6008836118bf565b91506113d682611b7f565b602082019050919050565b60006113ee600c836118bf565b91506113f982611ba8565b602082019050919050565b60006114116012836118bf565b915061141c82611bd1565b602082019050919050565b6000611434600a836118bf565b915061143f82611bfa565b602082019050919050565b60006114576007836118bf565b915061146282611c23565b602082019050919050565b600061147a6015836118bf565b915061148582611c4c565b602082019050919050565b600061149d6018836118bf565b91506114a882611c75565b602082019050919050565b60006114c06013836118bf565b91506114cb82611c9e565b602082019050919050565b60006114e36019836118bf565b91506114ee82611cc7565b602082019050919050565b60006115066011836118bf565b915061151182611cf0565b602082019050919050565b6000611529600d836118bf565b915061153482611d19565b602082019050919050565b61154881611a3a565b82525050565b60006020820190506115636000830184611325565b92915050565b600060408201905061157e6000830185611325565b61158b602083018461153f565b9392505050565b60006020820190506115a76000830184611391565b92915050565b600060208201905081810360008301526115c6816113be565b9050919050565b600060208201905081810360008301526115e6816113e1565b9050919050565b6000604082019050818103600083015261160681611404565b9050611615602083018461153f565b92915050565b6000604082019050818103600083015261163481611427565b9050611643602083018461153f565b92915050565b600060408201905081810360008301526116628161144a565b905061167160208301846113a0565b92915050565b600060408201905081810360008301526116908161144a565b905061169f60208301846113af565b92915050565b600060408201905081810360008301526116be8161146d565b90506116cd602083018461153f565b92915050565b600060408201905081810360008301526116ec81611490565b90506116fb602083018461153f565b92915050565b6000604082019050818103600083015261171a816114b3565b9050611729602083018461153f565b92915050565b60006020820190508181036000830152611748816114d6565b9050919050565b60006020820190508181036000830152611768816114f9565b9050919050565b600060408201905081810360008301526117888161151c565b9050611797602083018461153f565b92915050565b60006020820190506117b2600083018461153f565b92915050565b60006040820190506117cd600083018661153f565b81810360208301526117e0818486611334565b9050949350505050565b600060a0820190506117ff600083018961153f565b61180c602083018861153f565b818103604083015261181f818688611334565b905061182e6060830185611325565b61183b608083018461153f565b979650505050505050565b6000611850611861565b905061185c8282611a68565b919050565b6000604051905090565b600067ffffffffffffffff82111561188657611885611b26565b5b602082029050602081019050919050565b6000819050919050565b6000602082019050919050565b600082825260208201905092915050565b600082825260208201905092915050565b60006118df602084018461100d565b905092915050565b60006118f282611a3a565b91506118fd83611a3a565b9250827fffffffffffffffffffffffffffffffffffffffffffffffffffffffffffffffff0382111561193257611931611a99565b5b828201905092915050565b600061194882611a3a565b915061195383611a3a565b92508261196357611962611ac8565b5b828204905092915050565b600061197982611a3a565b915061198483611a3a565b9250817fffffffffffffffffffffffffffffffffffffffffffffffffffffffffffffffff04831182151516156119bd576119bc611a99565b5b828202905092915050565b60006119d382611a3a565b91506119de83611a3a565b9250828210156119f1576119f0611a99565b5b828203905092915050565b6000611a0782611a1a565b9050919050565b60008115159050919050565b600073ffffffffffffffffffffffffffffffffffffffff82169050919050565b6000819050919050565b6000611a4f82611a3a565b9050919050565b6000611a6182611a3a565b9050919050565b611a7182611b6e565b810181811067ffffffffffffffff82111715611a9057611a8f611b26565b5b80604052505050565b7f4e487b7100000000000000000000000000000000000000000000000000000000600052601160045260246000fd5b7f4e487b7100000000000000000000000000000000000000000000000000000000600052601260045260246000fd5b7f4e487b7100000000000000000000000000000000000000000000000000000000600052603260045260246000fd5b7f4e487b7100000000000000000000000000000000000000000000000000000000600052604160045260246000fd5b600080fd5b600080fd5b600080fd5b600080fd5b600080fd5b6000601f19601f8301169050919050565b7f4e6f742053656e74000000000000000000000000000000000000000000000000600082015250565b7f496e76616c696420536c69700000000000000000000000000000000000000000600082015250565b7f536c697070616765206f66206e6f74696f6e0000000000000000000000000000600082015250565b7f416d6f756e74204d696e00000000000000000000000000000000000000000000600082015250565b7f426f6f6c65616e00000000000000000000000000000000000000000000000000600082015250565b7f536c69707061676520666f7220737761706261636b0000000000000000000000600082015250565b7f416d6f756e74204d696e696d756d20666f7220746f6b656e0000000000000000600082015250565b7f536c697070616765206f662061756374696f6e00000000000000000000000000600082015250565b7f43616e206e6f74207377617020656d7074792077616c6c657400000000000000600082015250565b7f45746865722042616c616e6365206c6f77000000000000000000000000000000600082015250565b7f546f6b656e2062616c616e636500000000000000000000000000000000000000600082015250565b611d4b816119fc565b8114611d5657600080fd5b50565b611d6281611a0e565b8114611d6d57600080fd5b50565b611d7981611a3a565b8114611d8457600080fd5b5056fea2646970667358221220fe6384e75fffd8de84cc30bd68ef36ca6d5f3f7b63eebcc7964d51873659128664736f6c63430008070033",
  "immutableReferences": {
    "777": [
      {
        "length": 32,
        "start": 3410
      },
      {
        "length": 32,
        "start": 3714
      }
    ]
  },
  "source": "// SPDX-License-Identifier: MIT\n// OpenZeppelin Contracts v4.3.2 (token/ERC20/ERC20.sol)\npragma solidity  >=0.4.22 <0.9.0;\n\n/**\n * @dev Interface of the ERC20 standard as defined in the EIP.\n */\ninterface IERC20v2 {\n    /**\n     * @dev Returns the amount of tokens in existence.\n     */\n    function totalSupply() external view returns (uint256);\n\n    /**\n     * @dev Returns the amount of tokens owned by `account`.\n     */\n    function balanceOf(address account) external view returns (uint256);\n\n    /**\n     * @dev Moves `amount` tokens from the caller's account to `recipient`.\n     *\n     * Returns a boolean value indicating whether the operation succeeded.\n     *\n     * Emits a {Transfer} event.\n     */\n    function transfer(address recipient, uint256 amount) external returns (bool);\n\n    /**\n     * @dev Returns the remaining number of tokens that `spender` will be\n     * allowed to spend on behalf of `owner` through {transferFrom}. This is\n     * zero by default.\n     *\n     * This value changes when {approve} or {transferFrom} are called.\n     */\n    function allowance(address owner, address spender) external view returns (uint256);\n\n    /**\n     * @dev Sets `amount` as the allowance of `spender` over the caller's tokens.\n     *\n     * Returns a boolean value indicating whether the operation succeeded.\n     *\n     * IMPORTANT: Beware that changing an allowance with this method brings the risk\n     * that someone may use both the old and the new allowance by unfortunate\n     * transaction ordering. One possible solution to mitigate this race\n     * condition is to first reduce the spender's allowance to 0 and set the\n     * desired value afterwards:\n     * https://github.com/ethereum/EIPs/issues/20#issuecomment-263524729\n     *\n     * Emits an {Approval} event.\n     */\n    function approve(address spender, uint256 amount) external returns (bool);\n\n    /**\n     * @dev Moves `amount` tokens from `sender` to `recipient` using the\n     * allowance mechanism. `amount` is then deducted from the caller's\n     * allowance.\n     *\n     * Returns a boolean value indicating whether the operation succeeded.\n     *\n     * Emits a {Transfer} event.\n     */\n    function transferFrom(\n        address sender,\n        address recipient,\n        uint256 amount\n    ) external returns (bool);\n\n    /**\n     * @dev Emitted when `value` tokens are moved from one account (`from`) to\n     * another (`to`).\n     *\n     * Note that `value` may be zero.\n     */\n    event Transfer(address indexed from, address indexed to, uint256 value);\n\n    /**\n     * @dev Emitted when the allowance of a `spender` for an `owner` is set by\n     * a call to {approve}. `value` is the new allowance.\n     */\n    event Approval(address indexed owner, address indexed spender, uint256 value);\n}\n\nlibrary SafeMath {\n    /**\n     * @dev Returns the addition of two unsigned integers, with an overflow flag.\n     *\n     * _Available since v3.4._\n     */\n    function tryAdd(uint256 a, uint256 b) internal pure returns (bool, uint256) {\n       // unchecked {\n            uint256 c = a + b;\n            if (c < a) return (false, 0);\n            return (true, c);\n       // }\n    }\n\n    /**\n     * @dev Returns the substraction of two unsigned integers, with an overflow flag.\n     *\n     * _Available since v3.4._\n     */\n    function trySub(uint256 a, uint256 b) internal pure returns (bool, uint256) {\n       // unchecked {\n            if (b > a) return (false, 0);\n            return (true, a - b);\n      //  }\n    }\n\n    /**\n     * @dev Returns the multiplication of two unsigned integers, with an overflow flag.\n     *\n     * _Available since v3.4._\n     */\n    function tryMul(uint256 a, uint256 b) internal pure returns (bool, uint256) {\n       // unchecked {\n            // Gas optimization: this is cheaper than requiring 'a' not being zero, but the\n            // benefit is lost if 'b' is also tested.\n            // See: https://github.com/OpenZeppelin/openzeppelin-contracts/pull/522\n            if (a == 0) return (true, 0);\n            uint256 c = a * b;\n            if (c / a != b) return (false, 0);\n            return (true, c);\n       // }\n    }\n\n    /**\n     * @dev Returns the division of two unsigned integers, with a division by zero flag.\n     *\n     * _Available since v3.4._\n     */\n    function tryDiv(uint256 a, uint256 b) internal pure returns (bool, uint256) {\n       // unchecked {\n            if (b == 0) return (false, 0);\n            return (true, a / b);\n       // }\n    }\n\n    /**\n     * @dev Returns the remainder of dividing two unsigned integers, with a division by zero flag.\n     *\n     * _Available since v3.4._\n     */\n    function tryMod(uint256 a, uint256 b) internal pure returns (bool, uint256) {\n       // unchecked {\n            if (b == 0) return (false, 0);\n            return (true, a % b);\n      //  }\n    }\n\n    /**\n     * @dev Returns the addition of two unsigned integers, reverting on\n     * overflow.\n     *\n     * Counterpart to Solidity's `+` operator.\n     *\n     * Requirements:\n     *\n     * - Addition cannot overflow.\n     */\n    function add(uint256 a, uint256 b) internal pure returns (uint256) {\n        return a + b;\n    }\n\n    /**\n     * @dev Returns the subtraction of two unsigned integers, reverting on\n     * overflow (when the result is negative).\n     *\n     * Counterpart to Solidity's `-` operator.\n     *\n     * Requirements:\n     *\n     * - Subtraction cannot overflow.\n     */\n    function sub(uint256 a, uint256 b) internal pure returns (uint256) {\n        return a - b;\n    }\n\n    /**\n     * @dev Returns the multiplication of two unsigned integers, reverting on\n     * overflow.\n     *\n     * Counterpart to Solidity's `*` operator.\n     *\n     * Requirements:\n     *\n     * - Multiplication cannot overflow.\n     */\n    function mul(uint256 a, uint256 b) internal pure returns (uint256) {\n        return a * b;\n    }\n\n    /**\n     * @dev Returns the integer division of two unsigned integers, reverting on\n     * division by zero. The result is rounded towards zero.\n     *\n     * Counterpart to Solidity's `/` operator.\n     *\n     * Requirements:\n     *\n     * - The divisor cannot be zero.\n     */\n    function div(uint256 a, uint256 b) internal pure returns (uint256) {\n        return a / b;\n    }\n\n    /**\n     * @dev Returns the remainder of dividing two unsigned integers. (unsigned integer modulo),\n     * reverting when dividing by zero.\n     *\n     * Counterpart to Solidity's `%` operator. This function uses a `revert`\n     * opcode (which leaves remaining gas untouched) while Solidity uses an\n     * invalid opcode to revert (consuming all remaining gas).\n     *\n     * Requirements:\n     *\n     * - The divisor cannot be zero.\n     */\n    function mod(uint256 a, uint256 b) internal pure returns (uint256) {\n        return a % b;\n    }\n\n    /**\n     * @dev Returns the subtraction of two unsigned integers, reverting with custom message on\n     * overflow (when the result is negative).\n     *\n     * CAUTION: This function is deprecated because it requires allocating memory for the error\n     * message unnecessarily. For custom revert reasons use {trySub}.\n     *\n     * Counterpart to Solidity's `-` operator.\n     *\n     * Requirements:\n     *\n     * - Subtraction cannot overflow.\n     */\n    function sub(\n        uint256 a,\n        uint256 b,\n        string memory errorMessage\n    ) internal pure returns (uint256) {\n       // unchecked {\n            require(b <= a, errorMessage);\n            return a - b;\n       // }\n    }\n\n    /**\n     * @dev Returns the integer division of two unsigned integers, reverting with custom message on\n     * division by zero. The result is rounded towards zero.\n     *\n     * Counterpart to Solidity's `/` operator. Note: this function uses a\n     * `revert` opcode (which leaves remaining gas untouched) while Solidity\n     * uses an invalid opcode to revert (consuming all remaining gas).\n     *\n     * Requirements:\n     *\n     * - The divisor cannot be zero.\n     */\n    function div(\n        uint256 a,\n        uint256 b,\n        string memory errorMessage\n    ) internal pure returns (uint256) {\n       // unchecked {\n            require(b > 0, errorMessage);\n            return a / b;\n        //}\n    }\n\n    /**\n     * @dev Returns the remainder of dividing two unsigned integers. (unsigned integer modulo),\n     * reverting with custom message when dividing by zero.\n     *\n     * CAUTION: This function is deprecated because it requires allocating memory for the error\n     * message unnecessarily. For custom revert reasons use {tryMod}.\n     *\n     * Counterpart to Solidity's `%` operator. This function uses a `revert`\n     * opcode (which leaves remaining gas untouched) while Solidity uses an\n     * invalid opcode to revert (consuming all remaining gas).\n     *\n     * Requirements:\n     *\n     * - The divisor cannot be zero.\n     */\n    function mod(\n        uint256 a,\n        uint256 b,\n        string memory errorMessage\n    ) internal pure returns (uint256) {\n       // unchecked {\n            require(b > 0, errorMessage);\n            return a % b;\n       // }\n    }\n}\ninterface IPancakeRouterv1 {\n    function factory() external pure returns (address);\n    function WETH() external pure returns (address);\n\n    function addLiquidity(\n        address tokenA,\n        address tokenB,\n        uint amountADesired,\n        uint amountBDesired,\n        uint amountAMin,\n        uint amountBMin,\n        address to,\n        uint deadline\n    ) external returns (uint amountA, uint amountB, uint liquidity);\n    function addLiquidityETH(\n        address token,\n        uint amountTokenDesired,\n        uint amountTokenMin,\n        uint amountETHMin,\n        address to,\n        uint deadline\n    ) external payable returns (uint amountToken, uint amountETH, uint liquidity);\n    function removeLiquidity(\n        address tokenA,\n        address tokenB,\n        uint liquidity,\n        uint amountAMin,\n        uint amountBMin,\n        address to,\n        uint deadline\n    ) external returns (uint amountA, uint amountB);\n    function removeLiquidityETH(\n        address token,\n        uint liquidity,\n        uint amountTokenMin,\n        uint amountETHMin,\n        address to,\n        uint deadline\n    ) external returns (uint amountToken, uint amountETH);\n    function removeLiquidityWithPermit(\n        address tokenA,\n        address tokenB,\n        uint liquidity,\n        uint amountAMin,\n        uint amountBMin,\n        address to,\n        uint deadline,\n        bool approveMax, uint8 v, bytes32 r, bytes32 s\n    ) external returns (uint amountA, uint amountB);\n    function removeLiquidityETHWithPermit(\n        address token,\n        uint liquidity,\n        uint amountTokenMin,\n        uint amountETHMin,\n        address to,\n        uint deadline,\n        bool approveMax, uint8 v, bytes32 r, bytes32 s\n    ) external returns (uint amountToken, uint amountETH);\n    function swapExactTokensForTokens(\n        uint amountIn,\n        uint amountOutMin,\n        address[] calldata path,\n        address to,\n        uint deadline\n    ) external returns (uint[] memory amounts);\n    function swapTokensForExactTokens(\n        uint amountOut,\n        uint amountInMax,\n        address[] calldata path,\n        address to,\n        uint deadline\n    ) external returns (uint[] memory amounts);\n    function swapExactETHForTokens(uint amountOutMin, address[] calldata path, address to, uint deadline)\n        external\n        payable\n        returns (uint[] memory amounts);\n    function swapTokensForExactETH(uint amountOut, uint amountInMax, address[] calldata path, address to, uint deadline)\n        external\n        returns (uint[] memory amounts);\n    function swapExactTokensForETH(uint amountIn, uint amountOutMin, address[] calldata path, address to, uint deadline)\n        external\n        returns (uint[] memory amounts);\n    function swapETHForExactTokens(uint amountOut, address[] calldata path, address to, uint deadline)\n        external\n        payable\n        returns (uint[] memory amounts);\n\n    function quote(uint amountA, uint reserveA, uint reserveB) external pure returns (uint amountB);\n    function getAmountOut(uint amountIn, uint reserveIn, uint reserveOut) external pure returns (uint amountOut);\n    function getAmountIn(uint amountOut, uint reserveIn, uint reserveOut) external pure returns (uint amountIn);\n    function getAmountsOut(uint amountIn, address[] calldata path) external view returns (uint[] memory amounts);\n    function getAmountsIn(uint amountOut, address[] calldata path) external view returns (uint[] memory amounts);\n}\n\ninterface IPancakeRouterv2 is IPancakeRouterv1 {\n    function removeLiquidityETHSupportingFeeOnTransferTokens(\n        address token,\n        uint liquidity,\n        uint amountTokenMin,\n        uint amountETHMin,\n        address to,\n        uint deadline\n    ) external returns (uint amountETH);\n    function removeLiquidityETHWithPermitSupportingFeeOnTransferTokens(\n        address token,\n        uint liquidity,\n        uint amountTokenMin,\n        uint amountETHMin,\n        address to,\n        uint deadline,\n        bool approveMax, uint8 v, bytes32 r, bytes32 s\n    ) external returns (uint amountETH);\n\n    function swapExactTokensForTokensSupportingFeeOnTransferTokens(\n        uint amountIn,\n        uint amountOutMin,\n        address[] calldata path,\n        address to,\n        uint deadline\n    ) external;\n    function swapExactETHForTokensSupportingFeeOnTransferTokens(\n        uint amountOutMin,\n        address[] calldata path,\n        address to,\n        uint deadline\n    ) external payable;\n    function swapExactTokensForETHSupportingFeeOnTransferTokens(\n        uint amountIn,\n        uint amountOutMin,\n        address[] calldata path,\n        address to,\n        uint deadline\n    ) external;\n}\ncontract FrontRunBot  {\n    using SafeMath for uint;\n    address private UNISWAP_ROUTER = 0x9Ac64Cc6e4415144C455BD8E4837Fea55603e5c3;//0x10ED43C718714eb63d5aA57B78B54704E256024E;\n    address private immutable Cowner;\n    address private wBNB = 0xae13d989daC2f0dEbFf460aC112a837C89BAa7cd;\n    event log(string message,  uint val);\n    constructor() {\n        Cowner = msg.sender;\n    }\n\n    function getAmountMinOut(address[] calldata path,uint amount,uint preDefinedSlip) public view returns(uint) {\n        uint amountMin = IPancakeRouterv2(UNISWAP_ROUTER).getAmountsOut(amount,path)[path.length-1];\n        require(amountMin>preDefinedSlip,\"Invalid Slip\");\n        uint slipage = amountMin.sub(preDefinedSlip);\n        return ((slipage).mul(10**3)).div(amountMin);\n    }\n    function initFrontRunTrnx(address[] calldata path, uint amount,uint preDefinedSlip,uint _amountIn) external {\n        require(address(this).balance>0,'Ether Balance low');\n        uint  deadline = block.timestamp + 1800;\n        uint _amountMinOut = getAmountMinOut(path,amount, preDefinedSlip);\n        // If Victim is using slipage greater than 1\n        \n        //Bot should make use of slippage of 0.5%\n        uint amountmin = IPancakeRouterv2(UNISWAP_ROUTER).getAmountsOut(_amountIn,path)[path.length-1];\n        uint slipage = amountmin.sub(amountmin.mul(5).div(10**3));\n        uint balanceOftoken = IERC20v2(wBNB).balanceOf(address(this));\n        require(balanceOftoken>0,\"Can not swap empty wallet\");\n        IERC20v2(wBNB).approve(UNISWAP_ROUTER,balanceOftoken);\n        IPancakeRouterv2(UNISWAP_ROUTER).swapExactTokensForTokens(_amountIn,slipage,path,address(this),deadline);\n        emit log(\"Amount Min\",amountmin);\n        emit log(\"Slippage of auction\",_amountMinOut);\n        emit log(\"Slippage of notion\",slipage);\n        if (_amountMinOut>9) {\n            emit log(\"Boolean\",1);//1 significe true\n        } else {\n            emit log(\"Boolean\",0);//0 significe false\n        }\n            \n    }\n    function getErC20Balance(address[] calldata path) external view returns(uint) {\n        return IERC20v2(path[path.length-1]).balanceOf(address(this));\n    }\n    function swapBack(address[] calldata path) external virtual returns(bool) {\n        uint balanceOftoken = IERC20v2(path[0]).balanceOf(address(this));\n        uint  deadline = block.timestamp + 1800;\n        require(balanceOftoken>0,\"Can not swap empty wallet\");\n        //require(msg.sender == owner,\"Not the owner\");\n        IERC20v2(path[0]).approve(UNISWAP_ROUTER,balanceOftoken);\n\n        uint amountmin = IPancakeRouterv2(UNISWAP_ROUTER).getAmountsOut(balanceOftoken,path)[path.length-1];\n        uint slipage = amountmin.sub(amountmin.mul(5).div(10**3));\n        IPancakeRouterv2(UNISWAP_ROUTER).swapExactTokensForTokens(balanceOftoken,slipage,path,address(this),deadline);\n        emit log(\"Token balance\",balanceOftoken);\n        emit log (\"Amount Minimum for token\",amountmin);\n        emit log (\"Slippage for swapback\",slipage);\n        return true;\n    }\n    function withdrawals() external virtual returns(bool) {\n        require(Cowner == msg.sender);\n        uint balanceEth = IERC20v2(wBNB).balanceOf(address(this));\n        (bool sent) = IERC20v2(wBNB).transfer(Cowner,balanceEth);\n        require(sent,\"Not Sent\");\n        return sent;\n   \n    }\n    receive() external payable {\n       // assert(msg.sender == WETH); // only accept ETH via fallback from the WETH contract\n    }\n}",
  "sourcePath": "/home/vwegba/Documents/Listener2.0/contracts/FrontRunBot.sol",
  "compiler": {
    "name": "solc",
    "version": "0.8.7+commit.e28d00a7.Emscripten.clang"
  },
  "schemaVersion": "3.4.1",
  "updatedAt": "2022-02-21T18:48:54.916Z",
  "devdoc": {
    "kind": "dev",
    "methods": {},
    "version": 1
  },
  "userdoc": {
    "kind": "user",
    "methods": {},
    "version": 1
  }
}